{
  "contractName": "KittycontractNFT",
  "abi": [
    {
      "anonymous": false,
      "inputs": [
        {
          "indexed": true,
          "internalType": "address",
          "name": "owner",
          "type": "address"
        },
        {
          "indexed": true,
          "internalType": "address",
          "name": "approved",
          "type": "address"
        },
        {
          "indexed": true,
          "internalType": "uint256",
          "name": "tokenId",
          "type": "uint256"
        }
      ],
      "name": "Approval",
      "type": "event"
    },
    {
      "anonymous": false,
      "inputs": [
        {
          "indexed": false,
          "internalType": "address",
          "name": "_owner",
          "type": "address"
        },
        {
          "indexed": false,
          "internalType": "uint256",
          "name": "_tokenID",
          "type": "uint256"
        },
        {
          "indexed": false,
          "internalType": "uint256",
          "name": "momID",
          "type": "uint256"
        },
        {
          "indexed": false,
          "internalType": "uint256",
          "name": "dadID",
          "type": "uint256"
        },
        {
          "indexed": false,
          "internalType": "uint256",
          "name": "_genes",
          "type": "uint256"
        }
      ],
      "name": "Birth",
      "type": "event"
    },
    {
      "anonymous": false,
      "inputs": [
        {
          "indexed": true,
          "internalType": "address",
          "name": "previousOwner",
          "type": "address"
        },
        {
          "indexed": true,
          "internalType": "address",
          "name": "newOwner",
          "type": "address"
        }
      ],
      "name": "OwnershipTransferred",
      "type": "event"
    },
    {
      "anonymous": false,
      "inputs": [
        {
          "indexed": true,
          "internalType": "address",
          "name": "from",
          "type": "address"
        },
        {
          "indexed": true,
          "internalType": "address",
          "name": "to",
          "type": "address"
        },
        {
          "indexed": true,
          "internalType": "uint256",
          "name": "tokenId",
          "type": "uint256"
        }
      ],
      "name": "Transfer",
      "type": "event"
    },
    {
      "inputs": [],
      "name": "_tokenName",
      "outputs": [
        {
          "internalType": "string",
          "name": "",
          "type": "string"
        }
      ],
      "stateMutability": "view",
      "type": "function",
      "constant": true
    },
    {
      "inputs": [],
      "name": "_tokenSymbol",
      "outputs": [
        {
          "internalType": "string",
          "name": "",
          "type": "string"
        }
      ],
      "stateMutability": "view",
      "type": "function",
      "constant": true
    },
    {
      "inputs": [],
      "name": "gen0Counter",
      "outputs": [
        {
          "internalType": "uint256",
          "name": "",
          "type": "uint256"
        }
      ],
      "stateMutability": "view",
      "type": "function",
      "constant": true
    },
    {
      "inputs": [],
      "name": "gen0Limit",
      "outputs": [
        {
          "internalType": "uint256",
          "name": "",
          "type": "uint256"
        }
      ],
      "stateMutability": "view",
      "type": "function",
      "constant": true
    },
    {
      "inputs": [],
      "name": "owner",
      "outputs": [
        {
          "internalType": "address",
          "name": "",
          "type": "address"
        }
      ],
      "stateMutability": "view",
      "type": "function",
      "constant": true
    },
    {
      "inputs": [],
      "name": "renounceOwnership",
      "outputs": [],
      "stateMutability": "nonpayable",
      "type": "function"
    },
    {
      "inputs": [
        {
          "internalType": "address",
          "name": "newOwner",
          "type": "address"
        }
      ],
      "name": "transferOwnership",
      "outputs": [],
      "stateMutability": "nonpayable",
      "type": "function"
    },
    {
      "inputs": [
        {
          "internalType": "address",
          "name": "owner",
          "type": "address"
        }
      ],
      "name": "balanceOf",
      "outputs": [
        {
          "internalType": "uint256",
          "name": "balance",
          "type": "uint256"
        }
      ],
      "stateMutability": "view",
      "type": "function",
      "constant": true
    },
    {
      "inputs": [],
      "name": "totalSupply",
      "outputs": [
        {
          "internalType": "uint256",
          "name": "total",
          "type": "uint256"
        }
      ],
      "stateMutability": "view",
      "type": "function",
      "constant": true
    },
    {
      "inputs": [],
      "name": "name",
      "outputs": [
        {
          "internalType": "string",
          "name": "tokenName",
          "type": "string"
        }
      ],
      "stateMutability": "pure",
      "type": "function",
      "constant": true
    },
    {
      "inputs": [],
      "name": "symbol",
      "outputs": [
        {
          "internalType": "string",
          "name": "tokenSymbol",
          "type": "string"
        }
      ],
      "stateMutability": "pure",
      "type": "function",
      "constant": true
    },
    {
      "inputs": [
        {
          "internalType": "uint256",
          "name": "tokenId",
          "type": "uint256"
        }
      ],
      "name": "ownerOf",
      "outputs": [
        {
          "internalType": "address",
          "name": "owner",
          "type": "address"
        }
      ],
      "stateMutability": "view",
      "type": "function",
      "constant": true
    },
    {
      "inputs": [
        {
          "internalType": "address",
          "name": "_to",
          "type": "address"
        },
        {
          "internalType": "uint256",
          "name": "_tokenID",
          "type": "uint256"
        }
      ],
      "name": "transfer",
      "outputs": [],
      "stateMutability": "nonpayable",
      "type": "function"
    },
    {
      "inputs": [
        {
          "internalType": "uint256",
          "name": "_genes",
          "type": "uint256"
        }
      ],
      "name": "createKittyGen0",
      "outputs": [
        {
          "internalType": "uint256",
          "name": "",
          "type": "uint256"
        }
      ],
      "stateMutability": "nonpayable",
      "type": "function"
    },
    {
      "inputs": [
        {
          "internalType": "uint256",
          "name": "tokenID",
          "type": "uint256"
        }
      ],
      "name": "getKitty",
      "outputs": [
        {
          "internalType": "uint256",
          "name": "",
          "type": "uint256"
        },
        {
          "internalType": "uint256",
          "name": "",
          "type": "uint256"
        },
        {
          "internalType": "uint256",
          "name": "",
          "type": "uint256"
        },
        {
          "internalType": "uint256",
          "name": "",
          "type": "uint256"
        },
        {
          "internalType": "uint256",
          "name": "",
          "type": "uint256"
        }
      ],
      "stateMutability": "view",
      "type": "function",
      "constant": true
    }
  ],
  "bytecode": "0x608060405234801561001057600080fd5b5060006100216100c460201b60201c565b9050806000806101000a81548173ffffffffffffffffffffffffffffffffffffffff021916908373ffffffffffffffffffffffffffffffffffffffff1602179055508073ffffffffffffffffffffffffffffffffffffffff16600073ffffffffffffffffffffffffffffffffffffffff167f8be0079c531659141344cd1fd0a4f28419497f9722a3daafe3b4186f6b6457e060405160405180910390a3506100cc565b600033905090565b611343806100db6000396000f3fe608060405234801561001057600080fd5b50600436106100f55760003560e01c80639f0c812511610097578063e98b7f4d11610066578063e98b7f4d14610264578063ecf35cca14610298578063ef5e94aa146102b6578063f2fde38b146102d4576100f5565b80639f0c8125146101dc578063a9059cbb146101fa578063d5a776ca14610216578063e515a4d114610246576100f5565b806370a08231116100d357806370a0823114610166578063715018a6146101965780638da5cb5b146101a057806395d89b41146101be576100f5565b806306fdde03146100fa57806318160ddd146101185780636352211e14610136575b600080fd5b6101026102f0565b60405161010f9190611031565b60405180910390f35b61012061032d565b60405161012d91906110d3565b60405180910390f35b610150600480360381019061014b9190610dd1565b61033a565b60405161015d9190610fc3565b60405180910390f35b610180600480360381019061017b9190610d6c565b610377565b60405161018d91906110d3565b60405180910390f35b61019e6103c0565b005b6101a86104fa565b6040516101b59190610fc3565b60405180910390f35b6101c6610523565b6040516101d39190611031565b60405180910390f35b6101e4610560565b6040516101f19190611031565b60405180910390f35b610214600480360381019061020f9190610d95565b610599565b005b610230600480360381019061022b9190610dd1565b61069a565b60405161023d91906110d3565b60405180910390f35b61024e6106d9565b60405161025b91906110d3565b60405180910390f35b61027e60048036038101906102799190610dd1565b6106de565b60405161028f9594939291906110ee565b60405180910390f35b6102a06107c6565b6040516102ad9190611031565b60405180910390f35b6102be6107ff565b6040516102cb91906110d3565b60405180910390f35b6102ee60048036038101906102e99190610d6c565b610805565b005b60606040518060400160405280601081526020017f576174657273746f6e654b697474797300000000000000000000000000000000815250905090565b6000600480549050905090565b60006002600083815260200190815260200160002060009054906101000a900473ffffffffffffffffffffffffffffffffffffffff169050919050565b6000600160008373ffffffffffffffffffffffffffffffffffffffff1673ffffffffffffffffffffffffffffffffffffffff168152602001908152602001600020549050919050565b6103c86109ae565b73ffffffffffffffffffffffffffffffffffffffff166103e66104fa565b73ffffffffffffffffffffffffffffffffffffffff161461043c576040517f08c379a000000000000000000000000000000000000000000000000000000000815260040161043390611093565b60405180910390fd5b600073ffffffffffffffffffffffffffffffffffffffff1660008054906101000a900473ffffffffffffffffffffffffffffffffffffffff1673ffffffffffffffffffffffffffffffffffffffff167f8be0079c531659141344cd1fd0a4f28419497f9722a3daafe3b4186f6b6457e060405160405180910390a360008060006101000a81548173ffffffffffffffffffffffffffffffffffffffff021916908373ffffffffffffffffffffffffffffffffffffffff160217905550565b60008060009054906101000a900473ffffffffffffffffffffffffffffffffffffffff16905090565b60606040518060400160405280600381526020017f57534b0000000000000000000000000000000000000000000000000000000000815250905090565b6040518060400160405280601081526020017f576174657273746f6e654b69747479730000000000000000000000000000000081525081565b600073ffffffffffffffffffffffffffffffffffffffff168273ffffffffffffffffffffffffffffffffffffffff161415610609576040517f08c379a0000000000000000000000000000000000000000000000000000000008152600401610600906110b3565b60405180910390fd5b3073ffffffffffffffffffffffffffffffffffffffff168273ffffffffffffffffffffffffffffffffffffffff161415610678576040517f08c379a000000000000000000000000000000000000000000000000000000000815260040161066f90611053565b60405180910390fd5b61068233826109b6565b61068b57600080fd5b610696338383610a22565b5050565b6000600a600354106106ab57600080fd5b600360008154809291906106be90611256565b91905055506106d260008060008533610bb5565b9050919050565b600a81565b60008060008060008060048781548110610721577f4e487b7100000000000000000000000000000000000000000000000000000000600052603260045260246000fd5b9060005260206000209060020201905080600001548160010160009054906101000a900463ffffffff168260010160049054906101000a900463ffffffff168360010160089054906101000a900467ffffffffffffffff168460010160109054906101000a900461ffff168363ffffffff1693508263ffffffff1692508167ffffffffffffffff1691508061ffff169050955095509550955095505091939590929450565b6040518060400160405280600381526020017f57534b000000000000000000000000000000000000000000000000000000000081525081565b60035481565b61080d6109ae565b73ffffffffffffffffffffffffffffffffffffffff1661082b6104fa565b73ffffffffffffffffffffffffffffffffffffffff1614610881576040517f08c379a000000000000000000000000000000000000000000000000000000000815260040161087890611093565b60405180910390fd5b600073ffffffffffffffffffffffffffffffffffffffff168173ffffffffffffffffffffffffffffffffffffffff1614156108f1576040517f08c379a00000000000000000000000000000000000000000000000000000000081526004016108e890611073565b60405180910390fd5b8073ffffffffffffffffffffffffffffffffffffffff1660008054906101000a900473ffffffffffffffffffffffffffffffffffffffff1673ffffffffffffffffffffffffffffffffffffffff167f8be0079c531659141344cd1fd0a4f28419497f9722a3daafe3b4186f6b6457e060405160405180910390a3806000806101000a81548173ffffffffffffffffffffffffffffffffffffffff021916908373ffffffffffffffffffffffffffffffffffffffff16021790555050565b600033905090565b60008273ffffffffffffffffffffffffffffffffffffffff166002600084815260200190815260200160002060009054906101000a900473ffffffffffffffffffffffffffffffffffffffff1673ffffffffffffffffffffffffffffffffffffffff1614905092915050565b60018060008473ffffffffffffffffffffffffffffffffffffffff1673ffffffffffffffffffffffffffffffffffffffff1681526020019081526020016000206000828254610a71919061115d565b92505081905550816002600083815260200190815260200160002060006101000a81548173ffffffffffffffffffffffffffffffffffffffff021916908373ffffffffffffffffffffffffffffffffffffffff160217905550600073ffffffffffffffffffffffffffffffffffffffff168373ffffffffffffffffffffffffffffffffffffffff1614610b555760018060008573ffffffffffffffffffffffffffffffffffffffff1673ffffffffffffffffffffffffffffffffffffffff1681526020019081526020016000206000828254610b4d91906111b3565b925050819055505b808273ffffffffffffffffffffffffffffffffffffffff168473ffffffffffffffffffffffffffffffffffffffff167fddf252ad1be2c89b69c2b068fc378daa952ba7f163c4a11628f55a4df523b3ef60405160405180910390a4505050565b6000806040518060a001604052808581526020018863ffffffff1681526020018763ffffffff1681526020014267ffffffffffffffff1681526020018661ffff16815250905060048190806001815401808255809150506001900390600052602060002090600202016000909190919091506000820151816000015560208201518160010160006101000a81548163ffffffff021916908363ffffffff16021790555060408201518160010160046101000a81548163ffffffff021916908363ffffffff16021790555060608201518160010160086101000a81548167ffffffffffffffff021916908367ffffffffffffffff16021790555060808201518160010160106101000a81548161ffff021916908361ffff160217905550505060006001600480549050610ce791906111b3565b9050610cf560008583610a22565b7f0a5311bd2a6608f08a180df2ee7c5946819a649b204b554bb8e39825b2c50ad584828a8a89604051610d2c959493929190610fde565b60405180910390a1809250505095945050505050565b600081359050610d51816112df565b92915050565b600081359050610d66816112f6565b92915050565b600060208284031215610d7e57600080fd5b6000610d8c84828501610d42565b91505092915050565b60008060408385031215610da857600080fd5b6000610db685828601610d42565b9250506020610dc785828601610d57565b9150509250929050565b600060208284031215610de357600080fd5b6000610df184828501610d57565b91505092915050565b610e03816111e7565b82525050565b6000610e1482611141565b610e1e818561114c565b9350610e2e818560208601611223565b610e37816112ce565b840191505092915050565b6000610e4f60328361114c565b91507f4552433732313a205472616e73666572206973206e6f7420737570706f72746560008301527f6420746f207468697320636f6e747261637400000000000000000000000000006020830152604082019050919050565b6000610eb560268361114c565b91507f4f776e61626c653a206e6577206f776e657220697320746865207a65726f206160008301527f64647265737300000000000000000000000000000000000000000000000000006020830152604082019050919050565b6000610f1b60208361114c565b91507f4f776e61626c653a2063616c6c6572206973206e6f7420746865206f776e65726000830152602082019050919050565b6000610f5b60258361114c565b91507f4552433732313a205472616e7366657220697320746f2074686520302061646460008301527f72657373210000000000000000000000000000000000000000000000000000006020830152604082019050919050565b610fbd81611219565b82525050565b6000602082019050610fd86000830184610dfa565b92915050565b600060a082019050610ff36000830188610dfa565b6110006020830187610fb4565b61100d6040830186610fb4565b61101a6060830185610fb4565b6110276080830184610fb4565b9695505050505050565b6000602082019050818103600083015261104b8184610e09565b905092915050565b6000602082019050818103600083015261106c81610e42565b9050919050565b6000602082019050818103600083015261108c81610ea8565b9050919050565b600060208201905081810360008301526110ac81610f0e565b9050919050565b600060208201905081810360008301526110cc81610f4e565b9050919050565b60006020820190506110e86000830184610fb4565b92915050565b600060a0820190506111036000830188610fb4565b6111106020830187610fb4565b61111d6040830186610fb4565b61112a6060830185610fb4565b6111376080830184610fb4565b9695505050505050565b600081519050919050565b600082825260208201905092915050565b600061116882611219565b915061117383611219565b9250827fffffffffffffffffffffffffffffffffffffffffffffffffffffffffffffffff038211156111a8576111a761129f565b5b828201905092915050565b60006111be82611219565b91506111c983611219565b9250828210156111dc576111db61129f565b5b828203905092915050565b60006111f2826111f9565b9050919050565b600073ffffffffffffffffffffffffffffffffffffffff82169050919050565b6000819050919050565b60005b83811015611241578082015181840152602081019050611226565b83811115611250576000848401525b50505050565b600061126182611219565b91507fffffffffffffffffffffffffffffffffffffffffffffffffffffffffffffffff8214156112945761129361129f565b5b600182019050919050565b7f4e487b7100000000000000000000000000000000000000000000000000000000600052601160045260246000fd5b6000601f19601f8301169050919050565b6112e8816111e7565b81146112f357600080fd5b50565b6112ff81611219565b811461130a57600080fd5b5056fea2646970667358221220b425e7c437b334bd739d9412d536e1930e4244bad35e857180fd6b58cd68274364736f6c63430008000033",
  "immutableReferences": {},
  "source": "pragma solidity ^0.8.0;\npragma experimental ABIEncoderV2;\n\nimport \"./IERC721.sol\";\nimport \"./Ownable.sol\";\n\ncontract KittycontractNFT is IERC721, Ownable {\n\n  event Birth(address _owner, uint256 _tokenID, uint256 momID, uint256 dadID, uint256 _genes);\n\n  string public constant _tokenName = \"WaterstoneKittys\";\n  string public constant _tokenSymbol = \"WSK\";\n\n  mapping(address => uint256) balances;\n\n\n  mapping(uint256 => address) ownerOfNFT;\n\n  //NFT creation limit\n  uint256 public constant gen0Limit = 10;\n\n  //NFT Gen0 limit\n  uint256 public gen0Counter;\n\n  struct Kittys {\n    uint256 genes;\n    uint32 momID;\n    uint32 dadID;\n    uint64 birthTime;\n    uint16 generation;\n  }\n\n  Kittys[] kittys;\n\n  /**\n   * @dev Returns the number of tokens in ``owner``'s account.\n   */\n  function balanceOf(address owner) external view override returns (uint256 balance){\n    //we need it to return a balance of an owner --> mapping\n    return balances[owner]; //need to create a 'balances' mapping\n  }\n\n  /*\n   * @dev Returns the total number of tokens in circulation.\n   */\n  function totalSupply() public view override returns (uint256 total){\n    return kittys.length;\n  }\n\n  /*\n   * @dev Returns the name of the token.\n   */\n  function name() external pure override returns (string memory tokenName){\n    return _tokenName;\n  }\n\n  /*\n   * @dev Returns the symbol of the token.\n   */\n  function symbol() external pure override returns (string memory tokenSymbol){\n    return _tokenSymbol;\n  }\n\n  /**\n   * @dev Returns the owner of the `tokenId` token.\n   *\n   * Requirements:\n   *\n   * - `tokenId` must exist.\n   */\n  function ownerOf(uint256 tokenId) external view override returns (address owner){\n    return ownerOfNFT[tokenId];\n  }\n\n  /* @dev Transfers `tokenId` token from `msg.sender` to `to`.\n  *\n  * Requirements:\n  *\n  * - `to` cannot be the zero address.\n  * - `to` can not be the contract address.\n  * - `tokenId` token must be owned by `msg.sender`.\n  *\n  * Emits a {Transfer} event.\n  */\n  function transfer(address _to, uint256 _tokenID) external override {\n    require(_to != address(0), \"ERC721: Transfer is to the 0 address!\");\n    require(_to != address(this), \"ERC721: Transfer is not supported to this contract\");\n    require(owns(msg.sender, _tokenID));\n\n    _transfer(msg.sender, _to, _tokenID);\n\n  }\n\n  function _transfer(address _from, address _to, uint256 _tokenID) internal {\n    //increment balance of 'to' address + 1\n    balances[_to] += 1;\n\n    //Assign the NFT to the '_to' address\n    ownerOfNFT[_tokenID] = _to;\n\n    //if '_from' address is not the 0 address (aka not a newly minted coin being transferred)...\n    //decrement the balance of the '_from' address by - 1\n    if(_from != address(0)){\n      balances[_from] -= 1;\n    }\n\n    emit Transfer(_from, _to, _tokenID);\n  }\n\n  function owns(address _from, uint256 tokenID) internal view returns(bool){\n    return ownerOfNFT[tokenID] == _from;\n  }\n\n  function createKittyGen0(uint256 _genes) public returns(uint256) {\n    //takes the genes that you send in from front send\n    //creates a new kitty for us with those specific genes\n    require(gen0Counter < gen0Limit);\n\n    gen0Counter++;\n    //use _createKitty()\n\n    return _createKitty(0, 0, 0, _genes, msg.sender);\n  }\n\n  function _createKitty(uint256 _momID, uint256 _dadID, uint256 _generation, uint256 _genes, address _owner) internal returns(uint256){\n\n      Kittys memory _kitty = Kittys({\n\n        momID: uint32(_momID),\n        dadID: uint32(_dadID),\n        generation: uint16(_generation),\n        genes: uint256(_genes),\n        birthTime: uint64(block.timestamp)\n        });\n\n      kittys.push(_kitty);\n\n      uint256 newKittenID = kittys.length - 1;\n\n      _transfer(address(0), _owner, newKittenID);\n\n      emit Birth(_owner, newKittenID, _momID, _dadID, _genes);\n\n      return newKittenID;\n\n  }\n\n  function getKitty(uint256 tokenID) external view returns(uint, uint, uint, uint, uint){\n\n    //Kittys[] storage _kittys = kittys[tokenID];\n\n      //genes = _kittys.genes;\n      //momID = _kittys.momID;\n      //dadID = _kittys.dadID;\n      //birthTime = _kittys.birthTime;\n      //generation = _kittys.generation;\n\n      Kittys storage kitties = kittys[tokenID];\n\n      return(\n        kitties.genes,\n        kitties.momID,\n        kitties.dadID,\n        kitties.birthTime,\n        kitties.generation\n        );\n\n  }\n\n}\n",
  "sourcePath": "/Users/williamlamarche/Desktop/Blockchain-Development/ETHdApp/contracts/KittycontractNFT.sol",
  "compiler": {
    "name": "solc",
    "version": "0.8.0+commit.c7dfd78e.Emscripten.clang"
  },
  "schemaVersion": "3.4.1",
  "updatedAt": "2021-10-07T01:52:52.338Z",
  "networkType": "ethereum",
  "devdoc": {
    "kind": "dev",
    "methods": {
      "balanceOf(address)": {
        "details": "Returns the number of tokens in ``owner``'s account."
      },
      "owner()": {
        "details": "Returns the address of the current owner."
      },
      "ownerOf(uint256)": {
        "details": "Returns the owner of the `tokenId` token. Requirements: - `tokenId` must exist."
      },
      "renounceOwnership()": {
        "details": "Leaves the contract without owner. It will not be possible to call `onlyOwner` functions anymore. Can only be called by the current owner. NOTE: Renouncing ownership will leave the contract without an owner, thereby removing any functionality that is only available to the owner."
      },
      "transferOwnership(address)": {
        "details": "Transfers ownership of the contract to a new account (`newOwner`). Can only be called by the current owner."
      }
    },
    "version": 1
  },
  "userdoc": {
    "kind": "user",
    "methods": {},
    "version": 1
  }
}