{
  "contractName": "KittycontractNFT",
  "abi": [
    {
      "anonymous": false,
      "inputs": [
        {
          "indexed": true,
          "internalType": "address",
          "name": "owner",
          "type": "address"
        },
        {
          "indexed": true,
          "internalType": "address",
          "name": "approved",
          "type": "address"
        },
        {
          "indexed": true,
          "internalType": "uint256",
          "name": "tokenId",
          "type": "uint256"
        }
      ],
      "name": "Approval",
      "type": "event"
    },
    {
      "anonymous": false,
      "inputs": [
        {
          "indexed": true,
          "internalType": "address",
          "name": "owner",
          "type": "address"
        },
        {
          "indexed": true,
          "internalType": "address",
          "name": "operator",
          "type": "address"
        },
        {
          "indexed": false,
          "internalType": "bool",
          "name": "approved",
          "type": "bool"
        }
      ],
      "name": "ApprovalForAll",
      "type": "event"
    },
    {
      "anonymous": false,
      "inputs": [
        {
          "indexed": false,
          "internalType": "address",
          "name": "_owner",
          "type": "address"
        },
        {
          "indexed": false,
          "internalType": "uint256",
          "name": "_tokenID",
          "type": "uint256"
        },
        {
          "indexed": false,
          "internalType": "uint256",
          "name": "momID",
          "type": "uint256"
        },
        {
          "indexed": false,
          "internalType": "uint256",
          "name": "dadID",
          "type": "uint256"
        },
        {
          "indexed": false,
          "internalType": "uint256",
          "name": "_genes",
          "type": "uint256"
        }
      ],
      "name": "Birth",
      "type": "event"
    },
    {
      "anonymous": false,
      "inputs": [
        {
          "indexed": true,
          "internalType": "address",
          "name": "previousOwner",
          "type": "address"
        },
        {
          "indexed": true,
          "internalType": "address",
          "name": "newOwner",
          "type": "address"
        }
      ],
      "name": "OwnershipTransferred",
      "type": "event"
    },
    {
      "anonymous": false,
      "inputs": [
        {
          "indexed": true,
          "internalType": "address",
          "name": "from",
          "type": "address"
        },
        {
          "indexed": true,
          "internalType": "address",
          "name": "to",
          "type": "address"
        },
        {
          "indexed": true,
          "internalType": "uint256",
          "name": "tokenId",
          "type": "uint256"
        }
      ],
      "name": "Transfer",
      "type": "event"
    },
    {
      "inputs": [],
      "name": "_tokenName",
      "outputs": [
        {
          "internalType": "string",
          "name": "",
          "type": "string"
        }
      ],
      "stateMutability": "view",
      "type": "function",
      "constant": true
    },
    {
      "inputs": [],
      "name": "_tokenSymbol",
      "outputs": [
        {
          "internalType": "string",
          "name": "",
          "type": "string"
        }
      ],
      "stateMutability": "view",
      "type": "function",
      "constant": true
    },
    {
      "inputs": [],
      "name": "gen0Counter",
      "outputs": [
        {
          "internalType": "uint256",
          "name": "",
          "type": "uint256"
        }
      ],
      "stateMutability": "view",
      "type": "function",
      "constant": true
    },
    {
      "inputs": [],
      "name": "gen0Limit",
      "outputs": [
        {
          "internalType": "uint256",
          "name": "",
          "type": "uint256"
        }
      ],
      "stateMutability": "view",
      "type": "function",
      "constant": true
    },
    {
      "inputs": [],
      "name": "gen1Counter",
      "outputs": [
        {
          "internalType": "uint256",
          "name": "",
          "type": "uint256"
        }
      ],
      "stateMutability": "view",
      "type": "function",
      "constant": true
    },
    {
      "inputs": [],
      "name": "gen1Limit",
      "outputs": [
        {
          "internalType": "uint256",
          "name": "",
          "type": "uint256"
        }
      ],
      "stateMutability": "view",
      "type": "function",
      "constant": true
    },
    {
      "inputs": [
        {
          "internalType": "uint256",
          "name": "",
          "type": "uint256"
        }
      ],
      "name": "nftApprovals",
      "outputs": [
        {
          "internalType": "address",
          "name": "",
          "type": "address"
        }
      ],
      "stateMutability": "view",
      "type": "function",
      "constant": true
    },
    {
      "inputs": [],
      "name": "owner",
      "outputs": [
        {
          "internalType": "address",
          "name": "",
          "type": "address"
        }
      ],
      "stateMutability": "view",
      "type": "function",
      "constant": true
    },
    {
      "inputs": [],
      "name": "renounceOwnership",
      "outputs": [],
      "stateMutability": "nonpayable",
      "type": "function"
    },
    {
      "inputs": [
        {
          "internalType": "address",
          "name": "newOwner",
          "type": "address"
        }
      ],
      "name": "transferOwnership",
      "outputs": [],
      "stateMutability": "nonpayable",
      "type": "function"
    },
    {
      "inputs": [
        {
          "internalType": "bytes4",
          "name": "_interfaceID",
          "type": "bytes4"
        }
      ],
      "name": "supportsInterface",
      "outputs": [
        {
          "internalType": "bool",
          "name": "",
          "type": "bool"
        }
      ],
      "stateMutability": "view",
      "type": "function",
      "constant": true
    },
    {
      "inputs": [
        {
          "internalType": "address",
          "name": "owner",
          "type": "address"
        }
      ],
      "name": "balanceOf",
      "outputs": [
        {
          "internalType": "uint256",
          "name": "balance",
          "type": "uint256"
        }
      ],
      "stateMutability": "view",
      "type": "function",
      "constant": true
    },
    {
      "inputs": [],
      "name": "totalSupply",
      "outputs": [
        {
          "internalType": "uint256",
          "name": "total",
          "type": "uint256"
        }
      ],
      "stateMutability": "view",
      "type": "function",
      "constant": true
    },
    {
      "inputs": [],
      "name": "name",
      "outputs": [
        {
          "internalType": "string",
          "name": "tokenName",
          "type": "string"
        }
      ],
      "stateMutability": "pure",
      "type": "function",
      "constant": true
    },
    {
      "inputs": [],
      "name": "symbol",
      "outputs": [
        {
          "internalType": "string",
          "name": "tokenSymbol",
          "type": "string"
        }
      ],
      "stateMutability": "pure",
      "type": "function",
      "constant": true
    },
    {
      "inputs": [
        {
          "internalType": "uint256",
          "name": "tokenId",
          "type": "uint256"
        }
      ],
      "name": "ownerOf",
      "outputs": [
        {
          "internalType": "address",
          "name": "owner",
          "type": "address"
        }
      ],
      "stateMutability": "view",
      "type": "function",
      "constant": true
    },
    {
      "inputs": [
        {
          "internalType": "address",
          "name": "_to",
          "type": "address"
        },
        {
          "internalType": "uint256",
          "name": "_tokenID",
          "type": "uint256"
        }
      ],
      "name": "transfer",
      "outputs": [],
      "stateMutability": "nonpayable",
      "type": "function"
    },
    {
      "inputs": [
        {
          "internalType": "uint256",
          "name": "_genes",
          "type": "uint256"
        }
      ],
      "name": "createKittyGen0",
      "outputs": [
        {
          "internalType": "uint256",
          "name": "",
          "type": "uint256"
        }
      ],
      "stateMutability": "nonpayable",
      "type": "function"
    },
    {
      "inputs": [
        {
          "internalType": "uint256",
          "name": "tokenID",
          "type": "uint256"
        }
      ],
      "name": "getKitty",
      "outputs": [
        {
          "internalType": "uint256",
          "name": "",
          "type": "uint256"
        },
        {
          "internalType": "uint256",
          "name": "",
          "type": "uint256"
        },
        {
          "internalType": "uint256",
          "name": "",
          "type": "uint256"
        },
        {
          "internalType": "address",
          "name": "",
          "type": "address"
        },
        {
          "internalType": "uint256",
          "name": "",
          "type": "uint256"
        }
      ],
      "stateMutability": "view",
      "type": "function",
      "constant": true
    },
    {
      "inputs": [
        {
          "internalType": "address",
          "name": "_approved",
          "type": "address"
        },
        {
          "internalType": "uint256",
          "name": "_tokenId",
          "type": "uint256"
        }
      ],
      "name": "approve",
      "outputs": [],
      "stateMutability": "nonpayable",
      "type": "function"
    },
    {
      "inputs": [
        {
          "internalType": "address",
          "name": "_operator",
          "type": "address"
        },
        {
          "internalType": "bool",
          "name": "_approved",
          "type": "bool"
        }
      ],
      "name": "setApprovalForAll",
      "outputs": [],
      "stateMutability": "nonpayable",
      "type": "function"
    },
    {
      "inputs": [
        {
          "internalType": "address",
          "name": "_owner",
          "type": "address"
        },
        {
          "internalType": "address",
          "name": "_operator",
          "type": "address"
        }
      ],
      "name": "isApprovedForAll",
      "outputs": [
        {
          "internalType": "bool",
          "name": "",
          "type": "bool"
        }
      ],
      "stateMutability": "view",
      "type": "function",
      "constant": true
    },
    {
      "inputs": [
        {
          "internalType": "uint256",
          "name": "_tokenId",
          "type": "uint256"
        }
      ],
      "name": "getApproved",
      "outputs": [
        {
          "internalType": "address",
          "name": "",
          "type": "address"
        }
      ],
      "stateMutability": "view",
      "type": "function",
      "constant": true
    },
    {
      "inputs": [
        {
          "internalType": "address",
          "name": "_from",
          "type": "address"
        },
        {
          "internalType": "address",
          "name": "_to",
          "type": "address"
        },
        {
          "internalType": "uint256",
          "name": "_tokenId",
          "type": "uint256"
        }
      ],
      "name": "transferFrom",
      "outputs": [],
      "stateMutability": "nonpayable",
      "type": "function"
    },
    {
      "inputs": [
        {
          "internalType": "address",
          "name": "_from",
          "type": "address"
        },
        {
          "internalType": "address",
          "name": "_to",
          "type": "address"
        },
        {
          "internalType": "uint256",
          "name": "_tokenId",
          "type": "uint256"
        }
      ],
      "name": "safeTransferFrom",
      "outputs": [],
      "stateMutability": "nonpayable",
      "type": "function"
    },
    {
      "inputs": [
        {
          "internalType": "address",
          "name": "_from",
          "type": "address"
        },
        {
          "internalType": "address",
          "name": "_to",
          "type": "address"
        },
        {
          "internalType": "uint256",
          "name": "_tokenId",
          "type": "uint256"
        },
        {
          "internalType": "bytes",
          "name": "data",
          "type": "bytes"
        }
      ],
      "name": "safeTransferFrom",
      "outputs": [],
      "stateMutability": "nonpayable",
      "type": "function"
    }
  ],
  "bytecode": "0x608060405234801561001057600080fd5b5060006100216100c460201b60201c565b9050806000806101000a81548173ffffffffffffffffffffffffffffffffffffffff021916908373ffffffffffffffffffffffffffffffffffffffff1602179055508073ffffffffffffffffffffffffffffffffffffffff16600073ffffffffffffffffffffffffffffffffffffffff167f8be0079c531659141344cd1fd0a4f28419497f9722a3daafe3b4186f6b6457e060405160405180910390a3506100cc565b600033905090565b61267d806100db6000396000f3fe608060405234801561001057600080fd5b506004361061018e5760003560e01c80638da5cb5b116100de578063d5a776ca11610097578063e98b7f4d11610071578063e98b7f4d14610485578063ecf35cca146104b9578063ef5e94aa146104d7578063f2fde38b146104f55761018e565b8063d5a776ca14610407578063e515a4d114610437578063e985e9c5146104555761018e565b80638da5cb5b1461035957806395d89b41146103775780639f0c812514610395578063a22cb465146103b3578063a9059cbb146103cf578063b88d4fde146103eb5761018e565b806332c2d7631161014b5780636352211e116101255780636352211e146102bf57806370a08231146102ef578063715018a61461031f5780638369a08b146103295761018e565b806332c2d7631461026757806342842e0e1461028557806347d287e5146102a15761018e565b806301ffc9a71461019357806306fdde03146101c3578063081812fc146101e1578063095ea7b31461021157806318160ddd1461022d57806323b872dd1461024b575b600080fd5b6101ad60048036038101906101a89190611d57565b610511565b6040516101ba91906121cf565b60405180910390f35b6101cb6105c2565b6040516101d891906121ea565b60405180910390f35b6101fb60048036038101906101f69190611da9565b6105ff565b6040516102089190612115565b60405180910390f35b61022b60048036038101906102269190611d1b565b6106c0565b005b6102356107ac565b60405161024291906122ec565b60405180910390f35b61026560048036038101906102609190611c15565b6107b9565b005b61026f6109ff565b60405161027c91906122ec565b60405180910390f35b61029f600480360381019061029a9190611c15565b610a05565b005b6102a9610a25565b6040516102b691906122ec565b60405180910390f35b6102d960048036038101906102d49190611da9565b610a2a565b6040516102e69190612115565b60405180910390f35b61030960048036038101906103049190611bb0565b610a67565b60405161031691906122ec565b60405180910390f35b610327610ab0565b005b610343600480360381019061033e9190611da9565b610bea565b6040516103509190612115565b60405180910390f35b610361610c1d565b60405161036e9190612115565b60405180910390f35b61037f610c46565b60405161038c91906121ea565b60405180910390f35b61039d610c83565b6040516103aa91906121ea565b60405180910390f35b6103cd60048036038101906103c89190611cdf565b610cbc565b005b6103e960048036038101906103e49190611d1b565b610e28565b005b61040560048036038101906104009190611c64565b610f29565b005b610421600480360381019061041c9190611da9565b611171565b60405161042e91906122ec565b60405180910390f35b61043f6111b1565b60405161044c91906122ec565b60405180910390f35b61046f600480360381019061046a9190611bd9565b6111b6565b60405161047c91906121cf565b60405180910390f35b61049f600480360381019061049a9190611da9565b611262565b6040516104b0959493929190612307565b60405180910390f35b6104c1611349565b6040516104ce91906121ea565b60405180910390f35b6104df611382565b6040516104ec91906122ec565b60405180910390f35b61050f600480360381019061050a9190611bb0565b611388565b005b60006380ac58cd60e01b7bffffffffffffffffffffffffffffffffffffffffffffffffffffffff1916827bffffffffffffffffffffffffffffffffffffffffffffffffffffffff191614806105aa57506301ffc9a760e01b7bffffffffffffffffffffffffffffffffffffffffffffffffffffffff1916827bffffffffffffffffffffffffffffffffffffffffffffffffffffffff1916145b156105b857600190506105bd565b600090505b919050565b60606040518060400160405280601081526020017f576174657273746f6e654b697474797300000000000000000000000000000000815250905090565b60006007805490508210156106ba57600073ffffffffffffffffffffffffffffffffffffffff166003600084815260200190815260200160002060009054906101000a900473ffffffffffffffffffffffffffffffffffffffff1673ffffffffffffffffffffffffffffffffffffffff16141561067f57600090506106bb565b6003600083815260200190815260200160002060009054906101000a900473ffffffffffffffffffffffffffffffffffffffff1690506106bb565b5b919050565b600073ffffffffffffffffffffffffffffffffffffffff168273ffffffffffffffffffffffffffffffffffffffff161415610730576040517f08c379a00000000000000000000000000000000000000000000000000000000081526004016107279061228c565b60405180910390fd5b61073a3382611531565b61074357600080fd5b61074d828261159d565b808273ffffffffffffffffffffffffffffffffffffffff163373ffffffffffffffffffffffffffffffffffffffff167f8c5be1e5ebec7d5bd14f71427d1e84f3dd0314c0f7b2291e5b200ac8c7c3b92560405160405180910390a45050565b6000600780549050905090565b6107c33382611531565b8061085b575060011515600460008573ffffffffffffffffffffffffffffffffffffffff1673ffffffffffffffffffffffffffffffffffffffff16815260200190815260200160002060003373ffffffffffffffffffffffffffffffffffffffff1673ffffffffffffffffffffffffffffffffffffffff16815260200190815260200160002060009054906101000a900460ff161515145b806108c457503373ffffffffffffffffffffffffffffffffffffffff166003600083815260200190815260200160002060009054906101000a900473ffffffffffffffffffffffffffffffffffffffff1673ffffffffffffffffffffffffffffffffffffffff16145b610903576040517f08c379a00000000000000000000000000000000000000000000000000000000081526004016108fa9061224c565b60405180910390fd5b8273ffffffffffffffffffffffffffffffffffffffff166002600083815260200190815260200160002060009054906101000a900473ffffffffffffffffffffffffffffffffffffffff1673ffffffffffffffffffffffffffffffffffffffff161461096e57600080fd5b600073ffffffffffffffffffffffffffffffffffffffff168273ffffffffffffffffffffffffffffffffffffffff1614156109de576040517f08c379a00000000000000000000000000000000000000000000000000000000081526004016109d5906122cc565b60405180910390fd5b60078054905081106109ef57600080fd5b6109fa8383836115f3565b505050565b60065481565b610a2083838360405180602001604052806000815250610f29565b505050565b600a81565b60006002600083815260200190815260200160002060009054906101000a900473ffffffffffffffffffffffffffffffffffffffff169050919050565b6000600160008373ffffffffffffffffffffffffffffffffffffffff1673ffffffffffffffffffffffffffffffffffffffff168152602001908152602001600020549050919050565b610ab86117bc565b73ffffffffffffffffffffffffffffffffffffffff16610ad6610c1d565b73ffffffffffffffffffffffffffffffffffffffff1614610b2c576040517f08c379a0000000000000000000000000000000000000000000000000000000008152600401610b239061226c565b60405180910390fd5b600073ffffffffffffffffffffffffffffffffffffffff1660008054906101000a900473ffffffffffffffffffffffffffffffffffffffff1673ffffffffffffffffffffffffffffffffffffffff167f8be0079c531659141344cd1fd0a4f28419497f9722a3daafe3b4186f6b6457e060405160405180910390a360008060006101000a81548173ffffffffffffffffffffffffffffffffffffffff021916908373ffffffffffffffffffffffffffffffffffffffff160217905550565b60036020528060005260406000206000915054906101000a900473ffffffffffffffffffffffffffffffffffffffff1681565b60008060009054906101000a900473ffffffffffffffffffffffffffffffffffffffff16905090565b60606040518060400160405280600381526020017f57534b0000000000000000000000000000000000000000000000000000000000815250905090565b6040518060400160405280601081526020017f576174657273746f6e654b69747479730000000000000000000000000000000081525081565b3373ffffffffffffffffffffffffffffffffffffffff168273ffffffffffffffffffffffffffffffffffffffff161415610d2b576040517f08c379a0000000000000000000000000000000000000000000000000000000008152600401610d22906122ac565b60405180910390fd5b80600460003373ffffffffffffffffffffffffffffffffffffffff1673ffffffffffffffffffffffffffffffffffffffff16815260200190815260200160002060008473ffffffffffffffffffffffffffffffffffffffff1673ffffffffffffffffffffffffffffffffffffffff16815260200190815260200160002060006101000a81548160ff0219169083151502179055508173ffffffffffffffffffffffffffffffffffffffff163373ffffffffffffffffffffffffffffffffffffffff167f17307eab39ab6107e8899845ad3d59bd9653f200f220920489ca2b5937696c3183604051610e1c91906121cf565b60405180910390a35050565b600073ffffffffffffffffffffffffffffffffffffffff168273ffffffffffffffffffffffffffffffffffffffff161415610e98576040517f08c379a0000000000000000000000000000000000000000000000000000000008152600401610e8f9061228c565b60405180910390fd5b3073ffffffffffffffffffffffffffffffffffffffff168273ffffffffffffffffffffffffffffffffffffffff161415610f07576040517f08c379a0000000000000000000000000000000000000000000000000000000008152600401610efe9061220c565b60405180910390fd5b610f113382611531565b610f1a57600080fd5b610f253383836115f3565b5050565b610f333383611531565b80610fcb575060011515600460008673ffffffffffffffffffffffffffffffffffffffff1673ffffffffffffffffffffffffffffffffffffffff16815260200190815260200160002060003373ffffffffffffffffffffffffffffffffffffffff1673ffffffffffffffffffffffffffffffffffffffff16815260200190815260200160002060009054906101000a900460ff161515145b8061103457503373ffffffffffffffffffffffffffffffffffffffff166003600084815260200190815260200160002060009054906101000a900473ffffffffffffffffffffffffffffffffffffffff1673ffffffffffffffffffffffffffffffffffffffff16145b611073576040517f08c379a000000000000000000000000000000000000000000000000000000000815260040161106a9061224c565b60405180910390fd5b8373ffffffffffffffffffffffffffffffffffffffff166002600084815260200190815260200160002060009054906101000a900473ffffffffffffffffffffffffffffffffffffffff1673ffffffffffffffffffffffffffffffffffffffff16146110de57600080fd5b600073ffffffffffffffffffffffffffffffffffffffff168373ffffffffffffffffffffffffffffffffffffffff16141561114e576040517f08c379a0000000000000000000000000000000000000000000000000000000008152600401611145906122cc565b60405180910390fd5b600780549050821061115f57600080fd5b61116b848484846117c4565b50505050565b6000600a600554111561118357600080fd5b6005600081548092919061119690612533565b91905055506111aa600080600085336117ea565b9050919050565b600a81565b600060011515600460008573ffffffffffffffffffffffffffffffffffffffff1673ffffffffffffffffffffffffffffffffffffffff16815260200190815260200160002060008473ffffffffffffffffffffffffffffffffffffffff1673ffffffffffffffffffffffffffffffffffffffff16815260200190815260200160002060009054906101000a900460ff1615151415611257576001905061125c565b600090505b92915050565b600080600080600080600787815481106112a5577f4e487b7100000000000000000000000000000000000000000000000000000000600052603260045260246000fd5b9060005260206000209060030201905080600101548160020160009054906101000a900463ffffffff168260020160049054906101000a900463ffffffff168360000160009054906101000a900473ffffffffffffffffffffffffffffffffffffffff168460020160089054906101000a900461ffff168363ffffffff1693508263ffffffff1692508061ffff169050955095509550955095505091939590929450565b6040518060400160405280600381526020017f57534b000000000000000000000000000000000000000000000000000000000081525081565b60055481565b6113906117bc565b73ffffffffffffffffffffffffffffffffffffffff166113ae610c1d565b73ffffffffffffffffffffffffffffffffffffffff1614611404576040517f08c379a00000000000000000000000000000000000000000000000000000000081526004016113fb9061226c565b60405180910390fd5b600073ffffffffffffffffffffffffffffffffffffffff168173ffffffffffffffffffffffffffffffffffffffff161415611474576040517f08c379a000000000000000000000000000000000000000000000000000000000815260040161146b9061222c565b60405180910390fd5b8073ffffffffffffffffffffffffffffffffffffffff1660008054906101000a900473ffffffffffffffffffffffffffffffffffffffff1673ffffffffffffffffffffffffffffffffffffffff167f8be0079c531659141344cd1fd0a4f28419497f9722a3daafe3b4186f6b6457e060405160405180910390a3806000806101000a81548173ffffffffffffffffffffffffffffffffffffffff021916908373ffffffffffffffffffffffffffffffffffffffff16021790555050565b60008273ffffffffffffffffffffffffffffffffffffffff166002600084815260200190815260200160002060009054906101000a900473ffffffffffffffffffffffffffffffffffffffff1673ffffffffffffffffffffffffffffffffffffffff1614905092915050565b816003600083815260200190815260200160002060006101000a81548173ffffffffffffffffffffffffffffffffffffffff021916908373ffffffffffffffffffffffffffffffffffffffff1602179055505050565b60018060008473ffffffffffffffffffffffffffffffffffffffff1673ffffffffffffffffffffffffffffffffffffffff168152602001908152602001600020600082825461164291906123f3565b92505081905550816002600083815260200190815260200160002060006101000a81548173ffffffffffffffffffffffffffffffffffffffff021916908373ffffffffffffffffffffffffffffffffffffffff160217905550600073ffffffffffffffffffffffffffffffffffffffff168373ffffffffffffffffffffffffffffffffffffffff161461175c5760018060008573ffffffffffffffffffffffffffffffffffffffff1673ffffffffffffffffffffffffffffffffffffffff168152602001908152602001600020600082825461171e9190612449565b925050819055506003600082815260200190815260200160002060006101000a81549073ffffffffffffffffffffffffffffffffffffffff02191690555b808273ffffffffffffffffffffffffffffffffffffffff168473ffffffffffffffffffffffffffffffffffffffff167fddf252ad1be2c89b69c2b068fc378daa952ba7f163c4a11628f55a4df523b3ef60405160405180910390a4505050565b600033905090565b6117d08484848461199b565b6117d957600080fd5b6117e48484846115f3565b50505050565b6000806040518060a001604052808473ffffffffffffffffffffffffffffffffffffffff1681526020018581526020018863ffffffff1681526020018763ffffffff1681526020018661ffff168152509050600781908060018154018082558091505060019003906000526020600020906003020160009091909190915060008201518160000160006101000a81548173ffffffffffffffffffffffffffffffffffffffff021916908373ffffffffffffffffffffffffffffffffffffffff1602179055506020820151816001015560408201518160020160006101000a81548163ffffffff021916908363ffffffff16021790555060608201518160020160046101000a81548163ffffffff021916908363ffffffff16021790555060808201518160020160086101000a81548161ffff021916908361ffff1602179055505050600060016007805490506119409190612449565b905061194e600085836115f3565b7f0a5311bd2a6608f08a180df2ee7c5946819a649b204b554bb8e39825b2c50ad584828a8a8960405161198595949392919061217c565b60405180910390a1809250505095945050505050565b60006119a684611ac6565b6119b35760019050611abe565b60008473ffffffffffffffffffffffffffffffffffffffff1663150b7a02338887876040518563ffffffff1660e01b81526004016119f49493929190612130565b602060405180830381600087803b158015611a0e57600080fd5b505af1158015611a22573d6000803e3d6000fd5b505050506040513d601f19601f82011682018060405250810190611a469190611d80565b90507f150b7a023d4804d13e8c85fb27262cb750cf6ba9f9dd3bb30d90f482ceeb4b1f7bffffffffffffffffffffffffffffffffffffffffffffffffffffffff1916817bffffffffffffffffffffffffffffffffffffffffffffffffffffffff19161415611ab8576001915050611abe565b60009150505b949350505050565b600080823b905060008163ffffffff1611915050919050565b6000611af2611aed8461238b565b61235a565b905082815260208101848484011115611b0a57600080fd5b611b158482856124f1565b509392505050565b600081359050611b2c816125eb565b92915050565b600081359050611b4181612602565b92915050565b600081359050611b5681612619565b92915050565b600081519050611b6b81612619565b92915050565b600082601f830112611b8257600080fd5b8135611b92848260208601611adf565b91505092915050565b600081359050611baa81612630565b92915050565b600060208284031215611bc257600080fd5b6000611bd084828501611b1d565b91505092915050565b60008060408385031215611bec57600080fd5b6000611bfa85828601611b1d565b9250506020611c0b85828601611b1d565b9150509250929050565b600080600060608486031215611c2a57600080fd5b6000611c3886828701611b1d565b9350506020611c4986828701611b1d565b9250506040611c5a86828701611b9b565b9150509250925092565b60008060008060808587031215611c7a57600080fd5b6000611c8887828801611b1d565b9450506020611c9987828801611b1d565b9350506040611caa87828801611b9b565b925050606085013567ffffffffffffffff811115611cc757600080fd5b611cd387828801611b71565b91505092959194509250565b60008060408385031215611cf257600080fd5b6000611d0085828601611b1d565b9250506020611d1185828601611b32565b9150509250929050565b60008060408385031215611d2e57600080fd5b6000611d3c85828601611b1d565b9250506020611d4d85828601611b9b565b9150509250929050565b600060208284031215611d6957600080fd5b6000611d7784828501611b47565b91505092915050565b600060208284031215611d9257600080fd5b6000611da084828501611b5c565b91505092915050565b600060208284031215611dbb57600080fd5b6000611dc984828501611b9b565b91505092915050565b611ddb8161247d565b82525050565b611dea8161248f565b82525050565b6000611dfb826123bb565b611e0581856123d1565b9350611e15818560208601612500565b611e1e816125da565b840191505092915050565b6000611e34826123c6565b611e3e81856123e2565b9350611e4e818560208601612500565b611e57816125da565b840191505092915050565b6000611e6f6032836123e2565b91507f4552433732313a205472616e73666572206973206e6f7420737570706f72746560008301527f6420746f207468697320636f6e747261637400000000000000000000000000006020830152604082019050919050565b6000611ed56026836123e2565b91507f4f776e61626c653a206e6577206f776e657220697320746865207a65726f206160008301527f64647265737300000000000000000000000000000000000000000000000000006020830152604082019050919050565b6000611f3b603c836123e2565b91507f4552433732313a205065726d697373696f6e20746f207472616e73666572206e60008301527f6f74206772616e7465642066726f6d20796f75722061646472657373000000006020830152604082019050919050565b6000611fa16020836123e2565b91507f4f776e61626c653a2063616c6c6572206973206e6f7420746865206f776e65726000830152602082019050919050565b6000611fe16025836123e2565b91507f4552433732313a205472616e7366657220697320746f2074686520302061646460008301527f72657373210000000000000000000000000000000000000000000000000000006020830152604082019050919050565b6000612047602a836123e2565b91507f4552433732313a2043616e6e6f74202a617070726f76652a20796f7572206f7760008301527f6e206164647265737321000000000000000000000000000000000000000000006020830152604082019050919050565b60006120ad602c836123e2565b91507f4552433732313a205472616e736665722063616e6e6f7420676f20746f20746860008301527f65203020616464726573732100000000000000000000000000000000000000006020830152604082019050919050565b61210f816124e7565b82525050565b600060208201905061212a6000830184611dd2565b92915050565b60006080820190506121456000830187611dd2565b6121526020830186611dd2565b61215f6040830185612106565b81810360608301526121718184611df0565b905095945050505050565b600060a0820190506121916000830188611dd2565b61219e6020830187612106565b6121ab6040830186612106565b6121b86060830185612106565b6121c56080830184612106565b9695505050505050565b60006020820190506121e46000830184611de1565b92915050565b600060208201905081810360008301526122048184611e29565b905092915050565b6000602082019050818103600083015261222581611e62565b9050919050565b6000602082019050818103600083015261224581611ec8565b9050919050565b6000602082019050818103600083015261226581611f2e565b9050919050565b6000602082019050818103600083015261228581611f94565b9050919050565b600060208201905081810360008301526122a581611fd4565b9050919050565b600060208201905081810360008301526122c58161203a565b9050919050565b600060208201905081810360008301526122e5816120a0565b9050919050565b60006020820190506123016000830184612106565b92915050565b600060a08201905061231c6000830188612106565b6123296020830187612106565b6123366040830186612106565b6123436060830185611dd2565b6123506080830184612106565b9695505050505050565b6000604051905081810181811067ffffffffffffffff82111715612381576123806125ab565b5b8060405250919050565b600067ffffffffffffffff8211156123a6576123a56125ab565b5b601f19601f8301169050602081019050919050565b600081519050919050565b600081519050919050565b600082825260208201905092915050565b600082825260208201905092915050565b60006123fe826124e7565b9150612409836124e7565b9250827fffffffffffffffffffffffffffffffffffffffffffffffffffffffffffffffff0382111561243e5761243d61257c565b5b828201905092915050565b6000612454826124e7565b915061245f836124e7565b9250828210156124725761247161257c565b5b828203905092915050565b6000612488826124c7565b9050919050565b60008115159050919050565b60007fffffffff0000000000000000000000000000000000000000000000000000000082169050919050565b600073ffffffffffffffffffffffffffffffffffffffff82169050919050565b6000819050919050565b82818337600083830152505050565b60005b8381101561251e578082015181840152602081019050612503565b8381111561252d576000848401525b50505050565b600061253e826124e7565b91507fffffffffffffffffffffffffffffffffffffffffffffffffffffffffffffffff8214156125715761257061257c565b5b600182019050919050565b7f4e487b7100000000000000000000000000000000000000000000000000000000600052601160045260246000fd5b7f4e487b7100000000000000000000000000000000000000000000000000000000600052604160045260246000fd5b6000601f19601f8301169050919050565b6125f48161247d565b81146125ff57600080fd5b50565b61260b8161248f565b811461261657600080fd5b50565b6126228161249b565b811461262d57600080fd5b50565b612639816124e7565b811461264457600080fd5b5056fea2646970667358221220f4286b014775ca54905d62aa9969a2fa400e66c457c834b941cceade0ab0311364736f6c63430008000033",
  "immutableReferences": {},
  "source": "pragma solidity ^0.8.0;\npragma experimental ABIEncoderV2;\n\nimport \"./IERC721.sol\";\nimport \"./Ownable.sol\";\nimport \"./IERC721Receiver.sol\";\n\ncontract KittycontractNFT is IERC721, Ownable {\n\n  event Birth(address _owner, uint256 _tokenID, uint256 momID, uint256 dadID, uint256 _genes);\n\n  string public constant _tokenName = \"WaterstoneKittys\";\n  string public constant _tokenSymbol = \"WSK\";\n\n  //used in external func supportsInterface() for contract interoperability\n  bytes4 private constant _INTERFACE_ID_ERC721 = 0x80ac58cd;\n  bytes4 private constant _INTERFACE_ID_ERC165 = 0x01ffc9a7;\n\n  //mapping of NFT balance for address\n  mapping(address => uint256) balances;\n  //mapping of specific NFT owned by address\n  mapping(uint256 => address) ownerOfNFT;\n  //mapping of NFT that gives approval access to another address\n  mapping(uint256 => address) public nftApprovals;\n  //owner address that grants full approval of assets to another addresses\n  mapping(address => mapping(address => bool)) private operatorApproval;\n  //approvalforAll[msg.sender][msg.receiver] = true;\n\n  //NFT creation limit\n  uint256 public constant gen0Limit = 10;\n  uint256 public constant gen1Limit = 10;\n\n  //NFT Gen0 limit\n  uint256 public gen0Counter;\n  uint256 public gen1Counter;\n\n  struct Kittys {\n    address owner;\n    uint256 genes;\n    uint32 momID;\n    uint32 dadID;\n    uint16 generation;\n  }\n\n  Kittys[] kittys;\n\n  //ERC721 standard func that allows other contracts to check to see if OUR contract supports specific ERC standards\n  //INPUT a unique bytes4 hash (Ethereum sets these) to see if my contract returns true (supports) or false (does not support)\n  function supportsInterface(bytes4 _interfaceID) external view returns(bool){\n    if(_interfaceID == _INTERFACE_ID_ERC721 || _interfaceID == _INTERFACE_ID_ERC165){\n      return true;\n    }\n    else{\n      return false;\n    }\n  }\n\n  /**\n   * @dev Returns the number of tokens in ``owner``'s account.\n   */\n  function balanceOf(address owner) external view override returns (uint256 balance){\n    //we need it to return a balance of an owner --> mapping\n    return balances[owner]; //need to create a 'balances' mapping\n  }\n\n  /*\n   * @dev Returns the total number of tokens in circulation.\n   */\n  function totalSupply() public view override returns (uint256 total){\n    return kittys.length;\n  }\n\n  /*\n   * @dev Returns the name of the token.\n   */\n  function name() external pure override returns (string memory tokenName){\n    return _tokenName;\n  }\n\n  /*\n   * @dev Returns the symbol of the token.\n   */\n  function symbol() external pure override returns (string memory tokenSymbol){\n    return _tokenSymbol;\n  }\n\n  /**\n   * @dev Returns the owner of the `tokenId` token.\n   *\n   * Requirements:\n   *\n   * - `tokenId` must exist.\n   */\n  function ownerOf(uint256 tokenId) external view override returns (address owner){\n    return ownerOfNFT[tokenId];\n  }\n\n  //breed momNFT & dadNFT together --> first 8 integers come from dad, last 8 integers come from mom\n  //function breedKittys(uint256 _mom, uint256 _dad) public returns(uint256){\n    //check that msg.sender has ownership of _mom & _dad\n  //  require(owns(msg.sender, _mom));\n  //  require(owns(msg.sender, _dad));\n    //mix DNA\n  //  uint256 kittenDNA = _mixDNA(_mom, _dad);\n    //figure out the generation (ie dad is Gen0, mom is Gen5)\n  //  uint256 newGen = _findGen(_mom, _dad);\n    //create new cat with new properties, give it to msg.sender\n\n  //}\n\n  //function _findGen(uint256 _mom, uint256 _dad) internal returns(uint256){\n  //  uint245 mumID;\n  //  uint256 fatherID;\n  //  _mom = Kittys[] memory momkittysID;\n  //  mumID = _mom.generation;\n  //  _dad = Kittys[] memory dadkittysID;\n  //  fatherID = _dad.generation;\n\n  //  return ((mumID + fatherID) / 1.5);\n  //}\n\n  /* @dev Transfers `tokenId` token from `msg.sender` to `to`.\n  *\n  * Requirements:\n  *\n  * - `to` cannot be the zero address.\n  * - `to` can not be the contract address.\n  * - `tokenId` token must be owned by `msg.sender`.\n  *\n  * Emits a {Transfer} event.\n  */\n  function transfer(address _to, uint256 _tokenID) external override {\n    require(_to != address(0), \"ERC721: Transfer is to the 0 address!\");\n    require(_to != address(this), \"ERC721: Transfer is not supported to this contract\");\n    require(owns(msg.sender, _tokenID));\n\n    _transfer(msg.sender, _to, _tokenID);\n\n  }\n\n  function _transfer(address _from, address _to, uint256 _tokenID) internal {\n    //increment balance of 'to' address + 1\n    balances[_to] += 1;\n\n    //Assign the NFT to the '_to' address\n    ownerOfNFT[_tokenID] = _to;\n\n    //if '_from' address is not the 0 address (aka not a newly minted coin being transferred)...\n    //decrement the balance of the '_from' address by - 1\n    if(_from != address(0)){\n      balances[_from] -= 1;\n      delete nftApprovals[_tokenID];\n    }\n\n    emit Transfer(_from, _to, _tokenID);\n  }\n\n  function owns(address _from, uint256 tokenID) internal view returns(bool){\n    return ownerOfNFT[tokenID] == _from;\n  }\n\n  function createKittyGen0(uint256 _genes) public returns(uint256){\n    //takes the genes that you send in from front send\n    //creates a new kitty for us with those specific genes\n    require(gen0Counter <= gen0Limit);\n\n    gen0Counter++;\n    //use _createKitty()\n    return _createKitty(0, 0, 0, _genes, msg.sender);\n  }\n\n  function _mixDNA(uint256 _momDNA, uint256 _dadDNA) internal returns(uint256){\n    //extract dad with 11 0's --> dadID / 100,000,000,000\n    //extract momID with momID % 10,000,000,000\n    uint256 dadiDSet = (_dadDNA / 100000000000);\n    uint256 momiDSet = (_momDNA % 100000000000);\n\n\n    uint256 newKittenDNA = dadiDSet * 100000000000;\n    newKittenDNA = newKittenDNA + momiDSet;\n    return newKittenDNA;\n\n    //_createKittyGen1(newKittenDNA, _momDNA, _dadDNA);\n  }\n\n  function _createKittyGen1(uint256 _genes, uint256 _mom, uint256 _dad) internal returns(uint256) {\n    //takes the genes that you send in from front send\n    //creates a new kitty for us with those specific genes\n    require(gen1Counter <= gen1Limit);\n\n    gen1Counter++;\n\n    //use _createKitty()\n    return _createKitty(_mom, _dad, 1, _genes, msg.sender);\n  }\n\n  function _createKitty(uint256 _momID, uint256 _dadID, uint256 _generation, uint256 _genes, address _owner) internal returns(uint256){\n\n      Kittys memory _kitty = Kittys({\n\n        momID: uint32(_momID),\n        dadID: uint32(_dadID),\n        generation: uint16(_generation),\n        genes: uint256(_genes),\n        owner: _owner\n        });\n\n      kittys.push(_kitty);\n\n      uint256 newKittenID = kittys.length - 1;\n\n      _transfer(address(0), _owner, newKittenID);\n\n      emit Birth(_owner, newKittenID, _momID, _dadID, _genes);\n\n      return newKittenID;\n\n  }\n\n  function getKitty(uint256 tokenID) external view returns(uint, uint, uint, address, uint){\n\n    //Kittys[] storage _kittys = kittys[tokenID];\n\n      //genes = _kittys.genes;\n      //momID = _kittys.momID;\n      //dadID = _kittys.dadID;\n      //birthTime = _kittys.birthTime;\n      //generation = _kittys.generation;\n\n      Kittys storage kitties = kittys[tokenID];\n\n      return(\n        kitties.genes,\n        kitties.momID,\n        kitties.dadID,\n        kitties.owner,\n        kitties.generation\n        );\n  }\n\n    /// @notice Change or reaffirm the approved address for an NFT\n    /// @dev The zero address indicates there is no approved address.\n    /// Throws unless `msg.sender` is the current NFT owner, or an authorized\n    /// operator of the current owner.\n    /// @param _approved The new approved NFT controller\n    /// @param _tokenId The NFT to approve\n  function approve(address _approved, uint256 _tokenId) external override {\n    //takes a single NFT and gives approval to another address to move\n    require(_approved != address(0), \"ERC721: Transfer is to the 0 address!\");\n    require(owns(msg.sender, _tokenId));\n\n    _approve(_approved, _tokenId);\n\n    emit Approval(msg.sender, _approved, _tokenId);\n  }\n\n  function _approve(address _approved, uint256 _tokenId) internal {\n\n    nftApprovals[_tokenId] = _approved;\n\n  }\n\n  /// @notice Enable or disable approval for a third party (\"operator\") to manage\n  ///  all of `msg.sender`'s assets\n  /// @dev Emits the ApprovalForAll event. The contract MUST allow\n  ///  multiple operators per owner.\n  /// @param _operator Address to add to the set of authorized operators\n  /// @param _approved True if the operator is approved, false to revoke approval\n  function setApprovalForAll(address _operator, bool _approved) external override {\n\n    require(_operator != msg.sender, \"ERC721: Cannot *approve* your own address!\");\n\n    operatorApproval[msg.sender][_operator] = _approved;\n\n    emit ApprovalForAll(msg.sender, _operator, _approved);\n  }\n\n  /// @notice Query if an address is an authorized operator for another address\n  /// @param _owner The address that owns the NFTs\n  /// @param _operator The address that acts on behalf of the owner\n  /// @return True if `_operator` is an approved operator for `_owner`, false otherwise\n  function isApprovedForAll(address _owner, address _operator) external override view returns (bool){\n\n    if(operatorApproval[_owner][_operator] == true){\n      return true;\n    }\n    else {\n      return false;\n    }\n  }\n\n  /// @notice Get the approved address for a single NFT\n  /// @dev Throws if `_tokenId` is not a valid NFT.\n  /// @param _tokenId The NFT to find the approved address for\n  /// @return The approved address for this NFT, or the zero address if there is none\n  function getApproved(uint256 _tokenId) external override view returns (address){\n\n    if(_tokenId < kittys.length){\n        if(nftApprovals[_tokenId] == address(0)) {\n          return address(0);\n        }\n      else{\n        return nftApprovals[_tokenId];\n      }\n    }\n  }\n\n  /// @notice Transfer ownership of an NFT -- THE CALLER IS RESPONSIBLE\n  ///  TO CONFIRM THAT `_to` IS CAPABLE OF RECEIVING NFTS OR ELSE\n  ///  THEY MAY BE PERMANENTLY LOST\n  /// @dev Throws unless `msg.sender` is the current owner, an authorized\n  ///  operator, or the approved address for this NFT. Throws if `_from` is\n  ///  not the current owner. Throws if `_to` is the zero address. Throws if\n  ///  `_tokenId` is not a valid NFT.\n  /// @param _from The current owner of the NFT\n  /// @param _to The new owner\n  /// @param _tokenId The NFT to transfer\n  function transferFrom(address _from, address _to, uint256 _tokenId) external override {\n    require( owns(msg.sender, _tokenId) ||\n    operatorApproval[_from][msg.sender] == true ||\n    nftApprovals[_tokenId] == msg.sender, \"ERC721: Permission to transfer not granted from your address\");\n\n    require(ownerOfNFT[_tokenId] == _from);\n    require(_to != address(0), \"ERC721: Transfer cannot go to the 0 address!\");\n    require(_tokenId < kittys.length);\n\n\n    _transfer(_from, _to, _tokenId);\n\n  }\n\n  function safeTransferFrom(address _from, address _to, uint256 _tokenId) public virtual override {\n    safeTransferFrom(_from, _to, _tokenId, \"\");\n  }\n\n  function safeTransferFrom(address _from, address _to, uint256 _tokenId, bytes memory data) public virtual override {\n    require( owns(msg.sender, _tokenId) ||\n    operatorApproval[_from][msg.sender] == true ||\n    nftApprovals[_tokenId] == msg.sender, \"ERC721: Permission to transfer not granted from your address\");\n\n    require(ownerOfNFT[_tokenId] == _from);\n    require(_to != address(0), \"ERC721: Transfer cannot go to the 0 address!\");\n    require(_tokenId < kittys.length);\n\n    _safeTransfer(_from, _to, _tokenId, data);\n  }\n\n  //part of safeTransferFrom(), CHECKS to make sure token destination supports NFT\n  function _safeTransfer(address _from, address _to, uint256 _tokenId, bytes memory data) internal {\n    require( _checkERC721Support(_from, _to, _tokenId, data) );\n    _transfer(_from, _to, _tokenId);\n    //CHECK if created func '_checkERC721Support' returns boolean true\n  }\n\n  //calls _to contract to see if it supports ERC721 token standard\n  function _checkERC721Support(address _from, address _to, uint256 _tokenId, bytes memory data) internal returns(bool){\n    //call created func 'isContract' with param _to to check if it's a contract\n    if( !_isContract(_to) ){\n      //if NOT a contract, we know it's a wallet --> ERC wallets can support NFTs\n      return true;\n    }\n\n    //if it IS a contract, call onERC721Received\n      //(standard func that contracts must have if they want to\n        //be interoperable with NFTs)\n    //CHECK RETURN VALUE of onERC721Received ^^\n\n    //created an interface contract to make a call to an external contract\n      //how do call an external contract if you only know the address & 1 function\n      //.. make an interface contract.. 'IERC721Receiver'\n    //create a bytes variable that captures value of external call and tests if it's true\n    else{\n      bytes4 returnData = IERC721Receiver(_to).onERC721Received(msg.sender, _from, _tokenId, data);\n\n      if(returnData == bytes4(keccak256(\"onERC721Received(address,address,uint256,bytes)\"))){\n        return true;\n      }\n      else{\n        return false;\n      }\n    }\n  }\n\n  function _isContract(address _to) view internal returns(bool){\n    //if it calls a wallet, code size = 0... if it's a contract, code size > 1\n    uint32 size;\n    assembly{\n      size := extcodesize(_to)\n    }\n    return size > 0;\n  }\n}\n",
  "sourcePath": "/Users/williamlamarche/Desktop/Blockchain-Development/ETHdApp/contracts/KittycontractNFT.sol",
  "compiler": {
    "name": "solc",
    "version": "0.8.0+commit.c7dfd78e.Emscripten.clang"
  },
  "schemaVersion": "3.4.1",
  "updatedAt": "2021-11-07T22:00:44.901Z",
  "networkType": "ethereum",
  "devdoc": {
    "kind": "dev",
    "methods": {
      "approve(address,uint256)": {
        "details": "The zero address indicates there is no approved address. Throws unless `msg.sender` is the current NFT owner, or an authorized operator of the current owner.",
        "params": {
          "_approved": "The new approved NFT controller",
          "_tokenId": "The NFT to approve"
        }
      },
      "balanceOf(address)": {
        "details": "Returns the number of tokens in ``owner``'s account."
      },
      "getApproved(uint256)": {
        "details": "Throws if `_tokenId` is not a valid NFT.",
        "params": {
          "_tokenId": "The NFT to find the approved address for"
        },
        "returns": {
          "_0": "The approved address for this NFT, or the zero address if there is none"
        }
      },
      "isApprovedForAll(address,address)": {
        "params": {
          "_operator": "The address that acts on behalf of the owner",
          "_owner": "The address that owns the NFTs"
        },
        "returns": {
          "_0": "True if `_operator` is an approved operator for `_owner`, false otherwise"
        }
      },
      "owner()": {
        "details": "Returns the address of the current owner."
      },
      "ownerOf(uint256)": {
        "details": "Returns the owner of the `tokenId` token. Requirements: - `tokenId` must exist."
      },
      "renounceOwnership()": {
        "details": "Leaves the contract without owner. It will not be possible to call `onlyOwner` functions anymore. Can only be called by the current owner. NOTE: Renouncing ownership will leave the contract without an owner, thereby removing any functionality that is only available to the owner."
      },
      "safeTransferFrom(address,address,uint256)": {
        "details": "This works identically to the other function with an extra data parameter,  except this function just sets data to \"\".",
        "params": {
          "_from": "The current owner of the NFT",
          "_to": "The new owner",
          "_tokenId": "The NFT to transfer"
        }
      },
      "safeTransferFrom(address,address,uint256,bytes)": {
        "details": "Throws unless `msg.sender` is the current owner, an authorized  operator, or the approved address for this NFT. Throws if `_from` is  not the current owner. Throws if `_to` is the zero address. Throws if  `_tokenId` is not a valid NFT. When transfer is complete, this function  checks if `_to` is a smart contract (code size > 0). If so, it calls  `onERC721Received` on `_to` and throws if the return value is not  `bytes4(keccak256(\"onERC721Received(address,address,uint256,bytes)\"))`.",
        "params": {
          "_from": "The current owner of the NFT",
          "_to": "The new owner",
          "_tokenId": "The NFT to transfer",
          "data": "Additional data with no specified format, sent in call to `_to`"
        }
      },
      "setApprovalForAll(address,bool)": {
        "details": "Emits the ApprovalForAll event. The contract MUST allow  multiple operators per owner.",
        "params": {
          "_approved": "True if the operator is approved, false to revoke approval",
          "_operator": "Address to add to the set of authorized operators"
        }
      },
      "transferFrom(address,address,uint256)": {
        "details": "Throws unless `msg.sender` is the current owner, an authorized  operator, or the approved address for this NFT. Throws if `_from` is  not the current owner. Throws if `_to` is the zero address. Throws if  `_tokenId` is not a valid NFT.",
        "params": {
          "_from": "The current owner of the NFT",
          "_to": "The new owner",
          "_tokenId": "The NFT to transfer"
        }
      },
      "transferOwnership(address)": {
        "details": "Transfers ownership of the contract to a new account (`newOwner`). Can only be called by the current owner."
      }
    },
    "version": 1
  },
  "userdoc": {
    "kind": "user",
    "methods": {
      "approve(address,uint256)": {
        "notice": "Change or reaffirm the approved address for an NFT"
      },
      "getApproved(uint256)": {
        "notice": "Get the approved address for a single NFT"
      },
      "isApprovedForAll(address,address)": {
        "notice": "Query if an address is an authorized operator for another address"
      },
      "safeTransferFrom(address,address,uint256)": {
        "notice": "Transfers the ownership of an NFT from one address to another address"
      },
      "safeTransferFrom(address,address,uint256,bytes)": {
        "notice": "Transfers the ownership of an NFT from one address to another address"
      },
      "setApprovalForAll(address,bool)": {
        "notice": "Enable or disable approval for a third party (\"operator\") to manage  all of `msg.sender`'s assets"
      },
      "transferFrom(address,address,uint256)": {
        "notice": "Transfer ownership of an NFT -- THE CALLER IS RESPONSIBLE  TO CONFIRM THAT `_to` IS CAPABLE OF RECEIVING NFTS OR ELSE  THEY MAY BE PERMANENTLY LOST"
      }
    },
    "version": 1
  }
}