{
  "contractName": "KittycontractNFT",
  "abi": [
    {
      "anonymous": false,
      "inputs": [
        {
          "indexed": true,
          "internalType": "address",
          "name": "owner",
          "type": "address"
        },
        {
          "indexed": true,
          "internalType": "address",
          "name": "approved",
          "type": "address"
        },
        {
          "indexed": true,
          "internalType": "uint256",
          "name": "tokenId",
          "type": "uint256"
        }
      ],
      "name": "Approval",
      "type": "event"
    },
    {
      "anonymous": false,
      "inputs": [
        {
          "indexed": true,
          "internalType": "address",
          "name": "owner",
          "type": "address"
        },
        {
          "indexed": true,
          "internalType": "address",
          "name": "operator",
          "type": "address"
        },
        {
          "indexed": false,
          "internalType": "bool",
          "name": "approved",
          "type": "bool"
        }
      ],
      "name": "ApprovalForAll",
      "type": "event"
    },
    {
      "anonymous": false,
      "inputs": [
        {
          "indexed": false,
          "internalType": "address",
          "name": "_owner",
          "type": "address"
        },
        {
          "indexed": false,
          "internalType": "uint256",
          "name": "_tokenID",
          "type": "uint256"
        },
        {
          "indexed": false,
          "internalType": "uint256",
          "name": "momID",
          "type": "uint256"
        },
        {
          "indexed": false,
          "internalType": "uint256",
          "name": "dadID",
          "type": "uint256"
        },
        {
          "indexed": false,
          "internalType": "uint256",
          "name": "_genes",
          "type": "uint256"
        }
      ],
      "name": "Birth",
      "type": "event"
    },
    {
      "anonymous": false,
      "inputs": [
        {
          "indexed": true,
          "internalType": "address",
          "name": "previousOwner",
          "type": "address"
        },
        {
          "indexed": true,
          "internalType": "address",
          "name": "newOwner",
          "type": "address"
        }
      ],
      "name": "OwnershipTransferred",
      "type": "event"
    },
    {
      "anonymous": false,
      "inputs": [
        {
          "indexed": true,
          "internalType": "address",
          "name": "from",
          "type": "address"
        },
        {
          "indexed": true,
          "internalType": "address",
          "name": "to",
          "type": "address"
        },
        {
          "indexed": true,
          "internalType": "uint256",
          "name": "tokenId",
          "type": "uint256"
        }
      ],
      "name": "Transfer",
      "type": "event"
    },
    {
      "inputs": [],
      "name": "_tokenName",
      "outputs": [
        {
          "internalType": "string",
          "name": "",
          "type": "string"
        }
      ],
      "stateMutability": "view",
      "type": "function"
    },
    {
      "inputs": [],
      "name": "_tokenSymbol",
      "outputs": [
        {
          "internalType": "string",
          "name": "",
          "type": "string"
        }
      ],
      "stateMutability": "view",
      "type": "function"
    },
    {
      "inputs": [],
      "name": "gen0Counter",
      "outputs": [
        {
          "internalType": "uint256",
          "name": "",
          "type": "uint256"
        }
      ],
      "stateMutability": "view",
      "type": "function"
    },
    {
      "inputs": [],
      "name": "gen0Limit",
      "outputs": [
        {
          "internalType": "uint256",
          "name": "",
          "type": "uint256"
        }
      ],
      "stateMutability": "view",
      "type": "function"
    },
    {
      "inputs": [
        {
          "internalType": "uint256",
          "name": "",
          "type": "uint256"
        }
      ],
      "name": "nftApprovals",
      "outputs": [
        {
          "internalType": "address",
          "name": "",
          "type": "address"
        }
      ],
      "stateMutability": "view",
      "type": "function"
    },
    {
      "inputs": [],
      "name": "owner",
      "outputs": [
        {
          "internalType": "address",
          "name": "",
          "type": "address"
        }
      ],
      "stateMutability": "view",
      "type": "function"
    },
    {
      "inputs": [],
      "name": "renounceOwnership",
      "outputs": [],
      "stateMutability": "nonpayable",
      "type": "function"
    },
    {
      "inputs": [
        {
          "internalType": "address",
          "name": "newOwner",
          "type": "address"
        }
      ],
      "name": "transferOwnership",
      "outputs": [],
      "stateMutability": "nonpayable",
      "type": "function"
    },
    {
      "inputs": [
        {
          "internalType": "bytes4",
          "name": "_interfaceID",
          "type": "bytes4"
        }
      ],
      "name": "supportsInterface",
      "outputs": [
        {
          "internalType": "bool",
          "name": "",
          "type": "bool"
        }
      ],
      "stateMutability": "view",
      "type": "function"
    },
    {
      "inputs": [
        {
          "internalType": "address",
          "name": "owner",
          "type": "address"
        }
      ],
      "name": "balanceOf",
      "outputs": [
        {
          "internalType": "uint256",
          "name": "balance",
          "type": "uint256"
        }
      ],
      "stateMutability": "view",
      "type": "function"
    },
    {
      "inputs": [],
      "name": "totalSupply",
      "outputs": [
        {
          "internalType": "uint256",
          "name": "total",
          "type": "uint256"
        }
      ],
      "stateMutability": "view",
      "type": "function"
    },
    {
      "inputs": [],
      "name": "name",
      "outputs": [
        {
          "internalType": "string",
          "name": "tokenName",
          "type": "string"
        }
      ],
      "stateMutability": "pure",
      "type": "function"
    },
    {
      "inputs": [],
      "name": "symbol",
      "outputs": [
        {
          "internalType": "string",
          "name": "tokenSymbol",
          "type": "string"
        }
      ],
      "stateMutability": "pure",
      "type": "function"
    },
    {
      "inputs": [
        {
          "internalType": "uint256",
          "name": "tokenId",
          "type": "uint256"
        }
      ],
      "name": "ownerOf",
      "outputs": [
        {
          "internalType": "address",
          "name": "owner",
          "type": "address"
        }
      ],
      "stateMutability": "view",
      "type": "function"
    },
    {
      "inputs": [
        {
          "internalType": "uint256",
          "name": "_momID",
          "type": "uint256"
        },
        {
          "internalType": "uint256",
          "name": "_dadID",
          "type": "uint256"
        }
      ],
      "name": "breedKittys",
      "outputs": [
        {
          "internalType": "uint256",
          "name": "",
          "type": "uint256"
        }
      ],
      "stateMutability": "nonpayable",
      "type": "function"
    },
    {
      "inputs": [
        {
          "internalType": "address",
          "name": "_to",
          "type": "address"
        },
        {
          "internalType": "uint256",
          "name": "_tokenID",
          "type": "uint256"
        }
      ],
      "name": "transfer",
      "outputs": [],
      "stateMutability": "nonpayable",
      "type": "function"
    },
    {
      "inputs": [
        {
          "internalType": "uint256",
          "name": "_genes",
          "type": "uint256"
        }
      ],
      "name": "createKittyGen0",
      "outputs": [
        {
          "internalType": "uint256",
          "name": "",
          "type": "uint256"
        }
      ],
      "stateMutability": "nonpayable",
      "type": "function"
    },
    {
      "inputs": [
        {
          "internalType": "uint256",
          "name": "tokenID",
          "type": "uint256"
        }
      ],
      "name": "getKitty",
      "outputs": [
        {
          "internalType": "uint256",
          "name": "",
          "type": "uint256"
        },
        {
          "internalType": "uint256",
          "name": "",
          "type": "uint256"
        },
        {
          "internalType": "uint256",
          "name": "",
          "type": "uint256"
        },
        {
          "internalType": "address",
          "name": "",
          "type": "address"
        },
        {
          "internalType": "uint256",
          "name": "",
          "type": "uint256"
        }
      ],
      "stateMutability": "view",
      "type": "function"
    },
    {
      "inputs": [
        {
          "internalType": "address",
          "name": "_approved",
          "type": "address"
        },
        {
          "internalType": "uint256",
          "name": "_tokenId",
          "type": "uint256"
        }
      ],
      "name": "approve",
      "outputs": [],
      "stateMutability": "nonpayable",
      "type": "function"
    },
    {
      "inputs": [
        {
          "internalType": "address",
          "name": "_operator",
          "type": "address"
        },
        {
          "internalType": "bool",
          "name": "_approved",
          "type": "bool"
        }
      ],
      "name": "setApprovalForAll",
      "outputs": [],
      "stateMutability": "nonpayable",
      "type": "function"
    },
    {
      "inputs": [
        {
          "internalType": "address",
          "name": "_owner",
          "type": "address"
        },
        {
          "internalType": "address",
          "name": "_operator",
          "type": "address"
        }
      ],
      "name": "isApprovedForAll",
      "outputs": [
        {
          "internalType": "bool",
          "name": "",
          "type": "bool"
        }
      ],
      "stateMutability": "view",
      "type": "function"
    },
    {
      "inputs": [
        {
          "internalType": "uint256",
          "name": "_tokenId",
          "type": "uint256"
        }
      ],
      "name": "getApproved",
      "outputs": [
        {
          "internalType": "address",
          "name": "",
          "type": "address"
        }
      ],
      "stateMutability": "view",
      "type": "function"
    },
    {
      "inputs": [
        {
          "internalType": "address",
          "name": "_from",
          "type": "address"
        },
        {
          "internalType": "address",
          "name": "_to",
          "type": "address"
        },
        {
          "internalType": "uint256",
          "name": "_tokenId",
          "type": "uint256"
        }
      ],
      "name": "transferFrom",
      "outputs": [],
      "stateMutability": "nonpayable",
      "type": "function"
    },
    {
      "inputs": [
        {
          "internalType": "address",
          "name": "_from",
          "type": "address"
        },
        {
          "internalType": "address",
          "name": "_to",
          "type": "address"
        },
        {
          "internalType": "uint256",
          "name": "_tokenId",
          "type": "uint256"
        }
      ],
      "name": "safeTransferFrom",
      "outputs": [],
      "stateMutability": "nonpayable",
      "type": "function"
    },
    {
      "inputs": [
        {
          "internalType": "address",
          "name": "_from",
          "type": "address"
        },
        {
          "internalType": "address",
          "name": "_to",
          "type": "address"
        },
        {
          "internalType": "uint256",
          "name": "_tokenId",
          "type": "uint256"
        },
        {
          "internalType": "bytes",
          "name": "data",
          "type": "bytes"
        }
      ],
      "name": "safeTransferFrom",
      "outputs": [],
      "stateMutability": "nonpayable",
      "type": "function"
    }
  ],
  "bytecode": "0x608060405234801561001057600080fd5b5060006100216100c460201b60201c565b9050806000806101000a81548173ffffffffffffffffffffffffffffffffffffffff021916908373ffffffffffffffffffffffffffffffffffffffff1602179055508073ffffffffffffffffffffffffffffffffffffffff16600073ffffffffffffffffffffffffffffffffffffffff167f8be0079c531659141344cd1fd0a4f28419497f9722a3daafe3b4186f6b6457e060405160405180910390a3506100cc565b600033905090565b6128bf806100db6000396000f3fe608060405234801561001057600080fd5b50600436106101735760003560e01c80638da5cb5b116100de578063d5a776ca11610097578063e98b7f4d11610071578063e98b7f4d1461045e578063ecf35cca14610492578063ef5e94aa146104b0578063f2fde38b146104ce57610173565b8063d5a776ca146103e0578063e515a4d114610410578063e985e9c51461042e57610173565b80638da5cb5b1461033257806395d89b41146103505780639f0c81251461036e578063a22cb4651461038c578063a9059cbb146103a8578063b88d4fde146103c457610173565b806342842e0e1161013057806342842e0e1461024c5780636352211e1461026857806370a082311461029857806370d6ad72146102c8578063715018a6146102f85780638369a08b1461030257610173565b806301ffc9a71461017857806306fdde03146101a8578063081812fc146101c6578063095ea7b3146101f657806318160ddd1461021257806323b872dd14610230575b600080fd5b610192600480360381019061018d9190611e72565b6104ea565b60405161019f9190612326565b60405180910390f35b6101b061059b565b6040516101bd9190612341565b60405180910390f35b6101e060048036038101906101db9190611ec4565b6105d8565b6040516101ed919061226c565b60405180910390f35b610210600480360381019061020b9190611e36565b610699565b005b61021a610785565b6040516102279190612443565b60405180910390f35b61024a60048036038101906102459190611d30565b610792565b005b61026660048036038101906102619190611d30565b6109d8565b005b610282600480360381019061027d9190611ec4565b6109f8565b60405161028f919061226c565b60405180910390f35b6102b260048036038101906102ad9190611ccb565b610a35565b6040516102bf9190612443565b60405180910390f35b6102e260048036038101906102dd9190611eed565b610a7e565b6040516102ef9190612443565b60405180910390f35b610300610b02565b005b61031c60048036038101906103179190611ec4565b610c3c565b604051610329919061226c565b60405180910390f35b61033a610c6f565b604051610347919061226c565b60405180910390f35b610358610c98565b6040516103659190612341565b60405180910390f35b610376610cd5565b6040516103839190612341565b60405180910390f35b6103a660048036038101906103a19190611dfa565b610d0e565b005b6103c260048036038101906103bd9190611e36565b610e7a565b005b6103de60048036038101906103d99190611d7f565b610f7b565b005b6103fa60048036038101906103f59190611ec4565b6111c3565b6040516104079190612443565b60405180910390f35b610418611203565b6040516104259190612443565b60405180910390f35b61044860048036038101906104439190611cf4565b611208565b6040516104559190612326565b60405180910390f35b61047860048036038101906104739190611ec4565b6112b4565b60405161048995949392919061245e565b60405180910390f35b61049a61139b565b6040516104a79190612341565b60405180910390f35b6104b86113d4565b6040516104c59190612443565b60405180910390f35b6104e860048036038101906104e39190611ccb565b6113da565b005b60006380ac58cd60e01b7bffffffffffffffffffffffffffffffffffffffffffffffffffffffff1916827bffffffffffffffffffffffffffffffffffffffffffffffffffffffff1916148061058357506301ffc9a760e01b7bffffffffffffffffffffffffffffffffffffffffffffffffffffffff1916827bffffffffffffffffffffffffffffffffffffffffffffffffffffffff1916145b156105915760019050610596565b600090505b919050565b60606040518060400160405280601081526020017f576174657273746f6e654b697474797300000000000000000000000000000000815250905090565b600060068054905082101561069357600073ffffffffffffffffffffffffffffffffffffffff166003600084815260200190815260200160002060009054906101000a900473ffffffffffffffffffffffffffffffffffffffff1673ffffffffffffffffffffffffffffffffffffffff1614156106585760009050610694565b6003600083815260200190815260200160002060009054906101000a900473ffffffffffffffffffffffffffffffffffffffff169050610694565b5b919050565b600073ffffffffffffffffffffffffffffffffffffffff168273ffffffffffffffffffffffffffffffffffffffff161415610709576040517f08c379a0000000000000000000000000000000000000000000000000000000008152600401610700906123e3565b60405180910390fd5b6107133382611583565b61071c57600080fd5b61072682826115ef565b808273ffffffffffffffffffffffffffffffffffffffff163373ffffffffffffffffffffffffffffffffffffffff167f8c5be1e5ebec7d5bd14f71427d1e84f3dd0314c0f7b2291e5b200ac8c7c3b92560405160405180910390a45050565b6000600680549050905090565b61079c3382611583565b80610834575060011515600460008573ffffffffffffffffffffffffffffffffffffffff1673ffffffffffffffffffffffffffffffffffffffff16815260200190815260200160002060003373ffffffffffffffffffffffffffffffffffffffff1673ffffffffffffffffffffffffffffffffffffffff16815260200190815260200160002060009054906101000a900460ff161515145b8061089d57503373ffffffffffffffffffffffffffffffffffffffff166003600083815260200190815260200160002060009054906101000a900473ffffffffffffffffffffffffffffffffffffffff1673ffffffffffffffffffffffffffffffffffffffff16145b6108dc576040517f08c379a00000000000000000000000000000000000000000000000000000000081526004016108d3906123a3565b60405180910390fd5b8273ffffffffffffffffffffffffffffffffffffffff166002600083815260200190815260200160002060009054906101000a900473ffffffffffffffffffffffffffffffffffffffff1673ffffffffffffffffffffffffffffffffffffffff161461094757600080fd5b600073ffffffffffffffffffffffffffffffffffffffff168273ffffffffffffffffffffffffffffffffffffffff1614156109b7576040517f08c379a00000000000000000000000000000000000000000000000000000000081526004016109ae90612423565b60405180910390fd5b60068054905081106109c857600080fd5b6109d3838383611645565b505050565b6109f383838360405180602001604052806000815250610f7b565b505050565b60006002600083815260200190815260200160002060009054906101000a900473ffffffffffffffffffffffffffffffffffffffff169050919050565b6000600160008373ffffffffffffffffffffffffffffffffffffffff1673ffffffffffffffffffffffffffffffffffffffff168152602001908152602001600020549050919050565b6000610a8a3384611583565b610a9357600080fd5b610a9d3383611583565b610aa657600080fd5b600080610ab2846112b4565b94505050509150600080610ac5876112b4565b945050505091506000610ad8838661180e565b90506000610ae68386611868565b9050610af589898385336118d7565b5050505050505092915050565b610b0a611a88565b73ffffffffffffffffffffffffffffffffffffffff16610b28610c6f565b73ffffffffffffffffffffffffffffffffffffffff1614610b7e576040517f08c379a0000000000000000000000000000000000000000000000000000000008152600401610b75906123c3565b60405180910390fd5b600073ffffffffffffffffffffffffffffffffffffffff1660008054906101000a900473ffffffffffffffffffffffffffffffffffffffff1673ffffffffffffffffffffffffffffffffffffffff167f8be0079c531659141344cd1fd0a4f28419497f9722a3daafe3b4186f6b6457e060405160405180910390a360008060006101000a81548173ffffffffffffffffffffffffffffffffffffffff021916908373ffffffffffffffffffffffffffffffffffffffff160217905550565b60036020528060005260406000206000915054906101000a900473ffffffffffffffffffffffffffffffffffffffff1681565b60008060009054906101000a900473ffffffffffffffffffffffffffffffffffffffff16905090565b60606040518060400160405280600381526020017f57534b0000000000000000000000000000000000000000000000000000000000815250905090565b6040518060400160405280601081526020017f576174657273746f6e654b69747479730000000000000000000000000000000081525081565b3373ffffffffffffffffffffffffffffffffffffffff168273ffffffffffffffffffffffffffffffffffffffff161415610d7d576040517f08c379a0000000000000000000000000000000000000000000000000000000008152600401610d7490612403565b60405180910390fd5b80600460003373ffffffffffffffffffffffffffffffffffffffff1673ffffffffffffffffffffffffffffffffffffffff16815260200190815260200160002060008473ffffffffffffffffffffffffffffffffffffffff1673ffffffffffffffffffffffffffffffffffffffff16815260200190815260200160002060006101000a81548160ff0219169083151502179055508173ffffffffffffffffffffffffffffffffffffffff163373ffffffffffffffffffffffffffffffffffffffff167f17307eab39ab6107e8899845ad3d59bd9653f200f220920489ca2b5937696c3183604051610e6e9190612326565b60405180910390a35050565b600073ffffffffffffffffffffffffffffffffffffffff168273ffffffffffffffffffffffffffffffffffffffff161415610eea576040517f08c379a0000000000000000000000000000000000000000000000000000000008152600401610ee1906123e3565b60405180910390fd5b3073ffffffffffffffffffffffffffffffffffffffff168273ffffffffffffffffffffffffffffffffffffffff161415610f59576040517f08c379a0000000000000000000000000000000000000000000000000000000008152600401610f5090612363565b60405180910390fd5b610f633382611583565b610f6c57600080fd5b610f77338383611645565b5050565b610f853383611583565b8061101d575060011515600460008673ffffffffffffffffffffffffffffffffffffffff1673ffffffffffffffffffffffffffffffffffffffff16815260200190815260200160002060003373ffffffffffffffffffffffffffffffffffffffff1673ffffffffffffffffffffffffffffffffffffffff16815260200190815260200160002060009054906101000a900460ff161515145b8061108657503373ffffffffffffffffffffffffffffffffffffffff166003600084815260200190815260200160002060009054906101000a900473ffffffffffffffffffffffffffffffffffffffff1673ffffffffffffffffffffffffffffffffffffffff16145b6110c5576040517f08c379a00000000000000000000000000000000000000000000000000000000081526004016110bc906123a3565b60405180910390fd5b8373ffffffffffffffffffffffffffffffffffffffff166002600084815260200190815260200160002060009054906101000a900473ffffffffffffffffffffffffffffffffffffffff1673ffffffffffffffffffffffffffffffffffffffff161461113057600080fd5b600073ffffffffffffffffffffffffffffffffffffffff168373ffffffffffffffffffffffffffffffffffffffff1614156111a0576040517f08c379a000000000000000000000000000000000000000000000000000000000815260040161119790612423565b60405180910390fd5b60068054905082106111b157600080fd5b6111bd84848484611a90565b50505050565b6000600a60055411156111d557600080fd5b600560008154809291906111e890612715565b91905055506111fc600080600085336118d7565b9050919050565b600a81565b600060011515600460008573ffffffffffffffffffffffffffffffffffffffff1673ffffffffffffffffffffffffffffffffffffffff16815260200190815260200160002060008473ffffffffffffffffffffffffffffffffffffffff1673ffffffffffffffffffffffffffffffffffffffff16815260200190815260200160002060009054906101000a900460ff16151514156112a957600190506112ae565b600090505b92915050565b600080600080600080600687815481106112f7577f4e487b7100000000000000000000000000000000000000000000000000000000600052603260045260246000fd5b9060005260206000209060030201905080600101548160020160009054906101000a900463ffffffff168260020160049054906101000a900463ffffffff168360000160009054906101000a900473ffffffffffffffffffffffffffffffffffffffff168460020160089054906101000a900461ffff168363ffffffff1693508263ffffffff1692508061ffff169050955095509550955095505091939590929450565b6040518060400160405280600381526020017f57534b000000000000000000000000000000000000000000000000000000000081525081565b60055481565b6113e2611a88565b73ffffffffffffffffffffffffffffffffffffffff16611400610c6f565b73ffffffffffffffffffffffffffffffffffffffff1614611456576040517f08c379a000000000000000000000000000000000000000000000000000000000815260040161144d906123c3565b60405180910390fd5b600073ffffffffffffffffffffffffffffffffffffffff168173ffffffffffffffffffffffffffffffffffffffff1614156114c6576040517f08c379a00000000000000000000000000000000000000000000000000000000081526004016114bd90612383565b60405180910390fd5b8073ffffffffffffffffffffffffffffffffffffffff1660008054906101000a900473ffffffffffffffffffffffffffffffffffffffff1673ffffffffffffffffffffffffffffffffffffffff167f8be0079c531659141344cd1fd0a4f28419497f9722a3daafe3b4186f6b6457e060405160405180910390a3806000806101000a81548173ffffffffffffffffffffffffffffffffffffffff021916908373ffffffffffffffffffffffffffffffffffffffff16021790555050565b60008273ffffffffffffffffffffffffffffffffffffffff166002600084815260200190815260200160002060009054906101000a900473ffffffffffffffffffffffffffffffffffffffff1673ffffffffffffffffffffffffffffffffffffffff1614905092915050565b816003600083815260200190815260200160002060006101000a81548173ffffffffffffffffffffffffffffffffffffffff021916908373ffffffffffffffffffffffffffffffffffffffff1602179055505050565b60018060008473ffffffffffffffffffffffffffffffffffffffff1673ffffffffffffffffffffffffffffffffffffffff1681526020019081526020016000206000828254611694919061254a565b92505081905550816002600083815260200190815260200160002060006101000a81548173ffffffffffffffffffffffffffffffffffffffff021916908373ffffffffffffffffffffffffffffffffffffffff160217905550600073ffffffffffffffffffffffffffffffffffffffff168373ffffffffffffffffffffffffffffffffffffffff16146117ae5760018060008573ffffffffffffffffffffffffffffffffffffffff1673ffffffffffffffffffffffffffffffffffffffff1681526020019081526020016000206000828254611770919061262b565b925050819055506003600082815260200190815260200160002060006101000a81549073ffffffffffffffffffffffffffffffffffffffff02191690555b808273ffffffffffffffffffffffffffffffffffffffff168473ffffffffffffffffffffffffffffffffffffffff167fddf252ad1be2c89b69c2b068fc378daa952ba7f163c4a11628f55a4df523b3ef60405160405180910390a4505050565b60008064174876e8008361182291906125a0565b9050600064174876e80085611837919061275e565b9050600064174876e8008361184c91906125d1565b9050818161185a919061254a565b905080935050505092915050565b6000808383111561189257600183611880919061254a565b905060028161188f91906125a0565b90505b838310156118bd576001846118a7919061254a565b90506002816118b691906125a0565b90506118cd565b6001846118ca919061254a565b90505b8091505092915050565b6000806040518060a001604052808473ffffffffffffffffffffffffffffffffffffffff1681526020018581526020018863ffffffff1681526020018763ffffffff1681526020018661ffff168152509050600681908060018154018082558091505060019003906000526020600020906003020160009091909190915060008201518160000160006101000a81548173ffffffffffffffffffffffffffffffffffffffff021916908373ffffffffffffffffffffffffffffffffffffffff1602179055506020820151816001015560408201518160020160006101000a81548163ffffffff021916908363ffffffff16021790555060608201518160020160046101000a81548163ffffffff021916908363ffffffff16021790555060808201518160020160086101000a81548161ffff021916908361ffff160217905550505060006001600680549050611a2d919061262b565b9050611a3b60008583611645565b7f0a5311bd2a6608f08a180df2ee7c5946819a649b204b554bb8e39825b2c50ad584828a8a89604051611a729594939291906122d3565b60405180910390a1809250505095945050505050565b600033905090565b611a9c84848484611ab6565b611aa557600080fd5b611ab0848484611645565b50505050565b6000611ac184611be1565b611ace5760019050611bd9565b60008473ffffffffffffffffffffffffffffffffffffffff1663150b7a02338887876040518563ffffffff1660e01b8152600401611b0f9493929190612287565b602060405180830381600087803b158015611b2957600080fd5b505af1158015611b3d573d6000803e3d6000fd5b505050506040513d601f19601f82011682018060405250810190611b619190611e9b565b90507f150b7a023d4804d13e8c85fb27262cb750cf6ba9f9dd3bb30d90f482ceeb4b1f7bffffffffffffffffffffffffffffffffffffffffffffffffffffffff1916817bffffffffffffffffffffffffffffffffffffffffffffffffffffffff19161415611bd3576001915050611bd9565b60009150505b949350505050565b600080823b905060008163ffffffff1611915050919050565b6000611c0d611c08846124e2565b6124b1565b905082815260208101848484011115611c2557600080fd5b611c308482856126d3565b509392505050565b600081359050611c478161282d565b92915050565b600081359050611c5c81612844565b92915050565b600081359050611c718161285b565b92915050565b600081519050611c868161285b565b92915050565b600082601f830112611c9d57600080fd5b8135611cad848260208601611bfa565b91505092915050565b600081359050611cc581612872565b92915050565b600060208284031215611cdd57600080fd5b6000611ceb84828501611c38565b91505092915050565b60008060408385031215611d0757600080fd5b6000611d1585828601611c38565b9250506020611d2685828601611c38565b9150509250929050565b600080600060608486031215611d4557600080fd5b6000611d5386828701611c38565b9350506020611d6486828701611c38565b9250506040611d7586828701611cb6565b9150509250925092565b60008060008060808587031215611d9557600080fd5b6000611da387828801611c38565b9450506020611db487828801611c38565b9350506040611dc587828801611cb6565b925050606085013567ffffffffffffffff811115611de257600080fd5b611dee87828801611c8c565b91505092959194509250565b60008060408385031215611e0d57600080fd5b6000611e1b85828601611c38565b9250506020611e2c85828601611c4d565b9150509250929050565b60008060408385031215611e4957600080fd5b6000611e5785828601611c38565b9250506020611e6885828601611cb6565b9150509250929050565b600060208284031215611e8457600080fd5b6000611e9284828501611c62565b91505092915050565b600060208284031215611ead57600080fd5b6000611ebb84828501611c77565b91505092915050565b600060208284031215611ed657600080fd5b6000611ee484828501611cb6565b91505092915050565b60008060408385031215611f0057600080fd5b6000611f0e85828601611cb6565b9250506020611f1f85828601611cb6565b9150509250929050565b611f328161265f565b82525050565b611f4181612671565b82525050565b6000611f5282612512565b611f5c8185612528565b9350611f6c8185602086016126e2565b611f758161281c565b840191505092915050565b6000611f8b8261251d565b611f958185612539565b9350611fa58185602086016126e2565b611fae8161281c565b840191505092915050565b6000611fc6603283612539565b91507f4552433732313a205472616e73666572206973206e6f7420737570706f72746560008301527f6420746f207468697320636f6e747261637400000000000000000000000000006020830152604082019050919050565b600061202c602683612539565b91507f4f776e61626c653a206e6577206f776e657220697320746865207a65726f206160008301527f64647265737300000000000000000000000000000000000000000000000000006020830152604082019050919050565b6000612092603c83612539565b91507f4552433732313a205065726d697373696f6e20746f207472616e73666572206e60008301527f6f74206772616e7465642066726f6d20796f75722061646472657373000000006020830152604082019050919050565b60006120f8602083612539565b91507f4f776e61626c653a2063616c6c6572206973206e6f7420746865206f776e65726000830152602082019050919050565b6000612138602583612539565b91507f4552433732313a205472616e7366657220697320746f2074686520302061646460008301527f72657373210000000000000000000000000000000000000000000000000000006020830152604082019050919050565b600061219e602a83612539565b91507f4552433732313a2043616e6e6f74202a617070726f76652a20796f7572206f7760008301527f6e206164647265737321000000000000000000000000000000000000000000006020830152604082019050919050565b6000612204602c83612539565b91507f4552433732313a205472616e736665722063616e6e6f7420676f20746f20746860008301527f65203020616464726573732100000000000000000000000000000000000000006020830152604082019050919050565b612266816126c9565b82525050565b60006020820190506122816000830184611f29565b92915050565b600060808201905061229c6000830187611f29565b6122a96020830186611f29565b6122b6604083018561225d565b81810360608301526122c88184611f47565b905095945050505050565b600060a0820190506122e86000830188611f29565b6122f5602083018761225d565b612302604083018661225d565b61230f606083018561225d565b61231c608083018461225d565b9695505050505050565b600060208201905061233b6000830184611f38565b92915050565b6000602082019050818103600083015261235b8184611f80565b905092915050565b6000602082019050818103600083015261237c81611fb9565b9050919050565b6000602082019050818103600083015261239c8161201f565b9050919050565b600060208201905081810360008301526123bc81612085565b9050919050565b600060208201905081810360008301526123dc816120eb565b9050919050565b600060208201905081810360008301526123fc8161212b565b9050919050565b6000602082019050818103600083015261241c81612191565b9050919050565b6000602082019050818103600083015261243c816121f7565b9050919050565b6000602082019050612458600083018461225d565b92915050565b600060a082019050612473600083018861225d565b612480602083018761225d565b61248d604083018661225d565b61249a6060830185611f29565b6124a7608083018461225d565b9695505050505050565b6000604051905081810181811067ffffffffffffffff821117156124d8576124d76127ed565b5b8060405250919050565b600067ffffffffffffffff8211156124fd576124fc6127ed565b5b601f19601f8301169050602081019050919050565b600081519050919050565b600081519050919050565b600082825260208201905092915050565b600082825260208201905092915050565b6000612555826126c9565b9150612560836126c9565b9250827fffffffffffffffffffffffffffffffffffffffffffffffffffffffffffffffff038211156125955761259461278f565b5b828201905092915050565b60006125ab826126c9565b91506125b6836126c9565b9250826125c6576125c56127be565b5b828204905092915050565b60006125dc826126c9565b91506125e7836126c9565b9250817fffffffffffffffffffffffffffffffffffffffffffffffffffffffffffffffff04831182151516156126205761261f61278f565b5b828202905092915050565b6000612636826126c9565b9150612641836126c9565b9250828210156126545761265361278f565b5b828203905092915050565b600061266a826126a9565b9050919050565b60008115159050919050565b60007fffffffff0000000000000000000000000000000000000000000000000000000082169050919050565b600073ffffffffffffffffffffffffffffffffffffffff82169050919050565b6000819050919050565b82818337600083830152505050565b60005b838110156127005780820151818401526020810190506126e5565b8381111561270f576000848401525b50505050565b6000612720826126c9565b91507fffffffffffffffffffffffffffffffffffffffffffffffffffffffffffffffff8214156127535761275261278f565b5b600182019050919050565b6000612769826126c9565b9150612774836126c9565b925082612784576127836127be565b5b828206905092915050565b7f4e487b7100000000000000000000000000000000000000000000000000000000600052601160045260246000fd5b7f4e487b7100000000000000000000000000000000000000000000000000000000600052601260045260246000fd5b7f4e487b7100000000000000000000000000000000000000000000000000000000600052604160045260246000fd5b6000601f19601f8301169050919050565b6128368161265f565b811461284157600080fd5b50565b61284d81612671565b811461285857600080fd5b50565b6128648161267d565b811461286f57600080fd5b50565b61287b816126c9565b811461288657600080fd5b5056fea2646970667358221220eff4fa83cb7eda144232571425c580dea10c89d54afccac043b04f7f09ea637064736f6c63430008000033",
  "immutableReferences": {},
  "source": "pragma solidity ^0.8.0;\npragma experimental ABIEncoderV2;\n\nimport \"./IERC721.sol\";\nimport \"./Ownable.sol\";\nimport \"./IERC721Receiver.sol\";\n\ncontract KittycontractNFT is IERC721, Ownable {\n\n  event Birth(address _owner, uint256 _tokenID, uint256 momID, uint256 dadID, uint256 _genes);\n\n  string public constant _tokenName = \"WaterstoneKittys\";\n  string public constant _tokenSymbol = \"WSK\";\n\n  //used in external func supportsInterface() for contract interoperability\n  bytes4 private constant _INTERFACE_ID_ERC721 = 0x80ac58cd;\n  bytes4 private constant _INTERFACE_ID_ERC165 = 0x01ffc9a7;\n\n  //mapping of NFT balance for address\n  mapping(address => uint256) balances;\n  //mapping of specific NFT owned by address\n  mapping(uint256 => address) ownerOfNFT;\n  //mapping of NFT that gives approval access to another address\n  mapping(uint256 => address) public nftApprovals;\n  //owner address that grants full approval of assets to another addresses\n  mapping(address => mapping(address => bool)) private operatorApproval;\n  //approvalforAll[msg.sender][msg.receiver] = true;\n\n  //NFT creation limit\n  uint256 public constant gen0Limit = 10;\n\n  //NFT Gen0 limit\n  uint256 public gen0Counter;\n\n  struct Kittys {\n    address owner;\n    uint256 genes;\n    uint32 momID;\n    uint32 dadID;\n    uint16 generation;\n  }\n\n  Kittys[] kittys;\n\n  //ERC721 standard func that allows other contracts to check to see if OUR contract supports specific ERC standards\n  //INPUT a unique bytes4 hash (Ethereum sets these) to see if my contract returns true (supports) or false (does not support)\n  function supportsInterface(bytes4 _interfaceID) external view returns(bool){\n    if(_interfaceID == _INTERFACE_ID_ERC721 || _interfaceID == _INTERFACE_ID_ERC165){\n      return true;\n    }\n    else{\n      return false;\n    }\n  }\n\n  /**\n   * @dev Returns the number of tokens in ``owner``'s account.\n   */\n  function balanceOf(address owner) external view override returns (uint256 balance){\n    //we need it to return a balance of an owner --> mapping\n    return balances[owner]; //need to create a 'balances' mapping\n  }\n\n  /*\n   * @dev Returns the total number of tokens in circulation.\n   */\n  function totalSupply() public view override returns (uint256 total){\n    return kittys.length;\n  }\n\n  /*\n   * @dev Returns the name of the token.\n   */\n  function name() external pure override returns (string memory tokenName){\n    return _tokenName;\n  }\n\n  /*\n   * @dev Returns the symbol of the token.\n   */\n  function symbol() external pure override returns (string memory tokenSymbol){\n    return _tokenSymbol;\n  }\n\n  /**\n   * @dev Returns the owner of the `tokenId` token.\n   *\n   * Requirements:\n   *\n   * - `tokenId` must exist.\n   */\n  function ownerOf(uint256 tokenId) external view override returns (address owner){\n    return ownerOfNFT[tokenId];\n  }\n\n  //breed momNFT & dadNFT together --> first 8 integers come from dad, last 8 integers come from mom\n  function breedKittys(uint256 _momID, uint256 _dadID) public returns(uint256){\n    //check that msg.sender has ownership of _mom & _dad\n    require(owns(msg.sender, _momID));\n    require(owns(msg.sender, _dadID));\n\n    //call getKitty() to retrieve info about tokenID\n    (uint256 dadGenes,,,, uint256 dadGeneration) = getKitty(_dadID);\n    (uint256 momGenes,,,, uint256 momGeneration) = getKitty(_momID);\n    //mix DNA\n    uint256 kittenDNA = _mixDNA(momGenes, dadGenes);\n    //figure out the generation (ie dad is Gen0, mom is Gen5)\n    uint256 newGen = _findGen(momGeneration, dadGeneration);\n    //create new cat with new properties, give it to msg.sender\n    _createKitty(_momID, _dadID, newGen, kittenDNA, msg.sender);\n\n  }\n\n  function _findGen(uint256 _momGeneration, uint256 _dadGeneration) internal returns(uint256){\n    uint256 kidGeneration;\n    if(_dadGeneration > _momGeneration){\n      kidGeneration = _dadGeneration + 1;\n      kidGeneration = kidGeneration / 2;\n    }\n    if(_dadGeneration < _momGeneration){\n      kidGeneration = _momGeneration + 1;\n      kidGeneration = kidGeneration / 2;\n    }\n    else{\n      kidGeneration = _momGeneration + 1;\n    }\n    return kidGeneration;\n  }\n\n  /* @dev Transfers `tokenId` token from `msg.sender` to `to`.\n  *\n  * Requirements:\n  *\n  * - `to` cannot be the zero address.\n  * - `to` can not be the contract address.\n  * - `tokenId` token must be owned by `msg.sender`.\n  *\n  * Emits a {Transfer} event.\n  */\n  function transfer(address _to, uint256 _tokenID) external override {\n    require(_to != address(0), \"ERC721: Transfer is to the 0 address!\");\n    require(_to != address(this), \"ERC721: Transfer is not supported to this contract\");\n    require(owns(msg.sender, _tokenID));\n\n    _transfer(msg.sender, _to, _tokenID);\n\n  }\n\n  function _transfer(address _from, address _to, uint256 _tokenID) internal {\n    //increment balance of 'to' address + 1\n    balances[_to] += 1;\n\n    //Assign the NFT to the '_to' address\n    ownerOfNFT[_tokenID] = _to;\n\n    //if '_from' address is not the 0 address (aka not a newly minted coin being transferred)...\n    //decrement the balance of the '_from' address by - 1\n    if(_from != address(0)){\n      balances[_from] -= 1;\n      delete nftApprovals[_tokenID];\n    }\n\n    emit Transfer(_from, _to, _tokenID);\n  }\n\n  function owns(address _from, uint256 tokenID) internal view returns(bool){\n    return ownerOfNFT[tokenID] == _from;\n  }\n\n  function createKittyGen0(uint256 _genes) public returns(uint256){\n    //takes the genes that you send in from front send\n    //creates a new kitty for us with those specific genes\n    require(gen0Counter <= gen0Limit);\n\n    gen0Counter++;\n    //use _createKitty()\n    return _createKitty(0, 0, 0, _genes, msg.sender);\n  }\n\n  function _mixDNA(uint256 _momDNA, uint256 _dadDNA) internal returns(uint256){\n    //extract dad with 11 0's --> dadID / 100,000,000,000\n    //extract momID with momID % 10,000,000,000\n    uint256 dadiDSet = (_dadDNA / 100000000000);\n    uint256 momiDSet = (_momDNA % 100000000000);\n\n\n    uint256 newKittenDNA = dadiDSet * 100000000000;\n    newKittenDNA = newKittenDNA + momiDSet;\n    return newKittenDNA;\n\n    //_createKittyGen1(newKittenDNA, _momDNA, _dadDNA);\n  }\n\n  function _createKitty(uint256 _momID, uint256 _dadID, uint256 _generation, uint256 _genes, address _owner) internal returns(uint256){\n\n      Kittys memory _kitty = Kittys({\n\n        momID: uint32(_momID),\n        dadID: uint32(_dadID),\n        generation: uint16(_generation),\n        genes: uint256(_genes),\n        owner: _owner\n        });\n\n      kittys.push(_kitty);\n\n      uint256 newKittenID = kittys.length - 1;\n\n      _transfer(address(0), _owner, newKittenID);\n\n      emit Birth(_owner, newKittenID, _momID, _dadID, _genes);\n\n      return newKittenID;\n\n  }\n\n  function getKitty(uint256 tokenID) public view returns(uint, uint, uint, address, uint){\n\n    //Kittys[] storage _kittys = kittys[tokenID];\n\n      //genes = _kittys.genes;\n      //momID = _kittys.momID;\n      //dadID = _kittys.dadID;\n      //birthTime = _kittys.birthTime;\n      //generation = _kittys.generation;\n\n      Kittys storage kitties = kittys[tokenID];\n\n      return(\n        kitties.genes,\n        kitties.momID,\n        kitties.dadID,\n        kitties.owner,\n        kitties.generation\n        );\n  }\n\n    /// @notice Change or reaffirm the approved address for an NFT\n    /// @dev The zero address indicates there is no approved address.\n    /// Throws unless `msg.sender` is the current NFT owner, or an authorized\n    /// operator of the current owner.\n    /// @param _approved The new approved NFT controller\n    /// @param _tokenId The NFT to approve\n  function approve(address _approved, uint256 _tokenId) external override {\n    //takes a single NFT and gives approval to another address to move\n    require(_approved != address(0), \"ERC721: Transfer is to the 0 address!\");\n    require(owns(msg.sender, _tokenId));\n\n    _approve(_approved, _tokenId);\n\n    emit Approval(msg.sender, _approved, _tokenId);\n  }\n\n  function _approve(address _approved, uint256 _tokenId) internal {\n\n    nftApprovals[_tokenId] = _approved;\n\n  }\n\n  /// @notice Enable or disable approval for a third party (\"operator\") to manage\n  ///  all of `msg.sender`'s assets\n  /// @dev Emits the ApprovalForAll event. The contract MUST allow\n  ///  multiple operators per owner.\n  /// @param _operator Address to add to the set of authorized operators\n  /// @param _approved True if the operator is approved, false to revoke approval\n  function setApprovalForAll(address _operator, bool _approved) external override {\n\n    require(_operator != msg.sender, \"ERC721: Cannot *approve* your own address!\");\n\n    operatorApproval[msg.sender][_operator] = _approved;\n\n    emit ApprovalForAll(msg.sender, _operator, _approved);\n  }\n\n  /// @notice Query if an address is an authorized operator for another address\n  /// @param _owner The address that owns the NFTs\n  /// @param _operator The address that acts on behalf of the owner\n  /// @return True if `_operator` is an approved operator for `_owner`, false otherwise\n  function isApprovedForAll(address _owner, address _operator) external override view returns (bool){\n\n    if(operatorApproval[_owner][_operator] == true){\n      return true;\n    }\n    else {\n      return false;\n    }\n  }\n\n  /// @notice Get the approved address for a single NFT\n  /// @dev Throws if `_tokenId` is not a valid NFT.\n  /// @param _tokenId The NFT to find the approved address for\n  /// @return The approved address for this NFT, or the zero address if there is none\n  function getApproved(uint256 _tokenId) external override view returns (address){\n\n    if(_tokenId < kittys.length){\n        if(nftApprovals[_tokenId] == address(0)) {\n          return address(0);\n        }\n      else{\n        return nftApprovals[_tokenId];\n      }\n    }\n  }\n\n  /// @notice Transfer ownership of an NFT -- THE CALLER IS RESPONSIBLE\n  ///  TO CONFIRM THAT `_to` IS CAPABLE OF RECEIVING NFTS OR ELSE\n  ///  THEY MAY BE PERMANENTLY LOST\n  /// @dev Throws unless `msg.sender` is the current owner, an authorized\n  ///  operator, or the approved address for this NFT. Throws if `_from` is\n  ///  not the current owner. Throws if `_to` is the zero address. Throws if\n  ///  `_tokenId` is not a valid NFT.\n  /// @param _from The current owner of the NFT\n  /// @param _to The new owner\n  /// @param _tokenId The NFT to transfer\n  function transferFrom(address _from, address _to, uint256 _tokenId) external override {\n    require( owns(msg.sender, _tokenId) ||\n    operatorApproval[_from][msg.sender] == true ||\n    nftApprovals[_tokenId] == msg.sender, \"ERC721: Permission to transfer not granted from your address\");\n\n    require(ownerOfNFT[_tokenId] == _from);\n    require(_to != address(0), \"ERC721: Transfer cannot go to the 0 address!\");\n    require(_tokenId < kittys.length);\n\n\n    _transfer(_from, _to, _tokenId);\n\n  }\n\n  function safeTransferFrom(address _from, address _to, uint256 _tokenId) public virtual override {\n    safeTransferFrom(_from, _to, _tokenId, \"\");\n  }\n\n  function safeTransferFrom(address _from, address _to, uint256 _tokenId, bytes memory data) public virtual override {\n    require( owns(msg.sender, _tokenId) ||\n    operatorApproval[_from][msg.sender] == true ||\n    nftApprovals[_tokenId] == msg.sender, \"ERC721: Permission to transfer not granted from your address\");\n\n    require(ownerOfNFT[_tokenId] == _from);\n    require(_to != address(0), \"ERC721: Transfer cannot go to the 0 address!\");\n    require(_tokenId < kittys.length);\n\n    _safeTransfer(_from, _to, _tokenId, data);\n  }\n\n  //part of safeTransferFrom(), CHECKS to make sure token destination supports NFT\n  function _safeTransfer(address _from, address _to, uint256 _tokenId, bytes memory data) internal {\n    require( _checkERC721Support(_from, _to, _tokenId, data) );\n    _transfer(_from, _to, _tokenId);\n    //CHECK if created func '_checkERC721Support' returns boolean true\n  }\n\n  //calls _to contract to see if it supports ERC721 token standard\n  function _checkERC721Support(address _from, address _to, uint256 _tokenId, bytes memory data) internal returns(bool){\n    //call created func 'isContract' with param _to to check if it's a contract\n    if( !_isContract(_to) ){\n      //if NOT a contract, we know it's a wallet --> ERC wallets can support NFTs\n      return true;\n    }\n\n    //if it IS a contract, call onERC721Received\n      //(standard func that contracts must have if they want to\n        //be interoperable with NFTs)\n    //CHECK RETURN VALUE of onERC721Received ^^\n\n    //created an interface contract to make a call to an external contract\n      //how do call an external contract if you only know the address & 1 function\n      //.. make an interface contract.. 'IERC721Receiver'\n    //create a bytes variable that captures value of external call and tests if it's true\n    else{\n      bytes4 returnData = IERC721Receiver(_to).onERC721Received(msg.sender, _from, _tokenId, data);\n\n      if(returnData == bytes4(keccak256(\"onERC721Received(address,address,uint256,bytes)\"))){\n        return true;\n      }\n      else{\n        return false;\n      }\n    }\n  }\n\n  function _isContract(address _to) view internal returns(bool){\n    //if it calls a wallet, code size = 0... if it's a contract, code size > 1\n    uint32 size;\n    assembly{\n      size := extcodesize(_to)\n    }\n    return size > 0;\n  }\n}\n",
  "sourcePath": "/Users/williamlamarche/Desktop/Blockchain-Development/ETHdApp/contracts/KittycontractNFT.sol",
  "compiler": {
    "name": "solc",
    "version": "0.8.0+commit.c7dfd78e.Emscripten.clang"
  },
  "schemaVersion": "3.4.1",
  "updatedAt": "2021-11-10T21:56:37.739Z",
  "devdoc": {
    "kind": "dev",
    "methods": {
      "approve(address,uint256)": {
        "details": "The zero address indicates there is no approved address. Throws unless `msg.sender` is the current NFT owner, or an authorized operator of the current owner.",
        "params": {
          "_approved": "The new approved NFT controller",
          "_tokenId": "The NFT to approve"
        }
      },
      "balanceOf(address)": {
        "details": "Returns the number of tokens in ``owner``'s account."
      },
      "getApproved(uint256)": {
        "details": "Throws if `_tokenId` is not a valid NFT.",
        "params": {
          "_tokenId": "The NFT to find the approved address for"
        },
        "returns": {
          "_0": "The approved address for this NFT, or the zero address if there is none"
        }
      },
      "isApprovedForAll(address,address)": {
        "params": {
          "_operator": "The address that acts on behalf of the owner",
          "_owner": "The address that owns the NFTs"
        },
        "returns": {
          "_0": "True if `_operator` is an approved operator for `_owner`, false otherwise"
        }
      },
      "owner()": {
        "details": "Returns the address of the current owner."
      },
      "ownerOf(uint256)": {
        "details": "Returns the owner of the `tokenId` token. Requirements: - `tokenId` must exist."
      },
      "renounceOwnership()": {
        "details": "Leaves the contract without owner. It will not be possible to call `onlyOwner` functions anymore. Can only be called by the current owner. NOTE: Renouncing ownership will leave the contract without an owner, thereby removing any functionality that is only available to the owner."
      },
      "safeTransferFrom(address,address,uint256)": {
        "details": "This works identically to the other function with an extra data parameter,  except this function just sets data to \"\".",
        "params": {
          "_from": "The current owner of the NFT",
          "_to": "The new owner",
          "_tokenId": "The NFT to transfer"
        }
      },
      "safeTransferFrom(address,address,uint256,bytes)": {
        "details": "Throws unless `msg.sender` is the current owner, an authorized  operator, or the approved address for this NFT. Throws if `_from` is  not the current owner. Throws if `_to` is the zero address. Throws if  `_tokenId` is not a valid NFT. When transfer is complete, this function  checks if `_to` is a smart contract (code size > 0). If so, it calls  `onERC721Received` on `_to` and throws if the return value is not  `bytes4(keccak256(\"onERC721Received(address,address,uint256,bytes)\"))`.",
        "params": {
          "_from": "The current owner of the NFT",
          "_to": "The new owner",
          "_tokenId": "The NFT to transfer",
          "data": "Additional data with no specified format, sent in call to `_to`"
        }
      },
      "setApprovalForAll(address,bool)": {
        "details": "Emits the ApprovalForAll event. The contract MUST allow  multiple operators per owner.",
        "params": {
          "_approved": "True if the operator is approved, false to revoke approval",
          "_operator": "Address to add to the set of authorized operators"
        }
      },
      "transferFrom(address,address,uint256)": {
        "details": "Throws unless `msg.sender` is the current owner, an authorized  operator, or the approved address for this NFT. Throws if `_from` is  not the current owner. Throws if `_to` is the zero address. Throws if  `_tokenId` is not a valid NFT.",
        "params": {
          "_from": "The current owner of the NFT",
          "_to": "The new owner",
          "_tokenId": "The NFT to transfer"
        }
      },
      "transferOwnership(address)": {
        "details": "Transfers ownership of the contract to a new account (`newOwner`). Can only be called by the current owner."
      }
    },
    "version": 1
  },
  "userdoc": {
    "kind": "user",
    "methods": {
      "approve(address,uint256)": {
        "notice": "Change or reaffirm the approved address for an NFT"
      },
      "getApproved(uint256)": {
        "notice": "Get the approved address for a single NFT"
      },
      "isApprovedForAll(address,address)": {
        "notice": "Query if an address is an authorized operator for another address"
      },
      "safeTransferFrom(address,address,uint256)": {
        "notice": "Transfers the ownership of an NFT from one address to another address"
      },
      "safeTransferFrom(address,address,uint256,bytes)": {
        "notice": "Transfers the ownership of an NFT from one address to another address"
      },
      "setApprovalForAll(address,bool)": {
        "notice": "Enable or disable approval for a third party (\"operator\") to manage  all of `msg.sender`'s assets"
      },
      "transferFrom(address,address,uint256)": {
        "notice": "Transfer ownership of an NFT -- THE CALLER IS RESPONSIBLE  TO CONFIRM THAT `_to` IS CAPABLE OF RECEIVING NFTS OR ELSE  THEY MAY BE PERMANENTLY LOST"
      }
    },
    "version": 1
  }
}