{
  "contractName": "KittycontractNFT",
  "abi": [
    {
      "anonymous": false,
      "inputs": [
        {
          "indexed": true,
          "internalType": "address",
          "name": "owner",
          "type": "address"
        },
        {
          "indexed": true,
          "internalType": "address",
          "name": "approved",
          "type": "address"
        },
        {
          "indexed": true,
          "internalType": "uint256",
          "name": "tokenId",
          "type": "uint256"
        }
      ],
      "name": "Approval",
      "type": "event"
    },
    {
      "anonymous": false,
      "inputs": [
        {
          "indexed": true,
          "internalType": "address",
          "name": "owner",
          "type": "address"
        },
        {
          "indexed": true,
          "internalType": "address",
          "name": "operator",
          "type": "address"
        },
        {
          "indexed": false,
          "internalType": "bool",
          "name": "approved",
          "type": "bool"
        }
      ],
      "name": "ApprovalForAll",
      "type": "event"
    },
    {
      "anonymous": false,
      "inputs": [
        {
          "indexed": false,
          "internalType": "address",
          "name": "_owner",
          "type": "address"
        },
        {
          "indexed": false,
          "internalType": "uint256",
          "name": "_tokenID",
          "type": "uint256"
        },
        {
          "indexed": false,
          "internalType": "uint256",
          "name": "momID",
          "type": "uint256"
        },
        {
          "indexed": false,
          "internalType": "uint256",
          "name": "dadID",
          "type": "uint256"
        },
        {
          "indexed": false,
          "internalType": "uint256",
          "name": "_genes",
          "type": "uint256"
        }
      ],
      "name": "Birth",
      "type": "event"
    },
    {
      "anonymous": false,
      "inputs": [
        {
          "indexed": true,
          "internalType": "address",
          "name": "previousOwner",
          "type": "address"
        },
        {
          "indexed": true,
          "internalType": "address",
          "name": "newOwner",
          "type": "address"
        }
      ],
      "name": "OwnershipTransferred",
      "type": "event"
    },
    {
      "anonymous": false,
      "inputs": [
        {
          "indexed": true,
          "internalType": "address",
          "name": "from",
          "type": "address"
        },
        {
          "indexed": true,
          "internalType": "address",
          "name": "to",
          "type": "address"
        },
        {
          "indexed": true,
          "internalType": "uint256",
          "name": "tokenId",
          "type": "uint256"
        }
      ],
      "name": "Transfer",
      "type": "event"
    },
    {
      "inputs": [],
      "name": "_tokenName",
      "outputs": [
        {
          "internalType": "string",
          "name": "",
          "type": "string"
        }
      ],
      "stateMutability": "view",
      "type": "function"
    },
    {
      "inputs": [],
      "name": "_tokenSymbol",
      "outputs": [
        {
          "internalType": "string",
          "name": "",
          "type": "string"
        }
      ],
      "stateMutability": "view",
      "type": "function"
    },
    {
      "inputs": [],
      "name": "gen0Counter",
      "outputs": [
        {
          "internalType": "uint256",
          "name": "",
          "type": "uint256"
        }
      ],
      "stateMutability": "view",
      "type": "function"
    },
    {
      "inputs": [],
      "name": "gen0Limit",
      "outputs": [
        {
          "internalType": "uint256",
          "name": "",
          "type": "uint256"
        }
      ],
      "stateMutability": "view",
      "type": "function"
    },
    {
      "inputs": [
        {
          "internalType": "uint256",
          "name": "",
          "type": "uint256"
        }
      ],
      "name": "nftApprovals",
      "outputs": [
        {
          "internalType": "address",
          "name": "",
          "type": "address"
        }
      ],
      "stateMutability": "view",
      "type": "function"
    },
    {
      "inputs": [],
      "name": "owner",
      "outputs": [
        {
          "internalType": "address",
          "name": "",
          "type": "address"
        }
      ],
      "stateMutability": "view",
      "type": "function"
    },
    {
      "inputs": [],
      "name": "renounceOwnership",
      "outputs": [],
      "stateMutability": "nonpayable",
      "type": "function"
    },
    {
      "inputs": [
        {
          "internalType": "address",
          "name": "newOwner",
          "type": "address"
        }
      ],
      "name": "transferOwnership",
      "outputs": [],
      "stateMutability": "nonpayable",
      "type": "function"
    },
    {
      "inputs": [
        {
          "internalType": "bytes4",
          "name": "_interfaceID",
          "type": "bytes4"
        }
      ],
      "name": "supportsInterface",
      "outputs": [
        {
          "internalType": "bool",
          "name": "",
          "type": "bool"
        }
      ],
      "stateMutability": "view",
      "type": "function"
    },
    {
      "inputs": [
        {
          "internalType": "address",
          "name": "owner",
          "type": "address"
        }
      ],
      "name": "balanceOf",
      "outputs": [
        {
          "internalType": "uint256",
          "name": "balance",
          "type": "uint256"
        }
      ],
      "stateMutability": "view",
      "type": "function"
    },
    {
      "inputs": [],
      "name": "totalSupply",
      "outputs": [
        {
          "internalType": "uint256",
          "name": "total",
          "type": "uint256"
        }
      ],
      "stateMutability": "view",
      "type": "function"
    },
    {
      "inputs": [],
      "name": "name",
      "outputs": [
        {
          "internalType": "string",
          "name": "tokenName",
          "type": "string"
        }
      ],
      "stateMutability": "pure",
      "type": "function"
    },
    {
      "inputs": [],
      "name": "symbol",
      "outputs": [
        {
          "internalType": "string",
          "name": "tokenSymbol",
          "type": "string"
        }
      ],
      "stateMutability": "pure",
      "type": "function"
    },
    {
      "inputs": [
        {
          "internalType": "uint256",
          "name": "tokenId",
          "type": "uint256"
        }
      ],
      "name": "ownerOf",
      "outputs": [
        {
          "internalType": "address",
          "name": "owner",
          "type": "address"
        }
      ],
      "stateMutability": "view",
      "type": "function"
    },
    {
      "inputs": [
        {
          "internalType": "address",
          "name": "_to",
          "type": "address"
        },
        {
          "internalType": "uint256",
          "name": "_tokenID",
          "type": "uint256"
        }
      ],
      "name": "transfer",
      "outputs": [],
      "stateMutability": "nonpayable",
      "type": "function"
    },
    {
      "inputs": [
        {
          "internalType": "uint256",
          "name": "_genes",
          "type": "uint256"
        }
      ],
      "name": "createKittyGen0",
      "outputs": [
        {
          "internalType": "uint256",
          "name": "",
          "type": "uint256"
        }
      ],
      "stateMutability": "nonpayable",
      "type": "function"
    },
    {
      "inputs": [
        {
          "internalType": "uint256",
          "name": "tokenID",
          "type": "uint256"
        }
      ],
      "name": "getKitty",
      "outputs": [
        {
          "internalType": "uint256",
          "name": "",
          "type": "uint256"
        },
        {
          "internalType": "uint256",
          "name": "",
          "type": "uint256"
        },
        {
          "internalType": "uint256",
          "name": "",
          "type": "uint256"
        },
        {
          "internalType": "address",
          "name": "",
          "type": "address"
        },
        {
          "internalType": "uint256",
          "name": "",
          "type": "uint256"
        }
      ],
      "stateMutability": "view",
      "type": "function"
    },
    {
      "inputs": [
        {
          "internalType": "address",
          "name": "_approved",
          "type": "address"
        },
        {
          "internalType": "uint256",
          "name": "_tokenId",
          "type": "uint256"
        }
      ],
      "name": "approve",
      "outputs": [],
      "stateMutability": "nonpayable",
      "type": "function"
    },
    {
      "inputs": [
        {
          "internalType": "address",
          "name": "_operator",
          "type": "address"
        },
        {
          "internalType": "bool",
          "name": "_approved",
          "type": "bool"
        }
      ],
      "name": "setApprovalForAll",
      "outputs": [],
      "stateMutability": "nonpayable",
      "type": "function"
    },
    {
      "inputs": [
        {
          "internalType": "address",
          "name": "_owner",
          "type": "address"
        },
        {
          "internalType": "address",
          "name": "_operator",
          "type": "address"
        }
      ],
      "name": "isApprovedForAll",
      "outputs": [
        {
          "internalType": "bool",
          "name": "",
          "type": "bool"
        }
      ],
      "stateMutability": "view",
      "type": "function"
    },
    {
      "inputs": [
        {
          "internalType": "uint256",
          "name": "_tokenId",
          "type": "uint256"
        }
      ],
      "name": "getApproved",
      "outputs": [
        {
          "internalType": "address",
          "name": "",
          "type": "address"
        }
      ],
      "stateMutability": "view",
      "type": "function"
    },
    {
      "inputs": [
        {
          "internalType": "address",
          "name": "_from",
          "type": "address"
        },
        {
          "internalType": "address",
          "name": "_to",
          "type": "address"
        },
        {
          "internalType": "uint256",
          "name": "_tokenId",
          "type": "uint256"
        }
      ],
      "name": "transferFrom",
      "outputs": [],
      "stateMutability": "nonpayable",
      "type": "function"
    },
    {
      "inputs": [
        {
          "internalType": "address",
          "name": "_from",
          "type": "address"
        },
        {
          "internalType": "address",
          "name": "_to",
          "type": "address"
        },
        {
          "internalType": "uint256",
          "name": "_tokenId",
          "type": "uint256"
        }
      ],
      "name": "safeTransferFrom",
      "outputs": [],
      "stateMutability": "nonpayable",
      "type": "function"
    },
    {
      "inputs": [
        {
          "internalType": "address",
          "name": "_from",
          "type": "address"
        },
        {
          "internalType": "address",
          "name": "_to",
          "type": "address"
        },
        {
          "internalType": "uint256",
          "name": "_tokenId",
          "type": "uint256"
        },
        {
          "internalType": "bytes",
          "name": "data",
          "type": "bytes"
        }
      ],
      "name": "safeTransferFrom",
      "outputs": [],
      "stateMutability": "nonpayable",
      "type": "function"
    }
  ],
  "bytecode": "0x608060405234801561001057600080fd5b5060006100216100c460201b60201c565b9050806000806101000a81548173ffffffffffffffffffffffffffffffffffffffff021916908373ffffffffffffffffffffffffffffffffffffffff1602179055508073ffffffffffffffffffffffffffffffffffffffff16600073ffffffffffffffffffffffffffffffffffffffff167f8be0079c531659141344cd1fd0a4f28419497f9722a3daafe3b4186f6b6457e060405160405180910390a3506100cc565b600033905090565b612600806100db6000396000f3fe608060405234801561001057600080fd5b50600436106101585760003560e01c806395d89b41116100c3578063e515a4d11161007c578063e515a4d1146103c5578063e985e9c5146103e3578063e98b7f4d14610413578063ecf35cca14610447578063ef5e94aa14610465578063f2fde38b1461048357610158565b806395d89b41146103055780639f0c812514610323578063a22cb46514610341578063a9059cbb1461035d578063b88d4fde14610379578063d5a776ca1461039557610158565b806342842e0e1161011557806342842e0e146102315780636352211e1461024d57806370a082311461027d578063715018a6146102ad5780638369a08b146102b75780638da5cb5b146102e757610158565b806301ffc9a71461015d57806306fdde031461018d578063081812fc146101ab578063095ea7b3146101db57806318160ddd146101f757806323b872dd14610215575b600080fd5b61017760048036038101906101729190611cda565b61049f565b6040516101849190612152565b60405180910390f35b610195610550565b6040516101a2919061216d565b60405180910390f35b6101c560048036038101906101c09190611d2c565b61058d565b6040516101d29190612098565b60405180910390f35b6101f560048036038101906101f09190611c9e565b61064e565b005b6101ff61073a565b60405161020c919061226f565b60405180910390f35b61022f600480360381019061022a9190611b98565b610747565b005b61024b60048036038101906102469190611b98565b61098d565b005b61026760048036038101906102629190611d2c565b6109ad565b6040516102749190612098565b60405180910390f35b61029760048036038101906102929190611b33565b6109ea565b6040516102a4919061226f565b60405180910390f35b6102b5610a33565b005b6102d160048036038101906102cc9190611d2c565b610b6d565b6040516102de9190612098565b60405180910390f35b6102ef610ba0565b6040516102fc9190612098565b60405180910390f35b61030d610bc9565b60405161031a919061216d565b60405180910390f35b61032b610c06565b604051610338919061216d565b60405180910390f35b61035b60048036038101906103569190611c62565b610c3f565b005b61037760048036038101906103729190611c9e565b610dab565b005b610393600480360381019061038e9190611be7565b610eac565b005b6103af60048036038101906103aa9190611d2c565b6110f4565b6040516103bc919061226f565b60405180910390f35b6103cd611134565b6040516103da919061226f565b60405180910390f35b6103fd60048036038101906103f89190611b5c565b611139565b60405161040a9190612152565b60405180910390f35b61042d60048036038101906104289190611d2c565b6111e5565b60405161043e95949392919061228a565b60405180910390f35b61044f6112cc565b60405161045c919061216d565b60405180910390f35b61046d611305565b60405161047a919061226f565b60405180910390f35b61049d60048036038101906104989190611b33565b61130b565b005b60006380ac58cd60e01b7bffffffffffffffffffffffffffffffffffffffffffffffffffffffff1916827bffffffffffffffffffffffffffffffffffffffffffffffffffffffff1916148061053857506301ffc9a760e01b7bffffffffffffffffffffffffffffffffffffffffffffffffffffffff1916827bffffffffffffffffffffffffffffffffffffffffffffffffffffffff1916145b15610546576001905061054b565b600090505b919050565b60606040518060400160405280601081526020017f576174657273746f6e654b697474797300000000000000000000000000000000815250905090565b600060068054905082101561064857600073ffffffffffffffffffffffffffffffffffffffff166003600084815260200190815260200160002060009054906101000a900473ffffffffffffffffffffffffffffffffffffffff1673ffffffffffffffffffffffffffffffffffffffff16141561060d5760009050610649565b6003600083815260200190815260200160002060009054906101000a900473ffffffffffffffffffffffffffffffffffffffff169050610649565b5b919050565b600073ffffffffffffffffffffffffffffffffffffffff168273ffffffffffffffffffffffffffffffffffffffff1614156106be576040517f08c379a00000000000000000000000000000000000000000000000000000000081526004016106b59061220f565b60405180910390fd5b6106c833826114b4565b6106d157600080fd5b6106db8282611520565b808273ffffffffffffffffffffffffffffffffffffffff163373ffffffffffffffffffffffffffffffffffffffff167f8c5be1e5ebec7d5bd14f71427d1e84f3dd0314c0f7b2291e5b200ac8c7c3b92560405160405180910390a45050565b6000600680549050905090565b61075133826114b4565b806107e9575060011515600460008573ffffffffffffffffffffffffffffffffffffffff1673ffffffffffffffffffffffffffffffffffffffff16815260200190815260200160002060003373ffffffffffffffffffffffffffffffffffffffff1673ffffffffffffffffffffffffffffffffffffffff16815260200190815260200160002060009054906101000a900460ff161515145b8061085257503373ffffffffffffffffffffffffffffffffffffffff166003600083815260200190815260200160002060009054906101000a900473ffffffffffffffffffffffffffffffffffffffff1673ffffffffffffffffffffffffffffffffffffffff16145b610891576040517f08c379a0000000000000000000000000000000000000000000000000000000008152600401610888906121cf565b60405180910390fd5b8273ffffffffffffffffffffffffffffffffffffffff166002600083815260200190815260200160002060009054906101000a900473ffffffffffffffffffffffffffffffffffffffff1673ffffffffffffffffffffffffffffffffffffffff16146108fc57600080fd5b600073ffffffffffffffffffffffffffffffffffffffff168273ffffffffffffffffffffffffffffffffffffffff16141561096c576040517f08c379a00000000000000000000000000000000000000000000000000000000081526004016109639061224f565b60405180910390fd5b600680549050811061097d57600080fd5b610988838383611576565b505050565b6109a883838360405180602001604052806000815250610eac565b505050565b60006002600083815260200190815260200160002060009054906101000a900473ffffffffffffffffffffffffffffffffffffffff169050919050565b6000600160008373ffffffffffffffffffffffffffffffffffffffff1673ffffffffffffffffffffffffffffffffffffffff168152602001908152602001600020549050919050565b610a3b61173f565b73ffffffffffffffffffffffffffffffffffffffff16610a59610ba0565b73ffffffffffffffffffffffffffffffffffffffff1614610aaf576040517f08c379a0000000000000000000000000000000000000000000000000000000008152600401610aa6906121ef565b60405180910390fd5b600073ffffffffffffffffffffffffffffffffffffffff1660008054906101000a900473ffffffffffffffffffffffffffffffffffffffff1673ffffffffffffffffffffffffffffffffffffffff167f8be0079c531659141344cd1fd0a4f28419497f9722a3daafe3b4186f6b6457e060405160405180910390a360008060006101000a81548173ffffffffffffffffffffffffffffffffffffffff021916908373ffffffffffffffffffffffffffffffffffffffff160217905550565b60036020528060005260406000206000915054906101000a900473ffffffffffffffffffffffffffffffffffffffff1681565b60008060009054906101000a900473ffffffffffffffffffffffffffffffffffffffff16905090565b60606040518060400160405280600381526020017f57534b0000000000000000000000000000000000000000000000000000000000815250905090565b6040518060400160405280601081526020017f576174657273746f6e654b69747479730000000000000000000000000000000081525081565b3373ffffffffffffffffffffffffffffffffffffffff168273ffffffffffffffffffffffffffffffffffffffff161415610cae576040517f08c379a0000000000000000000000000000000000000000000000000000000008152600401610ca59061222f565b60405180910390fd5b80600460003373ffffffffffffffffffffffffffffffffffffffff1673ffffffffffffffffffffffffffffffffffffffff16815260200190815260200160002060008473ffffffffffffffffffffffffffffffffffffffff1673ffffffffffffffffffffffffffffffffffffffff16815260200190815260200160002060006101000a81548160ff0219169083151502179055508173ffffffffffffffffffffffffffffffffffffffff163373ffffffffffffffffffffffffffffffffffffffff167f17307eab39ab6107e8899845ad3d59bd9653f200f220920489ca2b5937696c3183604051610d9f9190612152565b60405180910390a35050565b600073ffffffffffffffffffffffffffffffffffffffff168273ffffffffffffffffffffffffffffffffffffffff161415610e1b576040517f08c379a0000000000000000000000000000000000000000000000000000000008152600401610e129061220f565b60405180910390fd5b3073ffffffffffffffffffffffffffffffffffffffff168273ffffffffffffffffffffffffffffffffffffffff161415610e8a576040517f08c379a0000000000000000000000000000000000000000000000000000000008152600401610e819061218f565b60405180910390fd5b610e9433826114b4565b610e9d57600080fd5b610ea8338383611576565b5050565b610eb633836114b4565b80610f4e575060011515600460008673ffffffffffffffffffffffffffffffffffffffff1673ffffffffffffffffffffffffffffffffffffffff16815260200190815260200160002060003373ffffffffffffffffffffffffffffffffffffffff1673ffffffffffffffffffffffffffffffffffffffff16815260200190815260200160002060009054906101000a900460ff161515145b80610fb757503373ffffffffffffffffffffffffffffffffffffffff166003600084815260200190815260200160002060009054906101000a900473ffffffffffffffffffffffffffffffffffffffff1673ffffffffffffffffffffffffffffffffffffffff16145b610ff6576040517f08c379a0000000000000000000000000000000000000000000000000000000008152600401610fed906121cf565b60405180910390fd5b8373ffffffffffffffffffffffffffffffffffffffff166002600084815260200190815260200160002060009054906101000a900473ffffffffffffffffffffffffffffffffffffffff1673ffffffffffffffffffffffffffffffffffffffff161461106157600080fd5b600073ffffffffffffffffffffffffffffffffffffffff168373ffffffffffffffffffffffffffffffffffffffff1614156110d1576040517f08c379a00000000000000000000000000000000000000000000000000000000081526004016110c89061224f565b60405180910390fd5b60068054905082106110e257600080fd5b6110ee84848484611747565b50505050565b6000600a600554111561110657600080fd5b60056000815480929190611119906124b6565b919050555061112d6000806000853361176d565b9050919050565b600a81565b600060011515600460008573ffffffffffffffffffffffffffffffffffffffff1673ffffffffffffffffffffffffffffffffffffffff16815260200190815260200160002060008473ffffffffffffffffffffffffffffffffffffffff1673ffffffffffffffffffffffffffffffffffffffff16815260200190815260200160002060009054906101000a900460ff16151514156111da57600190506111df565b600090505b92915050565b60008060008060008060068781548110611228577f4e487b7100000000000000000000000000000000000000000000000000000000600052603260045260246000fd5b9060005260206000209060030201905080600101548160020160009054906101000a900463ffffffff168260020160049054906101000a900463ffffffff168360000160009054906101000a900473ffffffffffffffffffffffffffffffffffffffff168460020160089054906101000a900461ffff168363ffffffff1693508263ffffffff1692508061ffff169050955095509550955095505091939590929450565b6040518060400160405280600381526020017f57534b000000000000000000000000000000000000000000000000000000000081525081565b60055481565b61131361173f565b73ffffffffffffffffffffffffffffffffffffffff16611331610ba0565b73ffffffffffffffffffffffffffffffffffffffff1614611387576040517f08c379a000000000000000000000000000000000000000000000000000000000815260040161137e906121ef565b60405180910390fd5b600073ffffffffffffffffffffffffffffffffffffffff168173ffffffffffffffffffffffffffffffffffffffff1614156113f7576040517f08c379a00000000000000000000000000000000000000000000000000000000081526004016113ee906121af565b60405180910390fd5b8073ffffffffffffffffffffffffffffffffffffffff1660008054906101000a900473ffffffffffffffffffffffffffffffffffffffff1673ffffffffffffffffffffffffffffffffffffffff167f8be0079c531659141344cd1fd0a4f28419497f9722a3daafe3b4186f6b6457e060405160405180910390a3806000806101000a81548173ffffffffffffffffffffffffffffffffffffffff021916908373ffffffffffffffffffffffffffffffffffffffff16021790555050565b60008273ffffffffffffffffffffffffffffffffffffffff166002600084815260200190815260200160002060009054906101000a900473ffffffffffffffffffffffffffffffffffffffff1673ffffffffffffffffffffffffffffffffffffffff1614905092915050565b816003600083815260200190815260200160002060006101000a81548173ffffffffffffffffffffffffffffffffffffffff021916908373ffffffffffffffffffffffffffffffffffffffff1602179055505050565b60018060008473ffffffffffffffffffffffffffffffffffffffff1673ffffffffffffffffffffffffffffffffffffffff16815260200190815260200160002060008282546115c59190612376565b92505081905550816002600083815260200190815260200160002060006101000a81548173ffffffffffffffffffffffffffffffffffffffff021916908373ffffffffffffffffffffffffffffffffffffffff160217905550600073ffffffffffffffffffffffffffffffffffffffff168373ffffffffffffffffffffffffffffffffffffffff16146116df5760018060008573ffffffffffffffffffffffffffffffffffffffff1673ffffffffffffffffffffffffffffffffffffffff16815260200190815260200160002060008282546116a191906123cc565b925050819055506003600082815260200190815260200160002060006101000a81549073ffffffffffffffffffffffffffffffffffffffff02191690555b808273ffffffffffffffffffffffffffffffffffffffff168473ffffffffffffffffffffffffffffffffffffffff167fddf252ad1be2c89b69c2b068fc378daa952ba7f163c4a11628f55a4df523b3ef60405160405180910390a4505050565b600033905090565b6117538484848461191e565b61175c57600080fd5b611767848484611576565b50505050565b6000806040518060a001604052808473ffffffffffffffffffffffffffffffffffffffff1681526020018581526020018863ffffffff1681526020018763ffffffff1681526020018661ffff168152509050600681908060018154018082558091505060019003906000526020600020906003020160009091909190915060008201518160000160006101000a81548173ffffffffffffffffffffffffffffffffffffffff021916908373ffffffffffffffffffffffffffffffffffffffff1602179055506020820151816001015560408201518160020160006101000a81548163ffffffff021916908363ffffffff16021790555060608201518160020160046101000a81548163ffffffff021916908363ffffffff16021790555060808201518160020160086101000a81548161ffff021916908361ffff1602179055505050600060016006805490506118c391906123cc565b90506118d160008583611576565b7f0a5311bd2a6608f08a180df2ee7c5946819a649b204b554bb8e39825b2c50ad584828a8a896040516119089594939291906120ff565b60405180910390a1809250505095945050505050565b600061192984611a49565b6119365760019050611a41565b60008473ffffffffffffffffffffffffffffffffffffffff1663150b7a02338887876040518563ffffffff1660e01b815260040161197794939291906120b3565b602060405180830381600087803b15801561199157600080fd5b505af11580156119a5573d6000803e3d6000fd5b505050506040513d601f19601f820116820180604052508101906119c99190611d03565b90507f150b7a023d4804d13e8c85fb27262cb750cf6ba9f9dd3bb30d90f482ceeb4b1f7bffffffffffffffffffffffffffffffffffffffffffffffffffffffff1916817bffffffffffffffffffffffffffffffffffffffffffffffffffffffff19161415611a3b576001915050611a41565b60009150505b949350505050565b600080823b905060008163ffffffff1611915050919050565b6000611a75611a708461230e565b6122dd565b905082815260208101848484011115611a8d57600080fd5b611a98848285612474565b509392505050565b600081359050611aaf8161256e565b92915050565b600081359050611ac481612585565b92915050565b600081359050611ad98161259c565b92915050565b600081519050611aee8161259c565b92915050565b600082601f830112611b0557600080fd5b8135611b15848260208601611a62565b91505092915050565b600081359050611b2d816125b3565b92915050565b600060208284031215611b4557600080fd5b6000611b5384828501611aa0565b91505092915050565b60008060408385031215611b6f57600080fd5b6000611b7d85828601611aa0565b9250506020611b8e85828601611aa0565b9150509250929050565b600080600060608486031215611bad57600080fd5b6000611bbb86828701611aa0565b9350506020611bcc86828701611aa0565b9250506040611bdd86828701611b1e565b9150509250925092565b60008060008060808587031215611bfd57600080fd5b6000611c0b87828801611aa0565b9450506020611c1c87828801611aa0565b9350506040611c2d87828801611b1e565b925050606085013567ffffffffffffffff811115611c4a57600080fd5b611c5687828801611af4565b91505092959194509250565b60008060408385031215611c7557600080fd5b6000611c8385828601611aa0565b9250506020611c9485828601611ab5565b9150509250929050565b60008060408385031215611cb157600080fd5b6000611cbf85828601611aa0565b9250506020611cd085828601611b1e565b9150509250929050565b600060208284031215611cec57600080fd5b6000611cfa84828501611aca565b91505092915050565b600060208284031215611d1557600080fd5b6000611d2384828501611adf565b91505092915050565b600060208284031215611d3e57600080fd5b6000611d4c84828501611b1e565b91505092915050565b611d5e81612400565b82525050565b611d6d81612412565b82525050565b6000611d7e8261233e565b611d888185612354565b9350611d98818560208601612483565b611da18161255d565b840191505092915050565b6000611db782612349565b611dc18185612365565b9350611dd1818560208601612483565b611dda8161255d565b840191505092915050565b6000611df2603283612365565b91507f4552433732313a205472616e73666572206973206e6f7420737570706f72746560008301527f6420746f207468697320636f6e747261637400000000000000000000000000006020830152604082019050919050565b6000611e58602683612365565b91507f4f776e61626c653a206e6577206f776e657220697320746865207a65726f206160008301527f64647265737300000000000000000000000000000000000000000000000000006020830152604082019050919050565b6000611ebe603c83612365565b91507f4552433732313a205065726d697373696f6e20746f207472616e73666572206e60008301527f6f74206772616e7465642066726f6d20796f75722061646472657373000000006020830152604082019050919050565b6000611f24602083612365565b91507f4f776e61626c653a2063616c6c6572206973206e6f7420746865206f776e65726000830152602082019050919050565b6000611f64602583612365565b91507f4552433732313a205472616e7366657220697320746f2074686520302061646460008301527f72657373210000000000000000000000000000000000000000000000000000006020830152604082019050919050565b6000611fca602a83612365565b91507f4552433732313a2043616e6e6f74202a617070726f76652a20796f7572206f7760008301527f6e206164647265737321000000000000000000000000000000000000000000006020830152604082019050919050565b6000612030602c83612365565b91507f4552433732313a205472616e736665722063616e6e6f7420676f20746f20746860008301527f65203020616464726573732100000000000000000000000000000000000000006020830152604082019050919050565b6120928161246a565b82525050565b60006020820190506120ad6000830184611d55565b92915050565b60006080820190506120c86000830187611d55565b6120d56020830186611d55565b6120e26040830185612089565b81810360608301526120f48184611d73565b905095945050505050565b600060a0820190506121146000830188611d55565b6121216020830187612089565b61212e6040830186612089565b61213b6060830185612089565b6121486080830184612089565b9695505050505050565b60006020820190506121676000830184611d64565b92915050565b600060208201905081810360008301526121878184611dac565b905092915050565b600060208201905081810360008301526121a881611de5565b9050919050565b600060208201905081810360008301526121c881611e4b565b9050919050565b600060208201905081810360008301526121e881611eb1565b9050919050565b6000602082019050818103600083015261220881611f17565b9050919050565b6000602082019050818103600083015261222881611f57565b9050919050565b6000602082019050818103600083015261224881611fbd565b9050919050565b6000602082019050818103600083015261226881612023565b9050919050565b60006020820190506122846000830184612089565b92915050565b600060a08201905061229f6000830188612089565b6122ac6020830187612089565b6122b96040830186612089565b6122c66060830185611d55565b6122d36080830184612089565b9695505050505050565b6000604051905081810181811067ffffffffffffffff821117156123045761230361252e565b5b8060405250919050565b600067ffffffffffffffff8211156123295761232861252e565b5b601f19601f8301169050602081019050919050565b600081519050919050565b600081519050919050565b600082825260208201905092915050565b600082825260208201905092915050565b60006123818261246a565b915061238c8361246a565b9250827fffffffffffffffffffffffffffffffffffffffffffffffffffffffffffffffff038211156123c1576123c06124ff565b5b828201905092915050565b60006123d78261246a565b91506123e28361246a565b9250828210156123f5576123f46124ff565b5b828203905092915050565b600061240b8261244a565b9050919050565b60008115159050919050565b60007fffffffff0000000000000000000000000000000000000000000000000000000082169050919050565b600073ffffffffffffffffffffffffffffffffffffffff82169050919050565b6000819050919050565b82818337600083830152505050565b60005b838110156124a1578082015181840152602081019050612486565b838111156124b0576000848401525b50505050565b60006124c18261246a565b91507fffffffffffffffffffffffffffffffffffffffffffffffffffffffffffffffff8214156124f4576124f36124ff565b5b600182019050919050565b7f4e487b7100000000000000000000000000000000000000000000000000000000600052601160045260246000fd5b7f4e487b7100000000000000000000000000000000000000000000000000000000600052604160045260246000fd5b6000601f19601f8301169050919050565b61257781612400565b811461258257600080fd5b50565b61258e81612412565b811461259957600080fd5b50565b6125a58161241e565b81146125b057600080fd5b50565b6125bc8161246a565b81146125c757600080fd5b5056fea264697066735822122033b00914b9bb013ae5b06e5a3d2ec3b0d635106fb7918d1cd2401d228209904664736f6c63430008000033",
  "immutableReferences": {},
  "source": "pragma solidity ^0.8.0;\npragma experimental ABIEncoderV2;\n\nimport \"./IERC721.sol\";\nimport \"./Ownable.sol\";\nimport \"./IERC721Receiver.sol\";\n\ncontract KittycontractNFT is IERC721, Ownable {\n\n  event Birth(address _owner, uint256 _tokenID, uint256 momID, uint256 dadID, uint256 _genes);\n\n  string public constant _tokenName = \"WaterstoneKittys\";\n  string public constant _tokenSymbol = \"WSK\";\n\n  //used in external func supportsInterface() for contract interoperability\n  bytes4 private constant _INTERFACE_ID_ERC721 = 0x80ac58cd;\n  bytes4 private constant _INTERFACE_ID_ERC165 = 0x01ffc9a7;\n\n  //mapping of NFT balance for address\n  mapping(address => uint256) balances;\n  //mapping of specific NFT owned by address\n  mapping(uint256 => address) ownerOfNFT;\n  //mapping of NFT that gives approval access to another address\n  mapping(uint256 => address) public nftApprovals;\n  //owner address that grants full approval of assets to another addresses\n  mapping(address => mapping(address => bool)) private operatorApproval;\n  //approvalforAll[msg.sender][msg.receiver] = true;\n\n  //NFT creation limit\n  uint256 public constant gen0Limit = 10;\n\n  //NFT Gen0 limit\n  uint256 public gen0Counter;\n\n  struct Kittys {\n    address owner;\n    uint256 genes;\n    uint32 momID;\n    uint32 dadID;\n    uint16 generation;\n  }\n\n  Kittys[] kittys;\n\n  //ERC721 standard func that allows other contracts to check to see if OUR contract supports specific ERC standards\n  //INPUT a unique bytes4 hash (Ethereum sets these) to see if my contract returns true (supports) or false (does not support)\n  function supportsInterface(bytes4 _interfaceID) external view returns(bool){\n    if(_interfaceID == _INTERFACE_ID_ERC721 || _interfaceID == _INTERFACE_ID_ERC165){\n      return true;\n    }\n    else{\n      return false;\n    }\n\n    //return (_interfaceID == _INTERFACE_ID_ERC721 || _interfaceID == _INTERFACE_ID_ERC165);\n  }\n\n  /**\n   * @dev Returns the number of tokens in ``owner``'s account.\n   */\n  function balanceOf(address owner) external view override returns (uint256 balance){\n    //we need it to return a balance of an owner --> mapping\n    return balances[owner]; //need to create a 'balances' mapping\n  }\n\n  /*\n   * @dev Returns the total number of tokens in circulation.\n   */\n  function totalSupply() public view override returns (uint256 total){\n    return kittys.length;\n  }\n\n  /*\n   * @dev Returns the name of the token.\n   */\n  function name() external pure override returns (string memory tokenName){\n    return _tokenName;\n  }\n\n  /*\n   * @dev Returns the symbol of the token.\n   */\n  function symbol() external pure override returns (string memory tokenSymbol){\n    return _tokenSymbol;\n  }\n\n  /**\n   * @dev Returns the owner of the `tokenId` token.\n   *\n   * Requirements:\n   *\n   * - `tokenId` must exist.\n   */\n  function ownerOf(uint256 tokenId) external view override returns (address owner){\n    return ownerOfNFT[tokenId];\n  }\n\n  /* @dev Transfers `tokenId` token from `msg.sender` to `to`.\n  *\n  * Requirements:\n  *\n  * - `to` cannot be the zero address.\n  * - `to` can not be the contract address.\n  * - `tokenId` token must be owned by `msg.sender`.\n  *\n  * Emits a {Transfer} event.\n  */\n  function transfer(address _to, uint256 _tokenID) external override {\n    require(_to != address(0), \"ERC721: Transfer is to the 0 address!\");\n    require(_to != address(this), \"ERC721: Transfer is not supported to this contract\");\n    require(owns(msg.sender, _tokenID));\n\n    _transfer(msg.sender, _to, _tokenID);\n\n  }\n\n  function _transfer(address _from, address _to, uint256 _tokenID) internal {\n    //increment balance of 'to' address + 1\n    balances[_to] += 1;\n\n    //Assign the NFT to the '_to' address\n    ownerOfNFT[_tokenID] = _to;\n\n    //if '_from' address is not the 0 address (aka not a newly minted coin being transferred)...\n    //decrement the balance of the '_from' address by - 1\n    if(_from != address(0)){\n      balances[_from] -= 1;\n      delete nftApprovals[_tokenID];\n    }\n\n    emit Transfer(_from, _to, _tokenID);\n  }\n\n  function owns(address _from, uint256 tokenID) internal view returns(bool){\n    return ownerOfNFT[tokenID] == _from;\n  }\n\n  function createKittyGen0(uint256 _genes) public returns(uint256) {\n    //takes the genes that you send in from front send\n    //creates a new kitty for us with those specific genes\n    require(gen0Counter <= gen0Limit);\n\n    gen0Counter++;\n    //use _createKitty()\n\n    return _createKitty(0, 0, 0, _genes, msg.sender);\n  }\n\n  function _createKitty(uint256 _momID, uint256 _dadID, uint256 _generation, uint256 _genes, address _owner) internal returns(uint256){\n\n      Kittys memory _kitty = Kittys({\n\n        momID: uint32(_momID),\n        dadID: uint32(_dadID),\n        generation: uint16(_generation),\n        genes: uint256(_genes),\n        owner: _owner\n        });\n\n      kittys.push(_kitty);\n\n      uint256 newKittenID = kittys.length - 1;\n\n      _transfer(address(0), _owner, newKittenID);\n\n      emit Birth(_owner, newKittenID, _momID, _dadID, _genes);\n\n      return newKittenID;\n\n  }\n\n  function getKitty(uint256 tokenID) external view returns(uint, uint, uint, address, uint){\n\n    //Kittys[] storage _kittys = kittys[tokenID];\n\n      //genes = _kittys.genes;\n      //momID = _kittys.momID;\n      //dadID = _kittys.dadID;\n      //birthTime = _kittys.birthTime;\n      //generation = _kittys.generation;\n\n      Kittys storage kitties = kittys[tokenID];\n\n      return(\n        kitties.genes,\n        kitties.momID,\n        kitties.dadID,\n        kitties.owner,\n        kitties.generation\n        );\n  }\n\n    /// @notice Change or reaffirm the approved address for an NFT\n    /// @dev The zero address indicates there is no approved address.\n    /// Throws unless `msg.sender` is the current NFT owner, or an authorized\n    /// operator of the current owner.\n    /// @param _approved The new approved NFT controller\n    /// @param _tokenId The NFT to approve\n  function approve(address _approved, uint256 _tokenId) external override {\n    //takes a single NFT and gives approval to another address to move\n    require(_approved != address(0), \"ERC721: Transfer is to the 0 address!\");\n    require(owns(msg.sender, _tokenId));\n\n    _approve(_approved, _tokenId);\n\n    emit Approval(msg.sender, _approved, _tokenId);\n  }\n\n  function _approve(address _approved, uint256 _tokenId) internal {\n\n    nftApprovals[_tokenId] = _approved;\n\n  }\n\n  /// @notice Enable or disable approval for a third party (\"operator\") to manage\n  ///  all of `msg.sender`'s assets\n  /// @dev Emits the ApprovalForAll event. The contract MUST allow\n  ///  multiple operators per owner.\n  /// @param _operator Address to add to the set of authorized operators\n  /// @param _approved True if the operator is approved, false to revoke approval\n  function setApprovalForAll(address _operator, bool _approved) external override {\n\n    require(_operator != msg.sender, \"ERC721: Cannot *approve* your own address!\");\n\n    operatorApproval[msg.sender][_operator] = _approved;\n\n    emit ApprovalForAll(msg.sender, _operator, _approved);\n  }\n\n  /// @notice Query if an address is an authorized operator for another address\n  /// @param _owner The address that owns the NFTs\n  /// @param _operator The address that acts on behalf of the owner\n  /// @return True if `_operator` is an approved operator for `_owner`, false otherwise\n  function isApprovedForAll(address _owner, address _operator) external override view returns (bool){\n\n    if(operatorApproval[_owner][_operator] == true){\n      return true;\n    }\n    else {\n      return false;\n    }\n  }\n\n  /// @notice Get the approved address for a single NFT\n  /// @dev Throws if `_tokenId` is not a valid NFT.\n  /// @param _tokenId The NFT to find the approved address for\n  /// @return The approved address for this NFT, or the zero address if there is none\n  function getApproved(uint256 _tokenId) external override view returns (address){\n\n    if(_tokenId < kittys.length){\n        if(nftApprovals[_tokenId] == address(0)) {\n          return address(0);\n        }\n      else{\n        return nftApprovals[_tokenId];\n      }\n    }\n  }\n\n  /// @notice Transfer ownership of an NFT -- THE CALLER IS RESPONSIBLE\n  ///  TO CONFIRM THAT `_to` IS CAPABLE OF RECEIVING NFTS OR ELSE\n  ///  THEY MAY BE PERMANENTLY LOST\n  /// @dev Throws unless `msg.sender` is the current owner, an authorized\n  ///  operator, or the approved address for this NFT. Throws if `_from` is\n  ///  not the current owner. Throws if `_to` is the zero address. Throws if\n  ///  `_tokenId` is not a valid NFT.\n  /// @param _from The current owner of the NFT\n  /// @param _to The new owner\n  /// @param _tokenId The NFT to transfer\n  function transferFrom(address _from, address _to, uint256 _tokenId) external override {\n    require( owns(msg.sender, _tokenId) ||\n    operatorApproval[_from][msg.sender] == true ||\n    nftApprovals[_tokenId] == msg.sender, \"ERC721: Permission to transfer not granted from your address\");\n\n    require(ownerOfNFT[_tokenId] == _from);\n    require(_to != address(0), \"ERC721: Transfer cannot go to the 0 address!\");\n    require(_tokenId < kittys.length);\n\n\n    _transfer(_from, _to, _tokenId);\n\n  }\n\n  function safeTransferFrom(address _from, address _to, uint256 _tokenId) public virtual override {\n    safeTransferFrom(_from, _to, _tokenId, \"\");\n  }\n\n  function safeTransferFrom(address _from, address _to, uint256 _tokenId, bytes memory data) public virtual override {\n    require( owns(msg.sender, _tokenId) ||\n    operatorApproval[_from][msg.sender] == true ||\n    nftApprovals[_tokenId] == msg.sender, \"ERC721: Permission to transfer not granted from your address\");\n\n    require(ownerOfNFT[_tokenId] == _from);\n    require(_to != address(0), \"ERC721: Transfer cannot go to the 0 address!\");\n    require(_tokenId < kittys.length);\n\n    _safeTransfer(_from, _to, _tokenId, data);\n  }\n\n  //part of safeTransferFrom(), CHECKS to make sure token destination supports NFT\n  function _safeTransfer(address _from, address _to, uint256 _tokenId, bytes memory data) internal {\n    require( _checkERC721Support(_from, _to, _tokenId, data) );\n    _transfer(_from, _to, _tokenId);\n    //CHECK if created func '_checkERC721Support' returns boolean true\n  }\n\n  //calls _to contract to see if it supports ERC721 token standard\n  function _checkERC721Support(address _from, address _to, uint256 _tokenId, bytes memory data) internal returns(bool){\n    //call created func 'isContract' with param _to to check if it's a contract\n    if( !_isContract(_to) ){\n      //if NOT a contract, we know it's a wallet --> ERC wallets can support NFTs\n      return true;\n    }\n\n    //if it IS a contract, call onERC721Received\n      //(standard func that contracts must have if they want to\n        //be interoperable with NFTs)\n    //CHECK RETURN VALUE of onERC721Received ^^\n\n    //created an interface contract to make a call to an external contract\n      //how do call an external contract if you only know the address & 1 function\n      //.. make an interface contract.. 'IERC721Receiver'\n    //create a bytes variable that captures value of external call and tests if it's true\n    else{\n      bytes4 returnData = IERC721Receiver(_to).onERC721Received(msg.sender, _from, _tokenId, data);\n\n      if(returnData == bytes4(keccak256(\"onERC721Received(address,address,uint256,bytes)\"))){\n        return true;\n      }\n      else{\n        return false;\n      }\n    }\n  }\n\n  function _isContract(address _to) view internal returns(bool){\n    //if it calls a wallet, code size = 0... if it's a contract, code size > 1\n    uint32 size;\n    assembly{\n      size := extcodesize(_to)\n    }\n    return size > 0;\n  }\n}\n",
  "sourcePath": "/Users/williamlamarche/Desktop/Blockchain-Development/ETHdApp/contracts/KittycontractNFT.sol",
  "compiler": {
    "name": "solc",
    "version": "0.8.0+commit.c7dfd78e.Emscripten.clang"
  },
  "schemaVersion": "3.4.1",
  "updatedAt": "2021-10-27T18:26:42.695Z",
  "devdoc": {
    "kind": "dev",
    "methods": {
      "approve(address,uint256)": {
        "details": "The zero address indicates there is no approved address. Throws unless `msg.sender` is the current NFT owner, or an authorized operator of the current owner.",
        "params": {
          "_approved": "The new approved NFT controller",
          "_tokenId": "The NFT to approve"
        }
      },
      "balanceOf(address)": {
        "details": "Returns the number of tokens in ``owner``'s account."
      },
      "getApproved(uint256)": {
        "details": "Throws if `_tokenId` is not a valid NFT.",
        "params": {
          "_tokenId": "The NFT to find the approved address for"
        },
        "returns": {
          "_0": "The approved address for this NFT, or the zero address if there is none"
        }
      },
      "isApprovedForAll(address,address)": {
        "params": {
          "_operator": "The address that acts on behalf of the owner",
          "_owner": "The address that owns the NFTs"
        },
        "returns": {
          "_0": "True if `_operator` is an approved operator for `_owner`, false otherwise"
        }
      },
      "owner()": {
        "details": "Returns the address of the current owner."
      },
      "ownerOf(uint256)": {
        "details": "Returns the owner of the `tokenId` token. Requirements: - `tokenId` must exist."
      },
      "renounceOwnership()": {
        "details": "Leaves the contract without owner. It will not be possible to call `onlyOwner` functions anymore. Can only be called by the current owner. NOTE: Renouncing ownership will leave the contract without an owner, thereby removing any functionality that is only available to the owner."
      },
      "safeTransferFrom(address,address,uint256)": {
        "details": "This works identically to the other function with an extra data parameter,  except this function just sets data to \"\".",
        "params": {
          "_from": "The current owner of the NFT",
          "_to": "The new owner",
          "_tokenId": "The NFT to transfer"
        }
      },
      "safeTransferFrom(address,address,uint256,bytes)": {
        "details": "Throws unless `msg.sender` is the current owner, an authorized  operator, or the approved address for this NFT. Throws if `_from` is  not the current owner. Throws if `_to` is the zero address. Throws if  `_tokenId` is not a valid NFT. When transfer is complete, this function  checks if `_to` is a smart contract (code size > 0). If so, it calls  `onERC721Received` on `_to` and throws if the return value is not  `bytes4(keccak256(\"onERC721Received(address,address,uint256,bytes)\"))`.",
        "params": {
          "_from": "The current owner of the NFT",
          "_to": "The new owner",
          "_tokenId": "The NFT to transfer",
          "data": "Additional data with no specified format, sent in call to `_to`"
        }
      },
      "setApprovalForAll(address,bool)": {
        "details": "Emits the ApprovalForAll event. The contract MUST allow  multiple operators per owner.",
        "params": {
          "_approved": "True if the operator is approved, false to revoke approval",
          "_operator": "Address to add to the set of authorized operators"
        }
      },
      "transferFrom(address,address,uint256)": {
        "details": "Throws unless `msg.sender` is the current owner, an authorized  operator, or the approved address for this NFT. Throws if `_from` is  not the current owner. Throws if `_to` is the zero address. Throws if  `_tokenId` is not a valid NFT.",
        "params": {
          "_from": "The current owner of the NFT",
          "_to": "The new owner",
          "_tokenId": "The NFT to transfer"
        }
      },
      "transferOwnership(address)": {
        "details": "Transfers ownership of the contract to a new account (`newOwner`). Can only be called by the current owner."
      }
    },
    "version": 1
  },
  "userdoc": {
    "kind": "user",
    "methods": {
      "approve(address,uint256)": {
        "notice": "Change or reaffirm the approved address for an NFT"
      },
      "getApproved(uint256)": {
        "notice": "Get the approved address for a single NFT"
      },
      "isApprovedForAll(address,address)": {
        "notice": "Query if an address is an authorized operator for another address"
      },
      "safeTransferFrom(address,address,uint256)": {
        "notice": "Transfers the ownership of an NFT from one address to another address"
      },
      "safeTransferFrom(address,address,uint256,bytes)": {
        "notice": "Transfers the ownership of an NFT from one address to another address"
      },
      "setApprovalForAll(address,bool)": {
        "notice": "Enable or disable approval for a third party (\"operator\") to manage  all of `msg.sender`'s assets"
      },
      "transferFrom(address,address,uint256)": {
        "notice": "Transfer ownership of an NFT -- THE CALLER IS RESPONSIBLE  TO CONFIRM THAT `_to` IS CAPABLE OF RECEIVING NFTS OR ELSE  THEY MAY BE PERMANENTLY LOST"
      }
    },
    "version": 1
  }
}