{
  "contractName": "KittycontractNFT",
  "abi": [
    {
      "anonymous": false,
      "inputs": [
        {
          "indexed": true,
          "internalType": "address",
          "name": "owner",
          "type": "address"
        },
        {
          "indexed": true,
          "internalType": "address",
          "name": "approved",
          "type": "address"
        },
        {
          "indexed": true,
          "internalType": "uint256",
          "name": "tokenId",
          "type": "uint256"
        }
      ],
      "name": "Approval",
      "type": "event"
    },
    {
      "anonymous": false,
      "inputs": [
        {
          "indexed": false,
          "internalType": "address",
          "name": "_owner",
          "type": "address"
        },
        {
          "indexed": false,
          "internalType": "uint256",
          "name": "_tokenID",
          "type": "uint256"
        },
        {
          "indexed": false,
          "internalType": "uint256",
          "name": "momID",
          "type": "uint256"
        },
        {
          "indexed": false,
          "internalType": "uint256",
          "name": "dadID",
          "type": "uint256"
        },
        {
          "indexed": false,
          "internalType": "uint256",
          "name": "_genes",
          "type": "uint256"
        }
      ],
      "name": "Birth",
      "type": "event"
    },
    {
      "anonymous": false,
      "inputs": [
        {
          "indexed": true,
          "internalType": "address",
          "name": "previousOwner",
          "type": "address"
        },
        {
          "indexed": true,
          "internalType": "address",
          "name": "newOwner",
          "type": "address"
        }
      ],
      "name": "OwnershipTransferred",
      "type": "event"
    },
    {
      "anonymous": false,
      "inputs": [
        {
          "indexed": true,
          "internalType": "address",
          "name": "from",
          "type": "address"
        },
        {
          "indexed": true,
          "internalType": "address",
          "name": "to",
          "type": "address"
        },
        {
          "indexed": true,
          "internalType": "uint256",
          "name": "tokenId",
          "type": "uint256"
        }
      ],
      "name": "Transfer",
      "type": "event"
    },
    {
      "inputs": [],
      "name": "_tokenName",
      "outputs": [
        {
          "internalType": "string",
          "name": "",
          "type": "string"
        }
      ],
      "stateMutability": "view",
      "type": "function",
      "constant": true
    },
    {
      "inputs": [],
      "name": "_tokenSymbol",
      "outputs": [
        {
          "internalType": "string",
          "name": "",
          "type": "string"
        }
      ],
      "stateMutability": "view",
      "type": "function",
      "constant": true
    },
    {
      "inputs": [],
      "name": "gen0Counter",
      "outputs": [
        {
          "internalType": "uint256",
          "name": "",
          "type": "uint256"
        }
      ],
      "stateMutability": "view",
      "type": "function",
      "constant": true
    },
    {
      "inputs": [],
      "name": "gen0Limit",
      "outputs": [
        {
          "internalType": "uint256",
          "name": "",
          "type": "uint256"
        }
      ],
      "stateMutability": "view",
      "type": "function",
      "constant": true
    },
    {
      "inputs": [],
      "name": "owner",
      "outputs": [
        {
          "internalType": "address",
          "name": "",
          "type": "address"
        }
      ],
      "stateMutability": "view",
      "type": "function",
      "constant": true
    },
    {
      "inputs": [],
      "name": "renounceOwnership",
      "outputs": [],
      "stateMutability": "nonpayable",
      "type": "function"
    },
    {
      "inputs": [
        {
          "internalType": "address",
          "name": "newOwner",
          "type": "address"
        }
      ],
      "name": "transferOwnership",
      "outputs": [],
      "stateMutability": "nonpayable",
      "type": "function"
    },
    {
      "inputs": [
        {
          "internalType": "address",
          "name": "owner",
          "type": "address"
        }
      ],
      "name": "balanceOf",
      "outputs": [
        {
          "internalType": "uint256",
          "name": "balance",
          "type": "uint256"
        }
      ],
      "stateMutability": "view",
      "type": "function",
      "constant": true
    },
    {
      "inputs": [],
      "name": "totalSupply",
      "outputs": [
        {
          "internalType": "uint256",
          "name": "total",
          "type": "uint256"
        }
      ],
      "stateMutability": "view",
      "type": "function",
      "constant": true
    },
    {
      "inputs": [],
      "name": "name",
      "outputs": [
        {
          "internalType": "string",
          "name": "tokenName",
          "type": "string"
        }
      ],
      "stateMutability": "view",
      "type": "function",
      "constant": true
    },
    {
      "inputs": [],
      "name": "symbol",
      "outputs": [
        {
          "internalType": "string",
          "name": "tokenSymbol",
          "type": "string"
        }
      ],
      "stateMutability": "view",
      "type": "function",
      "constant": true
    },
    {
      "inputs": [
        {
          "internalType": "uint256",
          "name": "tokenId",
          "type": "uint256"
        }
      ],
      "name": "ownerOf",
      "outputs": [
        {
          "internalType": "address",
          "name": "owner",
          "type": "address"
        }
      ],
      "stateMutability": "view",
      "type": "function",
      "constant": true
    },
    {
      "inputs": [
        {
          "internalType": "address",
          "name": "_to",
          "type": "address"
        },
        {
          "internalType": "uint256",
          "name": "_tokenID",
          "type": "uint256"
        }
      ],
      "name": "transfer",
      "outputs": [],
      "stateMutability": "nonpayable",
      "type": "function"
    },
    {
      "inputs": [
        {
          "internalType": "uint256",
          "name": "_genes",
          "type": "uint256"
        }
      ],
      "name": "createKittyGen0",
      "outputs": [
        {
          "internalType": "uint256",
          "name": "",
          "type": "uint256"
        }
      ],
      "stateMutability": "nonpayable",
      "type": "function"
    }
  ],
  "bytecode": "0x60806040526040518060400160405280601081526020017f576174657273746f6e654b697474797300000000000000000000000000000000815250600190805190602001906200005192919062000175565b506040518060400160405280600381526020017f57534b0000000000000000000000000000000000000000000000000000000000815250600290805190602001906200009f92919062000175565b50600680549050600755348015620000b657600080fd5b506000620000c96200016d60201b60201c565b9050806000806101000a81548173ffffffffffffffffffffffffffffffffffffffff021916908373ffffffffffffffffffffffffffffffffffffffff1602179055508073ffffffffffffffffffffffffffffffffffffffff16600073ffffffffffffffffffffffffffffffffffffffff167f8be0079c531659141344cd1fd0a4f28419497f9722a3daafe3b4186f6b6457e060405160405180910390a3506200028a565b600033905090565b828054620001839062000225565b90600052602060002090601f016020900481019282620001a75760008555620001f3565b82601f10620001c257805160ff1916838001178555620001f3565b82800160010185558215620001f3579182015b82811115620001f2578251825591602001919060010190620001d5565b5b50905062000202919062000206565b5090565b5b808211156200022157600081600090555060010162000207565b5090565b600060028204905060018216806200023e57607f821691505b602082108114156200025557620002546200025b565b5b50919050565b7f4e487b7100000000000000000000000000000000000000000000000000000000600052602260045260246000fd5b6113ed806200029a6000396000f3fe608060405234801561001057600080fd5b50600436106100ea5760003560e01c80639f0c81251161008c578063e515a4d111610066578063e515a4d11461023b578063ecf35cca14610259578063ef5e94aa14610277578063f2fde38b14610295576100ea565b80639f0c8125146101d1578063a9059cbb146101ef578063d5a776ca1461020b576100ea565b806370a08231116100c857806370a082311461015b578063715018a61461018b5780638da5cb5b1461019557806395d89b41146101b3576100ea565b806306fdde03146100ef57806318160ddd1461010d5780636352211e1461012b575b600080fd5b6100f76102b1565b60405161010491906110cd565b60405180910390f35b610115610343565b604051610122919061116f565b60405180910390f35b61014560048036038101906101409190610e6d565b61034d565b604051610152919061105f565b60405180910390f35b61017560048036038101906101709190610e08565b61038a565b604051610182919061116f565b60405180910390f35b6101936103d3565b005b61019d61050d565b6040516101aa919061105f565b60405180910390f35b6101bb610536565b6040516101c891906110cd565b60405180910390f35b6101d96105c8565b6040516101e691906110cd565b60405180910390f35b61020960048036038101906102049190610e31565b610656565b005b61022560048036038101906102209190610e6d565b610757565b604051610232919061116f565b60405180910390f35b610243610812565b604051610250919061116f565b60405180910390f35b610261610817565b60405161026e91906110cd565b60405180910390f35b61027f6108a5565b60405161028c919061116f565b60405180910390f35b6102af60048036038101906102aa9190610e08565b6108ab565b005b6060600180546102c09061129f565b80601f01602080910402602001604051908101604052809291908181526020018280546102ec9061129f565b80156103395780601f1061030e57610100808354040283529160200191610339565b820191906000526020600020905b81548152906001019060200180831161031c57829003601f168201915b5050505050905090565b6000600754905090565b60006004600083815260200190815260200160002060009054906101000a900473ffffffffffffffffffffffffffffffffffffffff169050919050565b6000600360008373ffffffffffffffffffffffffffffffffffffffff1673ffffffffffffffffffffffffffffffffffffffff168152602001908152602001600020549050919050565b6103db610a54565b73ffffffffffffffffffffffffffffffffffffffff166103f961050d565b73ffffffffffffffffffffffffffffffffffffffff161461044f576040517f08c379a00000000000000000000000000000000000000000000000000000000081526004016104469061112f565b60405180910390fd5b600073ffffffffffffffffffffffffffffffffffffffff1660008054906101000a900473ffffffffffffffffffffffffffffffffffffffff1673ffffffffffffffffffffffffffffffffffffffff167f8be0079c531659141344cd1fd0a4f28419497f9722a3daafe3b4186f6b6457e060405160405180910390a360008060006101000a81548173ffffffffffffffffffffffffffffffffffffffff021916908373ffffffffffffffffffffffffffffffffffffffff160217905550565b60008060009054906101000a900473ffffffffffffffffffffffffffffffffffffffff16905090565b6060600280546105459061129f565b80601f01602080910402602001604051908101604052809291908181526020018280546105719061129f565b80156105be5780601f10610593576101008083540402835291602001916105be565b820191906000526020600020905b8154815290600101906020018083116105a157829003601f168201915b5050505050905090565b600180546105d59061129f565b80601f01602080910402602001604051908101604052809291908181526020018280546106019061129f565b801561064e5780601f106106235761010080835404028352916020019161064e565b820191906000526020600020905b81548152906001019060200180831161063157829003601f168201915b505050505081565b600073ffffffffffffffffffffffffffffffffffffffff168273ffffffffffffffffffffffffffffffffffffffff1614156106c6576040517f08c379a00000000000000000000000000000000000000000000000000000000081526004016106bd9061114f565b60405180910390fd5b3073ffffffffffffffffffffffffffffffffffffffff168273ffffffffffffffffffffffffffffffffffffffff161415610735576040517f08c379a000000000000000000000000000000000000000000000000000000000815260040161072c906110ef565b60405180910390fd5b61073f3382610a5c565b61074857600080fd5b610753338383610ac8565b5050565b6000610761610a54565b73ffffffffffffffffffffffffffffffffffffffff1661077f61050d565b73ffffffffffffffffffffffffffffffffffffffff16146107d5576040517f08c379a00000000000000000000000000000000000000000000000000000000081526004016107cc9061112f565b60405180910390fd5b600a600554106107e457600080fd5b600560008154809291906107f7906112d1565b919050555061080b60008060008530610c5d565b9050919050565b600a81565b600280546108249061129f565b80601f01602080910402602001604051908101604052809291908181526020018280546108509061129f565b801561089d5780601f106108725761010080835404028352916020019161089d565b820191906000526020600020905b81548152906001019060200180831161088057829003601f168201915b505050505081565b60055481565b6108b3610a54565b73ffffffffffffffffffffffffffffffffffffffff166108d161050d565b73ffffffffffffffffffffffffffffffffffffffff1614610927576040517f08c379a000000000000000000000000000000000000000000000000000000000815260040161091e9061112f565b60405180910390fd5b600073ffffffffffffffffffffffffffffffffffffffff168173ffffffffffffffffffffffffffffffffffffffff161415610997576040517f08c379a000000000000000000000000000000000000000000000000000000000815260040161098e9061110f565b60405180910390fd5b8073ffffffffffffffffffffffffffffffffffffffff1660008054906101000a900473ffffffffffffffffffffffffffffffffffffffff1673ffffffffffffffffffffffffffffffffffffffff167f8be0079c531659141344cd1fd0a4f28419497f9722a3daafe3b4186f6b6457e060405160405180910390a3806000806101000a81548173ffffffffffffffffffffffffffffffffffffffff021916908373ffffffffffffffffffffffffffffffffffffffff16021790555050565b600033905090565b60008273ffffffffffffffffffffffffffffffffffffffff166004600084815260200190815260200160002060009054906101000a900473ffffffffffffffffffffffffffffffffffffffff1673ffffffffffffffffffffffffffffffffffffffff1614905092915050565b6001600360008473ffffffffffffffffffffffffffffffffffffffff1673ffffffffffffffffffffffffffffffffffffffff1681526020019081526020016000206000828254610b1891906111a6565b92505081905550816004600083815260200190815260200160002060006101000a81548173ffffffffffffffffffffffffffffffffffffffff021916908373ffffffffffffffffffffffffffffffffffffffff160217905550600073ffffffffffffffffffffffffffffffffffffffff168373ffffffffffffffffffffffffffffffffffffffff1614610bfd576001600360008573ffffffffffffffffffffffffffffffffffffffff1673ffffffffffffffffffffffffffffffffffffffff1681526020019081526020016000206000828254610bf591906111fc565b925050819055505b808273ffffffffffffffffffffffffffffffffffffffff168473ffffffffffffffffffffffffffffffffffffffff167fddf252ad1be2c89b69c2b068fc378daa952ba7f163c4a11628f55a4df523b3ef60405160405180910390a4505050565b6000806040518060a001604052808581526020018863ffffffff1681526020018763ffffffff1681526020014267ffffffffffffffff1681526020018661ffff16815250905060068190806001815401808255809150506001900390600052602060002090600202016000909190919091506000820151816000015560208201518160010160006101000a81548163ffffffff021916908363ffffffff16021790555060408201518160010160046101000a81548163ffffffff021916908363ffffffff16021790555060608201518160010160086101000a81548167ffffffffffffffff021916908367ffffffffffffffff16021790555060808201518160010160106101000a81548161ffff021916908361ffff160217905550505060006006805490509050610d9160008583610ac8565b7f0a5311bd2a6608f08a180df2ee7c5946819a649b204b554bb8e39825b2c50ad584828a8a89604051610dc895949392919061107a565b60405180910390a1809250505095945050505050565b600081359050610ded81611389565b92915050565b600081359050610e02816113a0565b92915050565b600060208284031215610e1a57600080fd5b6000610e2884828501610dde565b91505092915050565b60008060408385031215610e4457600080fd5b6000610e5285828601610dde565b9250506020610e6385828601610df3565b9150509250929050565b600060208284031215610e7f57600080fd5b6000610e8d84828501610df3565b91505092915050565b610e9f81611230565b82525050565b6000610eb08261118a565b610eba8185611195565b9350610eca81856020860161126c565b610ed381611378565b840191505092915050565b6000610eeb603283611195565b91507f4552433732313a205472616e73666572206973206e6f7420737570706f72746560008301527f6420746f207468697320636f6e747261637400000000000000000000000000006020830152604082019050919050565b6000610f51602683611195565b91507f4f776e61626c653a206e6577206f776e657220697320746865207a65726f206160008301527f64647265737300000000000000000000000000000000000000000000000000006020830152604082019050919050565b6000610fb7602083611195565b91507f4f776e61626c653a2063616c6c6572206973206e6f7420746865206f776e65726000830152602082019050919050565b6000610ff7602583611195565b91507f4552433732313a205472616e7366657220697320746f2074686520302061646460008301527f72657373210000000000000000000000000000000000000000000000000000006020830152604082019050919050565b61105981611262565b82525050565b60006020820190506110746000830184610e96565b92915050565b600060a08201905061108f6000830188610e96565b61109c6020830187611050565b6110a96040830186611050565b6110b66060830185611050565b6110c36080830184611050565b9695505050505050565b600060208201905081810360008301526110e78184610ea5565b905092915050565b6000602082019050818103600083015261110881610ede565b9050919050565b6000602082019050818103600083015261112881610f44565b9050919050565b6000602082019050818103600083015261114881610faa565b9050919050565b6000602082019050818103600083015261116881610fea565b9050919050565b60006020820190506111846000830184611050565b92915050565b600081519050919050565b600082825260208201905092915050565b60006111b182611262565b91506111bc83611262565b9250827fffffffffffffffffffffffffffffffffffffffffffffffffffffffffffffffff038211156111f1576111f061131a565b5b828201905092915050565b600061120782611262565b915061121283611262565b9250828210156112255761122461131a565b5b828203905092915050565b600061123b82611242565b9050919050565b600073ffffffffffffffffffffffffffffffffffffffff82169050919050565b6000819050919050565b60005b8381101561128a57808201518184015260208101905061126f565b83811115611299576000848401525b50505050565b600060028204905060018216806112b757607f821691505b602082108114156112cb576112ca611349565b5b50919050565b60006112dc82611262565b91507fffffffffffffffffffffffffffffffffffffffffffffffffffffffffffffffff82141561130f5761130e61131a565b5b600182019050919050565b7f4e487b7100000000000000000000000000000000000000000000000000000000600052601160045260246000fd5b7f4e487b7100000000000000000000000000000000000000000000000000000000600052602260045260246000fd5b6000601f19601f8301169050919050565b61139281611230565b811461139d57600080fd5b50565b6113a981611262565b81146113b457600080fd5b5056fea2646970667358221220d1e3fdc3b9bfd1b14257233c6fe005dcf7c332cbfb701cff2a57da85ec12328e64736f6c63430008000033",
  "immutableReferences": {},
  "source": "pragma solidity ^0.8.0;\n\nimport \"./IERC721.sol\";\nimport \"./Ownable.sol\";\n\ncontract KittycontractNFT is IERC721, Ownable {\n\n  event Birth(address _owner, uint256 _tokenID, uint256 momID, uint256 dadID, uint256 _genes);\n\n  string public _tokenName = \"WaterstoneKittys\";\n  string public _tokenSymbol = \"WSK\";\n\n  mapping(address => uint256) balances;\n  mapping(uint256 => address) ownerOfNFT;\n\n  //NFT creation limit\n  uint256 public constant gen0Limit = 10;\n\n  //NFT Gen0 limit\n  uint256 public gen0Counter;\n\n  struct Kittys {\n    uint256 genes;\n    uint32 momID;\n    uint32 dadID;\n    uint64 birthTime;\n    uint16 generation;\n  }\n\n  Kittys[] kittys;\n\n  uint _totalSupply = kittys.length;\n\n  /**\n   * @dev Returns the number of tokens in ``owner``'s account.\n   */\n  function balanceOf(address owner) external view override returns (uint256 balance){\n    //we need it to return a balance of an owner --> mapping\n    return balances[owner]; //need to create a 'balances' mapping\n  }\n\n  /*\n   * @dev Returns the total number of tokens in circulation.\n   */\n  function totalSupply() public view override returns (uint256 total){\n    return _totalSupply;\n  }\n\n  /*\n   * @dev Returns the name of the token.\n   */\n  function name() external view override returns (string memory tokenName){\n    return _tokenName;\n  }\n\n  /*\n   * @dev Returns the symbol of the token.\n   */\n  function symbol() external view override returns (string memory tokenSymbol){\n    return _tokenSymbol;\n  }\n\n  /**\n   * @dev Returns the owner of the `tokenId` token.\n   *\n   * Requirements:\n   *\n   * - `tokenId` must exist.\n   */\n  function ownerOf(uint256 tokenId) external view override returns (address owner){\n    return ownerOfNFT[tokenId];\n  }\n\n  /* @dev Transfers `tokenId` token from `msg.sender` to `to`.\n  *\n  * Requirements:\n  *\n  * - `to` cannot be the zero address.\n  * - `to` can not be the contract address.\n  * - `tokenId` token must be owned by `msg.sender`.\n  *\n  * Emits a {Transfer} event.\n  */\n  function transfer(address _to, uint256 _tokenID) external override {\n    require(_to != address(0), \"ERC721: Transfer is to the 0 address!\");\n    require(_to != address(this), \"ERC721: Transfer is not supported to this contract\");\n    require(owns(msg.sender, _tokenID));\n\n    _transfer(msg.sender, _to, _tokenID);\n\n  }\n\n  function _transfer(address _from, address _to, uint256 _tokenID) internal {\n    //increment balance of 'to' address + 1\n    balances[_to] += 1;\n\n    //Assign the NFT to the '_to' address\n    ownerOfNFT[_tokenID] = _to;\n\n    //if '_from' address is not the 0 address (aka not a newly minted coin being transferred)...\n    //decrement the balance of the '_from' address by - 1\n    if(_from != address(0)){\n      balances[_from] -= 1;\n    }\n\n    emit Transfer(_from, _to, _tokenID);\n  }\n\n  function owns(address _from, uint256 tokenID) internal view returns(bool){\n    return ownerOfNFT[tokenID] == _from;\n  }\n\n  function createKittyGen0(uint256 _genes) public onlyOwner returns(uint256) {\n    //takes the genes that you send in from front send\n    //creates a new kitty for us with those specific genes\n    require(gen0Counter < gen0Limit);\n\n    gen0Counter++;\n    //use _createKitty()\n\n    return _createKitty(0, 0, 0, _genes, address(this));\n  }\n\n  function _createKitty(uint256 _momID, uint256 _dadID, uint256 _generation, uint256 _genes,address _owner) internal returns(uint256){\n\n      Kittys memory _kitty = Kittys({\n\n        momID: uint32(_momID),\n        dadID: uint32(_dadID),\n        generation: uint16(_generation),\n        genes: _genes,\n        birthTime: uint64(block.timestamp)\n        });\n\n      kittys.push(_kitty);\n\n      uint256 newKittenID = kittys.length;\n\n      _transfer(address(0), _owner, newKittenID);\n\n      emit Birth(_owner, newKittenID, _momID, _dadID, _genes);\n\n      return newKittenID;\n\n  }\n\n}\n",
  "sourcePath": "/Users/williamlamarche/Desktop/Blockchain-Development/ETHdApp/contracts/KittycontractNFT.sol",
  "compiler": {
    "name": "solc",
    "version": "0.8.0+commit.c7dfd78e.Emscripten.clang"
  },
  "schemaVersion": "3.4.1",
  "updatedAt": "2021-09-15T19:21:55.831Z",
  "networkType": "ethereum",
  "devdoc": {
    "kind": "dev",
    "methods": {
      "balanceOf(address)": {
        "details": "Returns the number of tokens in ``owner``'s account."
      },
      "owner()": {
        "details": "Returns the address of the current owner."
      },
      "ownerOf(uint256)": {
        "details": "Returns the owner of the `tokenId` token. Requirements: - `tokenId` must exist."
      },
      "renounceOwnership()": {
        "details": "Leaves the contract without owner. It will not be possible to call `onlyOwner` functions anymore. Can only be called by the current owner. NOTE: Renouncing ownership will leave the contract without an owner, thereby removing any functionality that is only available to the owner."
      },
      "transferOwnership(address)": {
        "details": "Transfers ownership of the contract to a new account (`newOwner`). Can only be called by the current owner."
      }
    },
    "version": 1
  },
  "userdoc": {
    "kind": "user",
    "methods": {},
    "version": 1
  }
}