{
  "contractName": "KittycontractNFT",
  "abi": [
    {
      "anonymous": false,
      "inputs": [
        {
          "indexed": true,
          "internalType": "address",
          "name": "owner",
          "type": "address"
        },
        {
          "indexed": true,
          "internalType": "address",
          "name": "approved",
          "type": "address"
        },
        {
          "indexed": true,
          "internalType": "uint256",
          "name": "tokenId",
          "type": "uint256"
        }
      ],
      "name": "Approval",
      "type": "event"
    },
    {
      "anonymous": false,
      "inputs": [
        {
          "indexed": true,
          "internalType": "address",
          "name": "owner",
          "type": "address"
        },
        {
          "indexed": true,
          "internalType": "address",
          "name": "operator",
          "type": "address"
        },
        {
          "indexed": false,
          "internalType": "bool",
          "name": "approved",
          "type": "bool"
        }
      ],
      "name": "ApprovalForAll",
      "type": "event"
    },
    {
      "anonymous": false,
      "inputs": [
        {
          "indexed": false,
          "internalType": "address",
          "name": "_owner",
          "type": "address"
        },
        {
          "indexed": false,
          "internalType": "uint256",
          "name": "_tokenID",
          "type": "uint256"
        },
        {
          "indexed": false,
          "internalType": "uint256",
          "name": "momID",
          "type": "uint256"
        },
        {
          "indexed": false,
          "internalType": "uint256",
          "name": "dadID",
          "type": "uint256"
        },
        {
          "indexed": false,
          "internalType": "uint256",
          "name": "_genes",
          "type": "uint256"
        }
      ],
      "name": "Birth",
      "type": "event"
    },
    {
      "anonymous": false,
      "inputs": [
        {
          "indexed": true,
          "internalType": "address",
          "name": "previousOwner",
          "type": "address"
        },
        {
          "indexed": true,
          "internalType": "address",
          "name": "newOwner",
          "type": "address"
        }
      ],
      "name": "OwnershipTransferred",
      "type": "event"
    },
    {
      "anonymous": false,
      "inputs": [
        {
          "indexed": true,
          "internalType": "address",
          "name": "from",
          "type": "address"
        },
        {
          "indexed": true,
          "internalType": "address",
          "name": "to",
          "type": "address"
        },
        {
          "indexed": true,
          "internalType": "uint256",
          "name": "tokenId",
          "type": "uint256"
        }
      ],
      "name": "Transfer",
      "type": "event"
    },
    {
      "inputs": [],
      "name": "_tokenName",
      "outputs": [
        {
          "internalType": "string",
          "name": "",
          "type": "string"
        }
      ],
      "stateMutability": "view",
      "type": "function",
      "constant": true
    },
    {
      "inputs": [],
      "name": "_tokenSymbol",
      "outputs": [
        {
          "internalType": "string",
          "name": "",
          "type": "string"
        }
      ],
      "stateMutability": "view",
      "type": "function",
      "constant": true
    },
    {
      "inputs": [],
      "name": "gen0Counter",
      "outputs": [
        {
          "internalType": "uint256",
          "name": "",
          "type": "uint256"
        }
      ],
      "stateMutability": "view",
      "type": "function",
      "constant": true
    },
    {
      "inputs": [],
      "name": "gen0Limit",
      "outputs": [
        {
          "internalType": "uint256",
          "name": "",
          "type": "uint256"
        }
      ],
      "stateMutability": "view",
      "type": "function",
      "constant": true
    },
    {
      "inputs": [],
      "name": "gen1Counter",
      "outputs": [
        {
          "internalType": "uint256",
          "name": "",
          "type": "uint256"
        }
      ],
      "stateMutability": "view",
      "type": "function",
      "constant": true
    },
    {
      "inputs": [],
      "name": "gen1Limit",
      "outputs": [
        {
          "internalType": "uint256",
          "name": "",
          "type": "uint256"
        }
      ],
      "stateMutability": "view",
      "type": "function",
      "constant": true
    },
    {
      "inputs": [
        {
          "internalType": "uint256",
          "name": "",
          "type": "uint256"
        }
      ],
      "name": "nftApprovals",
      "outputs": [
        {
          "internalType": "address",
          "name": "",
          "type": "address"
        }
      ],
      "stateMutability": "view",
      "type": "function",
      "constant": true
    },
    {
      "inputs": [],
      "name": "owner",
      "outputs": [
        {
          "internalType": "address",
          "name": "",
          "type": "address"
        }
      ],
      "stateMutability": "view",
      "type": "function",
      "constant": true
    },
    {
      "inputs": [],
      "name": "renounceOwnership",
      "outputs": [],
      "stateMutability": "nonpayable",
      "type": "function"
    },
    {
      "inputs": [
        {
          "internalType": "address",
          "name": "newOwner",
          "type": "address"
        }
      ],
      "name": "transferOwnership",
      "outputs": [],
      "stateMutability": "nonpayable",
      "type": "function"
    },
    {
      "inputs": [
        {
          "internalType": "bytes4",
          "name": "_interfaceID",
          "type": "bytes4"
        }
      ],
      "name": "supportsInterface",
      "outputs": [
        {
          "internalType": "bool",
          "name": "",
          "type": "bool"
        }
      ],
      "stateMutability": "view",
      "type": "function",
      "constant": true
    },
    {
      "inputs": [
        {
          "internalType": "address",
          "name": "owner",
          "type": "address"
        }
      ],
      "name": "balanceOf",
      "outputs": [
        {
          "internalType": "uint256",
          "name": "balance",
          "type": "uint256"
        }
      ],
      "stateMutability": "view",
      "type": "function",
      "constant": true
    },
    {
      "inputs": [],
      "name": "totalSupply",
      "outputs": [
        {
          "internalType": "uint256",
          "name": "total",
          "type": "uint256"
        }
      ],
      "stateMutability": "view",
      "type": "function",
      "constant": true
    },
    {
      "inputs": [],
      "name": "name",
      "outputs": [
        {
          "internalType": "string",
          "name": "tokenName",
          "type": "string"
        }
      ],
      "stateMutability": "pure",
      "type": "function",
      "constant": true
    },
    {
      "inputs": [],
      "name": "symbol",
      "outputs": [
        {
          "internalType": "string",
          "name": "tokenSymbol",
          "type": "string"
        }
      ],
      "stateMutability": "pure",
      "type": "function",
      "constant": true
    },
    {
      "inputs": [
        {
          "internalType": "uint256",
          "name": "tokenId",
          "type": "uint256"
        }
      ],
      "name": "ownerOf",
      "outputs": [
        {
          "internalType": "address",
          "name": "owner",
          "type": "address"
        }
      ],
      "stateMutability": "view",
      "type": "function",
      "constant": true
    },
    {
      "inputs": [
        {
          "internalType": "uint256",
          "name": "_dad",
          "type": "uint256"
        },
        {
          "internalType": "uint256",
          "name": "_mom",
          "type": "uint256"
        }
      ],
      "name": "breedKittys",
      "outputs": [
        {
          "internalType": "uint256",
          "name": "",
          "type": "uint256"
        }
      ],
      "stateMutability": "nonpayable",
      "type": "function"
    },
    {
      "inputs": [
        {
          "internalType": "address",
          "name": "_to",
          "type": "address"
        },
        {
          "internalType": "uint256",
          "name": "_tokenID",
          "type": "uint256"
        }
      ],
      "name": "transfer",
      "outputs": [],
      "stateMutability": "nonpayable",
      "type": "function"
    },
    {
      "inputs": [
        {
          "internalType": "uint256",
          "name": "_genes",
          "type": "uint256"
        }
      ],
      "name": "createKittyGen0",
      "outputs": [
        {
          "internalType": "uint256",
          "name": "",
          "type": "uint256"
        }
      ],
      "stateMutability": "nonpayable",
      "type": "function"
    },
    {
      "inputs": [
        {
          "internalType": "uint256",
          "name": "tokenID",
          "type": "uint256"
        }
      ],
      "name": "getKitty",
      "outputs": [
        {
          "internalType": "uint256",
          "name": "",
          "type": "uint256"
        },
        {
          "internalType": "uint256",
          "name": "",
          "type": "uint256"
        },
        {
          "internalType": "uint256",
          "name": "",
          "type": "uint256"
        },
        {
          "internalType": "address",
          "name": "",
          "type": "address"
        },
        {
          "internalType": "uint256",
          "name": "",
          "type": "uint256"
        }
      ],
      "stateMutability": "view",
      "type": "function",
      "constant": true
    },
    {
      "inputs": [
        {
          "internalType": "address",
          "name": "_approved",
          "type": "address"
        },
        {
          "internalType": "uint256",
          "name": "_tokenId",
          "type": "uint256"
        }
      ],
      "name": "approve",
      "outputs": [],
      "stateMutability": "nonpayable",
      "type": "function"
    },
    {
      "inputs": [
        {
          "internalType": "address",
          "name": "_operator",
          "type": "address"
        },
        {
          "internalType": "bool",
          "name": "_approved",
          "type": "bool"
        }
      ],
      "name": "setApprovalForAll",
      "outputs": [],
      "stateMutability": "nonpayable",
      "type": "function"
    },
    {
      "inputs": [
        {
          "internalType": "address",
          "name": "_owner",
          "type": "address"
        },
        {
          "internalType": "address",
          "name": "_operator",
          "type": "address"
        }
      ],
      "name": "isApprovedForAll",
      "outputs": [
        {
          "internalType": "bool",
          "name": "",
          "type": "bool"
        }
      ],
      "stateMutability": "view",
      "type": "function",
      "constant": true
    },
    {
      "inputs": [
        {
          "internalType": "uint256",
          "name": "_tokenId",
          "type": "uint256"
        }
      ],
      "name": "getApproved",
      "outputs": [
        {
          "internalType": "address",
          "name": "",
          "type": "address"
        }
      ],
      "stateMutability": "view",
      "type": "function",
      "constant": true
    },
    {
      "inputs": [
        {
          "internalType": "address",
          "name": "_from",
          "type": "address"
        },
        {
          "internalType": "address",
          "name": "_to",
          "type": "address"
        },
        {
          "internalType": "uint256",
          "name": "_tokenId",
          "type": "uint256"
        }
      ],
      "name": "transferFrom",
      "outputs": [],
      "stateMutability": "nonpayable",
      "type": "function"
    },
    {
      "inputs": [
        {
          "internalType": "address",
          "name": "_from",
          "type": "address"
        },
        {
          "internalType": "address",
          "name": "_to",
          "type": "address"
        },
        {
          "internalType": "uint256",
          "name": "_tokenId",
          "type": "uint256"
        }
      ],
      "name": "safeTransferFrom",
      "outputs": [],
      "stateMutability": "nonpayable",
      "type": "function"
    },
    {
      "inputs": [
        {
          "internalType": "address",
          "name": "_from",
          "type": "address"
        },
        {
          "internalType": "address",
          "name": "_to",
          "type": "address"
        },
        {
          "internalType": "uint256",
          "name": "_tokenId",
          "type": "uint256"
        },
        {
          "internalType": "bytes",
          "name": "data",
          "type": "bytes"
        }
      ],
      "name": "safeTransferFrom",
      "outputs": [],
      "stateMutability": "nonpayable",
      "type": "function"
    }
  ],
  "bytecode": "0x608060405234801561001057600080fd5b5060006100216100c460201b60201c565b9050806000806101000a81548173ffffffffffffffffffffffffffffffffffffffff021916908373ffffffffffffffffffffffffffffffffffffffff1602179055508073ffffffffffffffffffffffffffffffffffffffff16600073ffffffffffffffffffffffffffffffffffffffff167f8be0079c531659141344cd1fd0a4f28419497f9722a3daafe3b4186f6b6457e060405160405180910390a3506100cc565b600033905090565b612826806100db6000396000f3fe608060405234801561001057600080fd5b50600436106101a95760003560e01c80638369a08b116100f9578063d5a776ca11610097578063e98b7f4d11610071578063e98b7f4d146104d0578063ecf35cca14610504578063ef5e94aa14610522578063f2fde38b14610540576101a9565b8063d5a776ca14610452578063e515a4d114610482578063e985e9c5146104a0576101a9565b80639f0c8125116100d35780639f0c8125146103e0578063a22cb465146103fe578063a9059cbb1461041a578063b88d4fde14610436576101a9565b80638369a08b146103745780638da5cb5b146103a457806395d89b41146103c2576101a9565b806332c2d763116101665780636352211e116101405780636352211e146102da57806370a082311461030a57806370d6ad721461033a578063715018a61461036a576101a9565b806332c2d7631461028257806342842e0e146102a057806347d287e5146102bc576101a9565b806301ffc9a7146101ae57806306fdde03146101de578063081812fc146101fc578063095ea7b31461022c57806318160ddd1461024857806323b872dd14610266575b600080fd5b6101c860048036038101906101c39190611e33565b61055c565b6040516101d591906122e7565b60405180910390f35b6101e661060d565b6040516101f39190612302565b60405180910390f35b61021660048036038101906102119190611e85565b61064a565b604051610223919061222d565b60405180910390f35b61024660048036038101906102419190611df7565b61070b565b005b6102506107f7565b60405161025d9190612404565b60405180910390f35b610280600480360381019061027b9190611cf1565b610804565b005b61028a610a4a565b6040516102979190612404565b60405180910390f35b6102ba60048036038101906102b59190611cf1565b610a50565b005b6102c4610a70565b6040516102d19190612404565b60405180910390f35b6102f460048036038101906102ef9190611e85565b610a75565b604051610301919061222d565b60405180910390f35b610324600480360381019061031f9190611c8c565b610ab2565b6040516103319190612404565b60405180910390f35b610354600480360381019061034f9190611eae565b610afb565b6040516103619190612404565b60405180910390f35b610372610b4b565b005b61038e60048036038101906103899190611e85565b610c85565b60405161039b919061222d565b60405180910390f35b6103ac610cb8565b6040516103b9919061222d565b60405180910390f35b6103ca610ce1565b6040516103d79190612302565b60405180910390f35b6103e8610d1e565b6040516103f59190612302565b60405180910390f35b61041860048036038101906104139190611dbb565b610d57565b005b610434600480360381019061042f9190611df7565b610ec3565b005b610450600480360381019061044b9190611d40565b610fc4565b005b61046c60048036038101906104679190611e85565b61120c565b6040516104799190612404565b60405180910390f35b61048a61124c565b6040516104979190612404565b60405180910390f35b6104ba60048036038101906104b59190611cb5565b611251565b6040516104c791906122e7565b60405180910390f35b6104ea60048036038101906104e59190611e85565b6112fd565b6040516104fb95949392919061241f565b60405180910390f35b61050c6113e4565b6040516105199190612302565b60405180910390f35b61052a61141d565b6040516105379190612404565b60405180910390f35b61055a60048036038101906105559190611c8c565b611423565b005b60006380ac58cd60e01b7bffffffffffffffffffffffffffffffffffffffffffffffffffffffff1916827bffffffffffffffffffffffffffffffffffffffffffffffffffffffff191614806105f557506301ffc9a760e01b7bffffffffffffffffffffffffffffffffffffffffffffffffffffffff1916827bffffffffffffffffffffffffffffffffffffffffffffffffffffffff1916145b156106035760019050610608565b600090505b919050565b60606040518060400160405280601081526020017f576174657273746f6e654b697474797300000000000000000000000000000000815250905090565b600060078054905082101561070557600073ffffffffffffffffffffffffffffffffffffffff166003600084815260200190815260200160002060009054906101000a900473ffffffffffffffffffffffffffffffffffffffff1673ffffffffffffffffffffffffffffffffffffffff1614156106ca5760009050610706565b6003600083815260200190815260200160002060009054906101000a900473ffffffffffffffffffffffffffffffffffffffff169050610706565b5b919050565b600073ffffffffffffffffffffffffffffffffffffffff168273ffffffffffffffffffffffffffffffffffffffff16141561077b576040517f08c379a0000000000000000000000000000000000000000000000000000000008152600401610772906123a4565b60405180910390fd5b61078533826115cc565b61078e57600080fd5b6107988282611638565b808273ffffffffffffffffffffffffffffffffffffffff163373ffffffffffffffffffffffffffffffffffffffff167f8c5be1e5ebec7d5bd14f71427d1e84f3dd0314c0f7b2291e5b200ac8c7c3b92560405160405180910390a45050565b6000600780549050905090565b61080e33826115cc565b806108a6575060011515600460008573ffffffffffffffffffffffffffffffffffffffff1673ffffffffffffffffffffffffffffffffffffffff16815260200190815260200160002060003373ffffffffffffffffffffffffffffffffffffffff1673ffffffffffffffffffffffffffffffffffffffff16815260200190815260200160002060009054906101000a900460ff161515145b8061090f57503373ffffffffffffffffffffffffffffffffffffffff166003600083815260200190815260200160002060009054906101000a900473ffffffffffffffffffffffffffffffffffffffff1673ffffffffffffffffffffffffffffffffffffffff16145b61094e576040517f08c379a000000000000000000000000000000000000000000000000000000000815260040161094590612364565b60405180910390fd5b8273ffffffffffffffffffffffffffffffffffffffff166002600083815260200190815260200160002060009054906101000a900473ffffffffffffffffffffffffffffffffffffffff1673ffffffffffffffffffffffffffffffffffffffff16146109b957600080fd5b600073ffffffffffffffffffffffffffffffffffffffff168273ffffffffffffffffffffffffffffffffffffffff161415610a29576040517f08c379a0000000000000000000000000000000000000000000000000000000008152600401610a20906123e4565b60405180910390fd5b6007805490508110610a3a57600080fd5b610a4583838361168e565b505050565b60065481565b610a6b83838360405180602001604052806000815250610fc4565b505050565b600a81565b60006002600083815260200190815260200160002060009054906101000a900473ffffffffffffffffffffffffffffffffffffffff169050919050565b6000600160008373ffffffffffffffffffffffffffffffffffffffff1673ffffffffffffffffffffffffffffffffffffffff168152602001908152602001600020549050919050565b60008064174876e80084610b0f9190612561565b905060006402540be40084610b2491906126c5565b905060008183610b34919061250b565b9050610b41818787611857565b5050505092915050565b610b53611898565b73ffffffffffffffffffffffffffffffffffffffff16610b71610cb8565b73ffffffffffffffffffffffffffffffffffffffff1614610bc7576040517f08c379a0000000000000000000000000000000000000000000000000000000008152600401610bbe90612384565b60405180910390fd5b600073ffffffffffffffffffffffffffffffffffffffff1660008054906101000a900473ffffffffffffffffffffffffffffffffffffffff1673ffffffffffffffffffffffffffffffffffffffff167f8be0079c531659141344cd1fd0a4f28419497f9722a3daafe3b4186f6b6457e060405160405180910390a360008060006101000a81548173ffffffffffffffffffffffffffffffffffffffff021916908373ffffffffffffffffffffffffffffffffffffffff160217905550565b60036020528060005260406000206000915054906101000a900473ffffffffffffffffffffffffffffffffffffffff1681565b60008060009054906101000a900473ffffffffffffffffffffffffffffffffffffffff16905090565b60606040518060400160405280600381526020017f57534b0000000000000000000000000000000000000000000000000000000000815250905090565b6040518060400160405280601081526020017f576174657273746f6e654b69747479730000000000000000000000000000000081525081565b3373ffffffffffffffffffffffffffffffffffffffff168273ffffffffffffffffffffffffffffffffffffffff161415610dc6576040517f08c379a0000000000000000000000000000000000000000000000000000000008152600401610dbd906123c4565b60405180910390fd5b80600460003373ffffffffffffffffffffffffffffffffffffffff1673ffffffffffffffffffffffffffffffffffffffff16815260200190815260200160002060008473ffffffffffffffffffffffffffffffffffffffff1673ffffffffffffffffffffffffffffffffffffffff16815260200190815260200160002060006101000a81548160ff0219169083151502179055508173ffffffffffffffffffffffffffffffffffffffff163373ffffffffffffffffffffffffffffffffffffffff167f17307eab39ab6107e8899845ad3d59bd9653f200f220920489ca2b5937696c3183604051610eb791906122e7565b60405180910390a35050565b600073ffffffffffffffffffffffffffffffffffffffff168273ffffffffffffffffffffffffffffffffffffffff161415610f33576040517f08c379a0000000000000000000000000000000000000000000000000000000008152600401610f2a906123a4565b60405180910390fd5b3073ffffffffffffffffffffffffffffffffffffffff168273ffffffffffffffffffffffffffffffffffffffff161415610fa2576040517f08c379a0000000000000000000000000000000000000000000000000000000008152600401610f9990612324565b60405180910390fd5b610fac33826115cc565b610fb557600080fd5b610fc033838361168e565b5050565b610fce33836115cc565b80611066575060011515600460008673ffffffffffffffffffffffffffffffffffffffff1673ffffffffffffffffffffffffffffffffffffffff16815260200190815260200160002060003373ffffffffffffffffffffffffffffffffffffffff1673ffffffffffffffffffffffffffffffffffffffff16815260200190815260200160002060009054906101000a900460ff161515145b806110cf57503373ffffffffffffffffffffffffffffffffffffffff166003600084815260200190815260200160002060009054906101000a900473ffffffffffffffffffffffffffffffffffffffff1673ffffffffffffffffffffffffffffffffffffffff16145b61110e576040517f08c379a000000000000000000000000000000000000000000000000000000000815260040161110590612364565b60405180910390fd5b8373ffffffffffffffffffffffffffffffffffffffff166002600084815260200190815260200160002060009054906101000a900473ffffffffffffffffffffffffffffffffffffffff1673ffffffffffffffffffffffffffffffffffffffff161461117957600080fd5b600073ffffffffffffffffffffffffffffffffffffffff168373ffffffffffffffffffffffffffffffffffffffff1614156111e9576040517f08c379a00000000000000000000000000000000000000000000000000000000081526004016111e0906123e4565b60405180910390fd5b60078054905082106111fa57600080fd5b611206848484846118a0565b50505050565b6000600a600554111561121e57600080fd5b600560008154809291906112319061267c565b9190505550611245600080600085336118c6565b9050919050565b600a81565b600060011515600460008573ffffffffffffffffffffffffffffffffffffffff1673ffffffffffffffffffffffffffffffffffffffff16815260200190815260200160002060008473ffffffffffffffffffffffffffffffffffffffff1673ffffffffffffffffffffffffffffffffffffffff16815260200190815260200160002060009054906101000a900460ff16151514156112f257600190506112f7565b600090505b92915050565b60008060008060008060078781548110611340577f4e487b7100000000000000000000000000000000000000000000000000000000600052603260045260246000fd5b9060005260206000209060030201905080600101548160020160009054906101000a900463ffffffff168260020160049054906101000a900463ffffffff168360000160009054906101000a900473ffffffffffffffffffffffffffffffffffffffff168460020160089054906101000a900461ffff168363ffffffff1693508263ffffffff1692508061ffff169050955095509550955095505091939590929450565b6040518060400160405280600381526020017f57534b000000000000000000000000000000000000000000000000000000000081525081565b60055481565b61142b611898565b73ffffffffffffffffffffffffffffffffffffffff16611449610cb8565b73ffffffffffffffffffffffffffffffffffffffff161461149f576040517f08c379a000000000000000000000000000000000000000000000000000000000815260040161149690612384565b60405180910390fd5b600073ffffffffffffffffffffffffffffffffffffffff168173ffffffffffffffffffffffffffffffffffffffff16141561150f576040517f08c379a000000000000000000000000000000000000000000000000000000000815260040161150690612344565b60405180910390fd5b8073ffffffffffffffffffffffffffffffffffffffff1660008054906101000a900473ffffffffffffffffffffffffffffffffffffffff1673ffffffffffffffffffffffffffffffffffffffff167f8be0079c531659141344cd1fd0a4f28419497f9722a3daafe3b4186f6b6457e060405160405180910390a3806000806101000a81548173ffffffffffffffffffffffffffffffffffffffff021916908373ffffffffffffffffffffffffffffffffffffffff16021790555050565b60008273ffffffffffffffffffffffffffffffffffffffff166002600084815260200190815260200160002060009054906101000a900473ffffffffffffffffffffffffffffffffffffffff1673ffffffffffffffffffffffffffffffffffffffff1614905092915050565b816003600083815260200190815260200160002060006101000a81548173ffffffffffffffffffffffffffffffffffffffff021916908373ffffffffffffffffffffffffffffffffffffffff1602179055505050565b60018060008473ffffffffffffffffffffffffffffffffffffffff1673ffffffffffffffffffffffffffffffffffffffff16815260200190815260200160002060008282546116dd919061250b565b92505081905550816002600083815260200190815260200160002060006101000a81548173ffffffffffffffffffffffffffffffffffffffff021916908373ffffffffffffffffffffffffffffffffffffffff160217905550600073ffffffffffffffffffffffffffffffffffffffff168373ffffffffffffffffffffffffffffffffffffffff16146117f75760018060008573ffffffffffffffffffffffffffffffffffffffff1673ffffffffffffffffffffffffffffffffffffffff16815260200190815260200160002060008282546117b99190612592565b925050819055506003600082815260200190815260200160002060006101000a81549073ffffffffffffffffffffffffffffffffffffffff02191690555b808273ffffffffffffffffffffffffffffffffffffffff168473ffffffffffffffffffffffffffffffffffffffff167fddf252ad1be2c89b69c2b068fc378daa952ba7f163c4a11628f55a4df523b3ef60405160405180910390a4505050565b6000600a600654111561186957600080fd5b6006600081548092919061187c9061267c565b919050555061188f8383600187336118c6565b90509392505050565b600033905090565b6118ac84848484611a77565b6118b557600080fd5b6118c084848461168e565b50505050565b6000806040518060a001604052808473ffffffffffffffffffffffffffffffffffffffff1681526020018581526020018863ffffffff1681526020018763ffffffff1681526020018661ffff168152509050600781908060018154018082558091505060019003906000526020600020906003020160009091909190915060008201518160000160006101000a81548173ffffffffffffffffffffffffffffffffffffffff021916908373ffffffffffffffffffffffffffffffffffffffff1602179055506020820151816001015560408201518160020160006101000a81548163ffffffff021916908363ffffffff16021790555060608201518160020160046101000a81548163ffffffff021916908363ffffffff16021790555060808201518160020160086101000a81548161ffff021916908361ffff160217905550505060006001600780549050611a1c9190612592565b9050611a2a6000858361168e565b7f0a5311bd2a6608f08a180df2ee7c5946819a649b204b554bb8e39825b2c50ad584828a8a89604051611a61959493929190612294565b60405180910390a1809250505095945050505050565b6000611a8284611ba2565b611a8f5760019050611b9a565b60008473ffffffffffffffffffffffffffffffffffffffff1663150b7a02338887876040518563ffffffff1660e01b8152600401611ad09493929190612248565b602060405180830381600087803b158015611aea57600080fd5b505af1158015611afe573d6000803e3d6000fd5b505050506040513d601f19601f82011682018060405250810190611b229190611e5c565b90507f150b7a023d4804d13e8c85fb27262cb750cf6ba9f9dd3bb30d90f482ceeb4b1f7bffffffffffffffffffffffffffffffffffffffffffffffffffffffff1916817bffffffffffffffffffffffffffffffffffffffffffffffffffffffff19161415611b94576001915050611b9a565b60009150505b949350505050565b600080823b905060008163ffffffff1611915050919050565b6000611bce611bc9846124a3565b612472565b905082815260208101848484011115611be657600080fd5b611bf184828561263a565b509392505050565b600081359050611c0881612794565b92915050565b600081359050611c1d816127ab565b92915050565b600081359050611c32816127c2565b92915050565b600081519050611c47816127c2565b92915050565b600082601f830112611c5e57600080fd5b8135611c6e848260208601611bbb565b91505092915050565b600081359050611c86816127d9565b92915050565b600060208284031215611c9e57600080fd5b6000611cac84828501611bf9565b91505092915050565b60008060408385031215611cc857600080fd5b6000611cd685828601611bf9565b9250506020611ce785828601611bf9565b9150509250929050565b600080600060608486031215611d0657600080fd5b6000611d1486828701611bf9565b9350506020611d2586828701611bf9565b9250506040611d3686828701611c77565b9150509250925092565b60008060008060808587031215611d5657600080fd5b6000611d6487828801611bf9565b9450506020611d7587828801611bf9565b9350506040611d8687828801611c77565b925050606085013567ffffffffffffffff811115611da357600080fd5b611daf87828801611c4d565b91505092959194509250565b60008060408385031215611dce57600080fd5b6000611ddc85828601611bf9565b9250506020611ded85828601611c0e565b9150509250929050565b60008060408385031215611e0a57600080fd5b6000611e1885828601611bf9565b9250506020611e2985828601611c77565b9150509250929050565b600060208284031215611e4557600080fd5b6000611e5384828501611c23565b91505092915050565b600060208284031215611e6e57600080fd5b6000611e7c84828501611c38565b91505092915050565b600060208284031215611e9757600080fd5b6000611ea584828501611c77565b91505092915050565b60008060408385031215611ec157600080fd5b6000611ecf85828601611c77565b9250506020611ee085828601611c77565b9150509250929050565b611ef3816125c6565b82525050565b611f02816125d8565b82525050565b6000611f13826124d3565b611f1d81856124e9565b9350611f2d818560208601612649565b611f3681612783565b840191505092915050565b6000611f4c826124de565b611f5681856124fa565b9350611f66818560208601612649565b611f6f81612783565b840191505092915050565b6000611f876032836124fa565b91507f4552433732313a205472616e73666572206973206e6f7420737570706f72746560008301527f6420746f207468697320636f6e747261637400000000000000000000000000006020830152604082019050919050565b6000611fed6026836124fa565b91507f4f776e61626c653a206e6577206f776e657220697320746865207a65726f206160008301527f64647265737300000000000000000000000000000000000000000000000000006020830152604082019050919050565b6000612053603c836124fa565b91507f4552433732313a205065726d697373696f6e20746f207472616e73666572206e60008301527f6f74206772616e7465642066726f6d20796f75722061646472657373000000006020830152604082019050919050565b60006120b96020836124fa565b91507f4f776e61626c653a2063616c6c6572206973206e6f7420746865206f776e65726000830152602082019050919050565b60006120f96025836124fa565b91507f4552433732313a205472616e7366657220697320746f2074686520302061646460008301527f72657373210000000000000000000000000000000000000000000000000000006020830152604082019050919050565b600061215f602a836124fa565b91507f4552433732313a2043616e6e6f74202a617070726f76652a20796f7572206f7760008301527f6e206164647265737321000000000000000000000000000000000000000000006020830152604082019050919050565b60006121c5602c836124fa565b91507f4552433732313a205472616e736665722063616e6e6f7420676f20746f20746860008301527f65203020616464726573732100000000000000000000000000000000000000006020830152604082019050919050565b61222781612630565b82525050565b60006020820190506122426000830184611eea565b92915050565b600060808201905061225d6000830187611eea565b61226a6020830186611eea565b612277604083018561221e565b81810360608301526122898184611f08565b905095945050505050565b600060a0820190506122a96000830188611eea565b6122b6602083018761221e565b6122c3604083018661221e565b6122d0606083018561221e565b6122dd608083018461221e565b9695505050505050565b60006020820190506122fc6000830184611ef9565b92915050565b6000602082019050818103600083015261231c8184611f41565b905092915050565b6000602082019050818103600083015261233d81611f7a565b9050919050565b6000602082019050818103600083015261235d81611fe0565b9050919050565b6000602082019050818103600083015261237d81612046565b9050919050565b6000602082019050818103600083015261239d816120ac565b9050919050565b600060208201905081810360008301526123bd816120ec565b9050919050565b600060208201905081810360008301526123dd81612152565b9050919050565b600060208201905081810360008301526123fd816121b8565b9050919050565b6000602082019050612419600083018461221e565b92915050565b600060a082019050612434600083018861221e565b612441602083018761221e565b61244e604083018661221e565b61245b6060830185611eea565b612468608083018461221e565b9695505050505050565b6000604051905081810181811067ffffffffffffffff8211171561249957612498612754565b5b8060405250919050565b600067ffffffffffffffff8211156124be576124bd612754565b5b601f19601f8301169050602081019050919050565b600081519050919050565b600081519050919050565b600082825260208201905092915050565b600082825260208201905092915050565b600061251682612630565b915061252183612630565b9250827fffffffffffffffffffffffffffffffffffffffffffffffffffffffffffffffff03821115612556576125556126f6565b5b828201905092915050565b600061256c82612630565b915061257783612630565b92508261258757612586612725565b5b828204905092915050565b600061259d82612630565b91506125a883612630565b9250828210156125bb576125ba6126f6565b5b828203905092915050565b60006125d182612610565b9050919050565b60008115159050919050565b60007fffffffff0000000000000000000000000000000000000000000000000000000082169050919050565b600073ffffffffffffffffffffffffffffffffffffffff82169050919050565b6000819050919050565b82818337600083830152505050565b60005b8381101561266757808201518184015260208101905061264c565b83811115612676576000848401525b50505050565b600061268782612630565b91507fffffffffffffffffffffffffffffffffffffffffffffffffffffffffffffffff8214156126ba576126b96126f6565b5b600182019050919050565b60006126d082612630565b91506126db83612630565b9250826126eb576126ea612725565b5b828206905092915050565b7f4e487b7100000000000000000000000000000000000000000000000000000000600052601160045260246000fd5b7f4e487b7100000000000000000000000000000000000000000000000000000000600052601260045260246000fd5b7f4e487b7100000000000000000000000000000000000000000000000000000000600052604160045260246000fd5b6000601f19601f8301169050919050565b61279d816125c6565b81146127a857600080fd5b50565b6127b4816125d8565b81146127bf57600080fd5b50565b6127cb816125e4565b81146127d657600080fd5b50565b6127e281612630565b81146127ed57600080fd5b5056fea26469706673582212204930d9a02f7145124dee6ae9623709dd08477488ba87ebeda626e29dda2fdf8564736f6c63430008000033",
  "immutableReferences": {},
  "source": "pragma solidity ^0.8.0;\npragma experimental ABIEncoderV2;\n\nimport \"./IERC721.sol\";\nimport \"./Ownable.sol\";\nimport \"./IERC721Receiver.sol\";\n\ncontract KittycontractNFT is IERC721, Ownable {\n\n  event Birth(address _owner, uint256 _tokenID, uint256 momID, uint256 dadID, uint256 _genes);\n\n  string public constant _tokenName = \"WaterstoneKittys\";\n  string public constant _tokenSymbol = \"WSK\";\n\n  //used in external func supportsInterface() for contract interoperability\n  bytes4 private constant _INTERFACE_ID_ERC721 = 0x80ac58cd;\n  bytes4 private constant _INTERFACE_ID_ERC165 = 0x01ffc9a7;\n\n  //mapping of NFT balance for address\n  mapping(address => uint256) balances;\n  //mapping of specific NFT owned by address\n  mapping(uint256 => address) ownerOfNFT;\n  //mapping of NFT that gives approval access to another address\n  mapping(uint256 => address) public nftApprovals;\n  //owner address that grants full approval of assets to another addresses\n  mapping(address => mapping(address => bool)) private operatorApproval;\n  //approvalforAll[msg.sender][msg.receiver] = true;\n\n  //NFT creation limit\n  uint256 public constant gen0Limit = 10;\n  uint256 public constant gen1Limit = 10;\n\n  //NFT Gen0 limit\n  uint256 public gen0Counter;\n  uint256 public gen1Counter;\n\n  struct Kittys {\n    address owner;\n    uint256 genes;\n    uint32 momID;\n    uint32 dadID;\n    uint16 generation;\n  }\n\n  Kittys[] kittys;\n\n  //ERC721 standard func that allows other contracts to check to see if OUR contract supports specific ERC standards\n  //INPUT a unique bytes4 hash (Ethereum sets these) to see if my contract returns true (supports) or false (does not support)\n  function supportsInterface(bytes4 _interfaceID) external view returns(bool){\n    if(_interfaceID == _INTERFACE_ID_ERC721 || _interfaceID == _INTERFACE_ID_ERC165){\n      return true;\n    }\n    else{\n      return false;\n    }\n  }\n\n  /**\n   * @dev Returns the number of tokens in ``owner``'s account.\n   */\n  function balanceOf(address owner) external view override returns (uint256 balance){\n    //we need it to return a balance of an owner --> mapping\n    return balances[owner]; //need to create a 'balances' mapping\n  }\n\n  /*\n   * @dev Returns the total number of tokens in circulation.\n   */\n  function totalSupply() public view override returns (uint256 total){\n    return kittys.length;\n  }\n\n  /*\n   * @dev Returns the name of the token.\n   */\n  function name() external pure override returns (string memory tokenName){\n    return _tokenName;\n  }\n\n  /*\n   * @dev Returns the symbol of the token.\n   */\n  function symbol() external pure override returns (string memory tokenSymbol){\n    return _tokenSymbol;\n  }\n\n  /**\n   * @dev Returns the owner of the `tokenId` token.\n   *\n   * Requirements:\n   *\n   * - `tokenId` must exist.\n   */\n  function ownerOf(uint256 tokenId) external view override returns (address owner){\n    return ownerOfNFT[tokenId];\n  }\n\n  //breed momNFT & dadNFT together --> first 8 integers come from dad, last 8 integers come from mom\n  function breedKittys(uint256 _dad, uint256 _mom) public returns(uint256){\n    //extract dad with 11 0's --> dadID / 100,000,000,000\n    //extract momID with momID % 10,000,000,000\n    uint256 dadiDSet = (_dad / 100000000000);\n    uint256 momiDSet = (_mom % 10000000000);\n\n    uint256 kittenKitty = (dadiDSet + momiDSet);\n\n    _createKittyGen1(kittenKitty, _dad, _mom);\n  }\n\n  /* @dev Transfers `tokenId` token from `msg.sender` to `to`.\n  *\n  * Requirements:\n  *\n  * - `to` cannot be the zero address.\n  * - `to` can not be the contract address.\n  * - `tokenId` token must be owned by `msg.sender`.\n  *\n  * Emits a {Transfer} event.\n  */\n  function transfer(address _to, uint256 _tokenID) external override {\n    require(_to != address(0), \"ERC721: Transfer is to the 0 address!\");\n    require(_to != address(this), \"ERC721: Transfer is not supported to this contract\");\n    require(owns(msg.sender, _tokenID));\n\n    _transfer(msg.sender, _to, _tokenID);\n\n  }\n\n  function _transfer(address _from, address _to, uint256 _tokenID) internal {\n    //increment balance of 'to' address + 1\n    balances[_to] += 1;\n\n    //Assign the NFT to the '_to' address\n    ownerOfNFT[_tokenID] = _to;\n\n    //if '_from' address is not the 0 address (aka not a newly minted coin being transferred)...\n    //decrement the balance of the '_from' address by - 1\n    if(_from != address(0)){\n      balances[_from] -= 1;\n      delete nftApprovals[_tokenID];\n    }\n\n    emit Transfer(_from, _to, _tokenID);\n  }\n\n  function owns(address _from, uint256 tokenID) internal view returns(bool){\n    return ownerOfNFT[tokenID] == _from;\n  }\n\n  function createKittyGen0(uint256 _genes) public returns(uint256){\n    //takes the genes that you send in from front send\n    //creates a new kitty for us with those specific genes\n    require(gen0Counter <= gen0Limit);\n\n    gen0Counter++;\n    //use _createKitty()\n\n    return _createKitty(0, 0, 0, _genes, msg.sender);\n  }\n\n  function _createKittyGen1(uint256 _genes, uint256 _mom, uint256 _dad) internal returns(uint256) {\n    //takes the genes that you send in from front send\n    //creates a new kitty for us with those specific genes\n    require(gen1Counter <= gen1Limit);\n\n    gen1Counter++;\n    //use _createKitty()\n\n    return _createKitty(_mom, _dad, 1, _genes, msg.sender);\n  }\n\n  function _createKitty(uint256 _momID, uint256 _dadID, uint256 _generation, uint256 _genes, address _owner) internal returns(uint256){\n\n      Kittys memory _kitty = Kittys({\n\n        momID: uint32(_momID),\n        dadID: uint32(_dadID),\n        generation: uint16(_generation),\n        genes: uint256(_genes),\n        owner: _owner\n        });\n\n      kittys.push(_kitty);\n\n      uint256 newKittenID = kittys.length - 1;\n\n      _transfer(address(0), _owner, newKittenID);\n\n      emit Birth(_owner, newKittenID, _momID, _dadID, _genes);\n\n      return newKittenID;\n\n  }\n\n  function getKitty(uint256 tokenID) external view returns(uint, uint, uint, address, uint){\n\n    //Kittys[] storage _kittys = kittys[tokenID];\n\n      //genes = _kittys.genes;\n      //momID = _kittys.momID;\n      //dadID = _kittys.dadID;\n      //birthTime = _kittys.birthTime;\n      //generation = _kittys.generation;\n\n      Kittys storage kitties = kittys[tokenID];\n\n      return(\n        kitties.genes,\n        kitties.momID,\n        kitties.dadID,\n        kitties.owner,\n        kitties.generation\n        );\n  }\n\n    /// @notice Change or reaffirm the approved address for an NFT\n    /// @dev The zero address indicates there is no approved address.\n    /// Throws unless `msg.sender` is the current NFT owner, or an authorized\n    /// operator of the current owner.\n    /// @param _approved The new approved NFT controller\n    /// @param _tokenId The NFT to approve\n  function approve(address _approved, uint256 _tokenId) external override {\n    //takes a single NFT and gives approval to another address to move\n    require(_approved != address(0), \"ERC721: Transfer is to the 0 address!\");\n    require(owns(msg.sender, _tokenId));\n\n    _approve(_approved, _tokenId);\n\n    emit Approval(msg.sender, _approved, _tokenId);\n  }\n\n  function _approve(address _approved, uint256 _tokenId) internal {\n\n    nftApprovals[_tokenId] = _approved;\n\n  }\n\n  /// @notice Enable or disable approval for a third party (\"operator\") to manage\n  ///  all of `msg.sender`'s assets\n  /// @dev Emits the ApprovalForAll event. The contract MUST allow\n  ///  multiple operators per owner.\n  /// @param _operator Address to add to the set of authorized operators\n  /// @param _approved True if the operator is approved, false to revoke approval\n  function setApprovalForAll(address _operator, bool _approved) external override {\n\n    require(_operator != msg.sender, \"ERC721: Cannot *approve* your own address!\");\n\n    operatorApproval[msg.sender][_operator] = _approved;\n\n    emit ApprovalForAll(msg.sender, _operator, _approved);\n  }\n\n  /// @notice Query if an address is an authorized operator for another address\n  /// @param _owner The address that owns the NFTs\n  /// @param _operator The address that acts on behalf of the owner\n  /// @return True if `_operator` is an approved operator for `_owner`, false otherwise\n  function isApprovedForAll(address _owner, address _operator) external override view returns (bool){\n\n    if(operatorApproval[_owner][_operator] == true){\n      return true;\n    }\n    else {\n      return false;\n    }\n  }\n\n  /// @notice Get the approved address for a single NFT\n  /// @dev Throws if `_tokenId` is not a valid NFT.\n  /// @param _tokenId The NFT to find the approved address for\n  /// @return The approved address for this NFT, or the zero address if there is none\n  function getApproved(uint256 _tokenId) external override view returns (address){\n\n    if(_tokenId < kittys.length){\n        if(nftApprovals[_tokenId] == address(0)) {\n          return address(0);\n        }\n      else{\n        return nftApprovals[_tokenId];\n      }\n    }\n  }\n\n  /// @notice Transfer ownership of an NFT -- THE CALLER IS RESPONSIBLE\n  ///  TO CONFIRM THAT `_to` IS CAPABLE OF RECEIVING NFTS OR ELSE\n  ///  THEY MAY BE PERMANENTLY LOST\n  /// @dev Throws unless `msg.sender` is the current owner, an authorized\n  ///  operator, or the approved address for this NFT. Throws if `_from` is\n  ///  not the current owner. Throws if `_to` is the zero address. Throws if\n  ///  `_tokenId` is not a valid NFT.\n  /// @param _from The current owner of the NFT\n  /// @param _to The new owner\n  /// @param _tokenId The NFT to transfer\n  function transferFrom(address _from, address _to, uint256 _tokenId) external override {\n    require( owns(msg.sender, _tokenId) ||\n    operatorApproval[_from][msg.sender] == true ||\n    nftApprovals[_tokenId] == msg.sender, \"ERC721: Permission to transfer not granted from your address\");\n\n    require(ownerOfNFT[_tokenId] == _from);\n    require(_to != address(0), \"ERC721: Transfer cannot go to the 0 address!\");\n    require(_tokenId < kittys.length);\n\n\n    _transfer(_from, _to, _tokenId);\n\n  }\n\n  function safeTransferFrom(address _from, address _to, uint256 _tokenId) public virtual override {\n    safeTransferFrom(_from, _to, _tokenId, \"\");\n  }\n\n  function safeTransferFrom(address _from, address _to, uint256 _tokenId, bytes memory data) public virtual override {\n    require( owns(msg.sender, _tokenId) ||\n    operatorApproval[_from][msg.sender] == true ||\n    nftApprovals[_tokenId] == msg.sender, \"ERC721: Permission to transfer not granted from your address\");\n\n    require(ownerOfNFT[_tokenId] == _from);\n    require(_to != address(0), \"ERC721: Transfer cannot go to the 0 address!\");\n    require(_tokenId < kittys.length);\n\n    _safeTransfer(_from, _to, _tokenId, data);\n  }\n\n  //part of safeTransferFrom(), CHECKS to make sure token destination supports NFT\n  function _safeTransfer(address _from, address _to, uint256 _tokenId, bytes memory data) internal {\n    require( _checkERC721Support(_from, _to, _tokenId, data) );\n    _transfer(_from, _to, _tokenId);\n    //CHECK if created func '_checkERC721Support' returns boolean true\n  }\n\n  //calls _to contract to see if it supports ERC721 token standard\n  function _checkERC721Support(address _from, address _to, uint256 _tokenId, bytes memory data) internal returns(bool){\n    //call created func 'isContract' with param _to to check if it's a contract\n    if( !_isContract(_to) ){\n      //if NOT a contract, we know it's a wallet --> ERC wallets can support NFTs\n      return true;\n    }\n\n    //if it IS a contract, call onERC721Received\n      //(standard func that contracts must have if they want to\n        //be interoperable with NFTs)\n    //CHECK RETURN VALUE of onERC721Received ^^\n\n    //created an interface contract to make a call to an external contract\n      //how do call an external contract if you only know the address & 1 function\n      //.. make an interface contract.. 'IERC721Receiver'\n    //create a bytes variable that captures value of external call and tests if it's true\n    else{\n      bytes4 returnData = IERC721Receiver(_to).onERC721Received(msg.sender, _from, _tokenId, data);\n\n      if(returnData == bytes4(keccak256(\"onERC721Received(address,address,uint256,bytes)\"))){\n        return true;\n      }\n      else{\n        return false;\n      }\n    }\n  }\n\n  function _isContract(address _to) view internal returns(bool){\n    //if it calls a wallet, code size = 0... if it's a contract, code size > 1\n    uint32 size;\n    assembly{\n      size := extcodesize(_to)\n    }\n    return size > 0;\n  }\n}\n",
  "sourcePath": "/Users/williamlamarche/Desktop/Blockchain-Development/ETHdApp/contracts/KittycontractNFT.sol",
  "compiler": {
    "name": "solc",
    "version": "0.8.0+commit.c7dfd78e.Emscripten.clang"
  },
  "schemaVersion": "3.4.1",
  "updatedAt": "2021-11-03T21:21:00.119Z",
  "networkType": "ethereum",
  "devdoc": {
    "kind": "dev",
    "methods": {
      "approve(address,uint256)": {
        "details": "The zero address indicates there is no approved address. Throws unless `msg.sender` is the current NFT owner, or an authorized operator of the current owner.",
        "params": {
          "_approved": "The new approved NFT controller",
          "_tokenId": "The NFT to approve"
        }
      },
      "balanceOf(address)": {
        "details": "Returns the number of tokens in ``owner``'s account."
      },
      "getApproved(uint256)": {
        "details": "Throws if `_tokenId` is not a valid NFT.",
        "params": {
          "_tokenId": "The NFT to find the approved address for"
        },
        "returns": {
          "_0": "The approved address for this NFT, or the zero address if there is none"
        }
      },
      "isApprovedForAll(address,address)": {
        "params": {
          "_operator": "The address that acts on behalf of the owner",
          "_owner": "The address that owns the NFTs"
        },
        "returns": {
          "_0": "True if `_operator` is an approved operator for `_owner`, false otherwise"
        }
      },
      "owner()": {
        "details": "Returns the address of the current owner."
      },
      "ownerOf(uint256)": {
        "details": "Returns the owner of the `tokenId` token. Requirements: - `tokenId` must exist."
      },
      "renounceOwnership()": {
        "details": "Leaves the contract without owner. It will not be possible to call `onlyOwner` functions anymore. Can only be called by the current owner. NOTE: Renouncing ownership will leave the contract without an owner, thereby removing any functionality that is only available to the owner."
      },
      "safeTransferFrom(address,address,uint256)": {
        "details": "This works identically to the other function with an extra data parameter,  except this function just sets data to \"\".",
        "params": {
          "_from": "The current owner of the NFT",
          "_to": "The new owner",
          "_tokenId": "The NFT to transfer"
        }
      },
      "safeTransferFrom(address,address,uint256,bytes)": {
        "details": "Throws unless `msg.sender` is the current owner, an authorized  operator, or the approved address for this NFT. Throws if `_from` is  not the current owner. Throws if `_to` is the zero address. Throws if  `_tokenId` is not a valid NFT. When transfer is complete, this function  checks if `_to` is a smart contract (code size > 0). If so, it calls  `onERC721Received` on `_to` and throws if the return value is not  `bytes4(keccak256(\"onERC721Received(address,address,uint256,bytes)\"))`.",
        "params": {
          "_from": "The current owner of the NFT",
          "_to": "The new owner",
          "_tokenId": "The NFT to transfer",
          "data": "Additional data with no specified format, sent in call to `_to`"
        }
      },
      "setApprovalForAll(address,bool)": {
        "details": "Emits the ApprovalForAll event. The contract MUST allow  multiple operators per owner.",
        "params": {
          "_approved": "True if the operator is approved, false to revoke approval",
          "_operator": "Address to add to the set of authorized operators"
        }
      },
      "transferFrom(address,address,uint256)": {
        "details": "Throws unless `msg.sender` is the current owner, an authorized  operator, or the approved address for this NFT. Throws if `_from` is  not the current owner. Throws if `_to` is the zero address. Throws if  `_tokenId` is not a valid NFT.",
        "params": {
          "_from": "The current owner of the NFT",
          "_to": "The new owner",
          "_tokenId": "The NFT to transfer"
        }
      },
      "transferOwnership(address)": {
        "details": "Transfers ownership of the contract to a new account (`newOwner`). Can only be called by the current owner."
      }
    },
    "version": 1
  },
  "userdoc": {
    "kind": "user",
    "methods": {
      "approve(address,uint256)": {
        "notice": "Change or reaffirm the approved address for an NFT"
      },
      "getApproved(uint256)": {
        "notice": "Get the approved address for a single NFT"
      },
      "isApprovedForAll(address,address)": {
        "notice": "Query if an address is an authorized operator for another address"
      },
      "safeTransferFrom(address,address,uint256)": {
        "notice": "Transfers the ownership of an NFT from one address to another address"
      },
      "safeTransferFrom(address,address,uint256,bytes)": {
        "notice": "Transfers the ownership of an NFT from one address to another address"
      },
      "setApprovalForAll(address,bool)": {
        "notice": "Enable or disable approval for a third party (\"operator\") to manage  all of `msg.sender`'s assets"
      },
      "transferFrom(address,address,uint256)": {
        "notice": "Transfer ownership of an NFT -- THE CALLER IS RESPONSIBLE  TO CONFIRM THAT `_to` IS CAPABLE OF RECEIVING NFTS OR ELSE  THEY MAY BE PERMANENTLY LOST"
      }
    },
    "version": 1
  }
}