{
  "contractName": "KittycontractNFT",
  "abi": [
    {
      "anonymous": false,
      "inputs": [
        {
          "indexed": true,
          "internalType": "address",
          "name": "owner",
          "type": "address"
        },
        {
          "indexed": true,
          "internalType": "address",
          "name": "approved",
          "type": "address"
        },
        {
          "indexed": true,
          "internalType": "uint256",
          "name": "tokenId",
          "type": "uint256"
        }
      ],
      "name": "Approval",
      "type": "event"
    },
    {
      "anonymous": false,
      "inputs": [
        {
          "indexed": false,
          "internalType": "address",
          "name": "_owner",
          "type": "address"
        },
        {
          "indexed": false,
          "internalType": "uint256",
          "name": "_tokenID",
          "type": "uint256"
        },
        {
          "indexed": false,
          "internalType": "uint256",
          "name": "momID",
          "type": "uint256"
        },
        {
          "indexed": false,
          "internalType": "uint256",
          "name": "dadID",
          "type": "uint256"
        },
        {
          "indexed": false,
          "internalType": "uint256",
          "name": "_genes",
          "type": "uint256"
        }
      ],
      "name": "Birth",
      "type": "event"
    },
    {
      "anonymous": false,
      "inputs": [
        {
          "indexed": true,
          "internalType": "address",
          "name": "previousOwner",
          "type": "address"
        },
        {
          "indexed": true,
          "internalType": "address",
          "name": "newOwner",
          "type": "address"
        }
      ],
      "name": "OwnershipTransferred",
      "type": "event"
    },
    {
      "anonymous": false,
      "inputs": [
        {
          "indexed": true,
          "internalType": "address",
          "name": "from",
          "type": "address"
        },
        {
          "indexed": true,
          "internalType": "address",
          "name": "to",
          "type": "address"
        },
        {
          "indexed": true,
          "internalType": "uint256",
          "name": "tokenId",
          "type": "uint256"
        }
      ],
      "name": "Transfer",
      "type": "event"
    },
    {
      "inputs": [],
      "name": "_tokenName",
      "outputs": [
        {
          "internalType": "string",
          "name": "",
          "type": "string"
        }
      ],
      "stateMutability": "view",
      "type": "function",
      "constant": true
    },
    {
      "inputs": [],
      "name": "_tokenSymbol",
      "outputs": [
        {
          "internalType": "string",
          "name": "",
          "type": "string"
        }
      ],
      "stateMutability": "view",
      "type": "function",
      "constant": true
    },
    {
      "inputs": [],
      "name": "gen0Counter",
      "outputs": [
        {
          "internalType": "uint256",
          "name": "",
          "type": "uint256"
        }
      ],
      "stateMutability": "view",
      "type": "function",
      "constant": true
    },
    {
      "inputs": [],
      "name": "gen0Limit",
      "outputs": [
        {
          "internalType": "uint256",
          "name": "",
          "type": "uint256"
        }
      ],
      "stateMutability": "view",
      "type": "function",
      "constant": true
    },
    {
      "inputs": [],
      "name": "owner",
      "outputs": [
        {
          "internalType": "address",
          "name": "",
          "type": "address"
        }
      ],
      "stateMutability": "view",
      "type": "function",
      "constant": true
    },
    {
      "inputs": [],
      "name": "renounceOwnership",
      "outputs": [],
      "stateMutability": "nonpayable",
      "type": "function"
    },
    {
      "inputs": [
        {
          "internalType": "address",
          "name": "newOwner",
          "type": "address"
        }
      ],
      "name": "transferOwnership",
      "outputs": [],
      "stateMutability": "nonpayable",
      "type": "function"
    },
    {
      "inputs": [
        {
          "internalType": "address",
          "name": "owner",
          "type": "address"
        }
      ],
      "name": "balanceOf",
      "outputs": [
        {
          "internalType": "uint256",
          "name": "balance",
          "type": "uint256"
        }
      ],
      "stateMutability": "view",
      "type": "function",
      "constant": true
    },
    {
      "inputs": [],
      "name": "totalSupply",
      "outputs": [
        {
          "internalType": "uint256",
          "name": "total",
          "type": "uint256"
        }
      ],
      "stateMutability": "view",
      "type": "function",
      "constant": true
    },
    {
      "inputs": [],
      "name": "name",
      "outputs": [
        {
          "internalType": "string",
          "name": "tokenName",
          "type": "string"
        }
      ],
      "stateMutability": "pure",
      "type": "function",
      "constant": true
    },
    {
      "inputs": [],
      "name": "symbol",
      "outputs": [
        {
          "internalType": "string",
          "name": "tokenSymbol",
          "type": "string"
        }
      ],
      "stateMutability": "pure",
      "type": "function",
      "constant": true
    },
    {
      "inputs": [
        {
          "internalType": "uint256",
          "name": "tokenId",
          "type": "uint256"
        }
      ],
      "name": "ownerOf",
      "outputs": [
        {
          "internalType": "address",
          "name": "owner",
          "type": "address"
        }
      ],
      "stateMutability": "view",
      "type": "function",
      "constant": true
    },
    {
      "inputs": [
        {
          "internalType": "address",
          "name": "_to",
          "type": "address"
        },
        {
          "internalType": "uint256",
          "name": "_tokenID",
          "type": "uint256"
        }
      ],
      "name": "transfer",
      "outputs": [],
      "stateMutability": "nonpayable",
      "type": "function"
    },
    {
      "inputs": [
        {
          "internalType": "uint256",
          "name": "_genes",
          "type": "uint256"
        }
      ],
      "name": "createKittyGen0",
      "outputs": [
        {
          "internalType": "uint256",
          "name": "",
          "type": "uint256"
        }
      ],
      "stateMutability": "nonpayable",
      "type": "function"
    },
    {
      "inputs": [
        {
          "internalType": "uint256",
          "name": "tokenID",
          "type": "uint256"
        }
      ],
      "name": "getKitty",
      "outputs": [
        {
          "internalType": "uint256",
          "name": "",
          "type": "uint256"
        },
        {
          "internalType": "uint256",
          "name": "",
          "type": "uint256"
        },
        {
          "internalType": "uint256",
          "name": "",
          "type": "uint256"
        },
        {
          "internalType": "uint256",
          "name": "",
          "type": "uint256"
        },
        {
          "internalType": "uint256",
          "name": "",
          "type": "uint256"
        }
      ],
      "stateMutability": "view",
      "type": "function",
      "constant": true
    }
  ],
  "bytecode": "0x608060405234801561001057600080fd5b5060006100216100c460201b60201c565b9050806000806101000a81548173ffffffffffffffffffffffffffffffffffffffff021916908373ffffffffffffffffffffffffffffffffffffffff1602179055508073ffffffffffffffffffffffffffffffffffffffff16600073ffffffffffffffffffffffffffffffffffffffff167f8be0079c531659141344cd1fd0a4f28419497f9722a3daafe3b4186f6b6457e060405160405180910390a3506100cc565b600033905090565b6113bf806100db6000396000f3fe608060405234801561001057600080fd5b50600436106100f55760003560e01c80639f0c812511610097578063e98b7f4d11610066578063e98b7f4d14610264578063ecf35cca14610298578063ef5e94aa146102b6578063f2fde38b146102d4576100f5565b80639f0c8125146101dc578063a9059cbb146101fa578063d5a776ca14610216578063e515a4d114610246576100f5565b806370a08231116100d357806370a0823114610166578063715018a6146101965780638da5cb5b146101a057806395d89b41146101be576100f5565b806306fdde03146100fa57806318160ddd146101185780636352211e14610136575b600080fd5b6101026102f0565b60405161010f91906110ad565b60405180910390f35b61012061032d565b60405161012d919061114f565b60405180910390f35b610150600480360381019061014b9190610e4d565b61033a565b60405161015d919061103f565b60405180910390f35b610180600480360381019061017b9190610de8565b610377565b60405161018d919061114f565b60405180910390f35b61019e6103c0565b005b6101a86104fa565b6040516101b5919061103f565b60405180910390f35b6101c6610523565b6040516101d391906110ad565b60405180910390f35b6101e4610560565b6040516101f191906110ad565b60405180910390f35b610214600480360381019061020f9190610e11565b610599565b005b610230600480360381019061022b9190610e4d565b61069a565b60405161023d919061114f565b60405180910390f35b61024e610755565b60405161025b919061114f565b60405180910390f35b61027e60048036038101906102799190610e4d565b61075a565b60405161028f95949392919061116a565b60405180910390f35b6102a0610842565b6040516102ad91906110ad565b60405180910390f35b6102be61087b565b6040516102cb919061114f565b60405180910390f35b6102ee60048036038101906102e99190610de8565b610881565b005b60606040518060400160405280601081526020017f576174657273746f6e654b697474797300000000000000000000000000000000815250905090565b6000600480549050905090565b60006002600083815260200190815260200160002060009054906101000a900473ffffffffffffffffffffffffffffffffffffffff169050919050565b6000600160008373ffffffffffffffffffffffffffffffffffffffff1673ffffffffffffffffffffffffffffffffffffffff168152602001908152602001600020549050919050565b6103c8610a2a565b73ffffffffffffffffffffffffffffffffffffffff166103e66104fa565b73ffffffffffffffffffffffffffffffffffffffff161461043c576040517f08c379a00000000000000000000000000000000000000000000000000000000081526004016104339061110f565b60405180910390fd5b600073ffffffffffffffffffffffffffffffffffffffff1660008054906101000a900473ffffffffffffffffffffffffffffffffffffffff1673ffffffffffffffffffffffffffffffffffffffff167f8be0079c531659141344cd1fd0a4f28419497f9722a3daafe3b4186f6b6457e060405160405180910390a360008060006101000a81548173ffffffffffffffffffffffffffffffffffffffff021916908373ffffffffffffffffffffffffffffffffffffffff160217905550565b60008060009054906101000a900473ffffffffffffffffffffffffffffffffffffffff16905090565b60606040518060400160405280600381526020017f57534b0000000000000000000000000000000000000000000000000000000000815250905090565b6040518060400160405280601081526020017f576174657273746f6e654b69747479730000000000000000000000000000000081525081565b600073ffffffffffffffffffffffffffffffffffffffff168273ffffffffffffffffffffffffffffffffffffffff161415610609576040517f08c379a00000000000000000000000000000000000000000000000000000000081526004016106009061112f565b60405180910390fd5b3073ffffffffffffffffffffffffffffffffffffffff168273ffffffffffffffffffffffffffffffffffffffff161415610678576040517f08c379a000000000000000000000000000000000000000000000000000000000815260040161066f906110cf565b60405180910390fd5b6106823382610a32565b61068b57600080fd5b610696338383610a9e565b5050565b60006106a4610a2a565b73ffffffffffffffffffffffffffffffffffffffff166106c26104fa565b73ffffffffffffffffffffffffffffffffffffffff1614610718576040517f08c379a000000000000000000000000000000000000000000000000000000000815260040161070f9061110f565b60405180910390fd5b600a6003541061072757600080fd5b6003600081548092919061073a906112d2565b919050555061074e60008060008530610c31565b9050919050565b600a81565b6000806000806000806004878154811061079d577f4e487b7100000000000000000000000000000000000000000000000000000000600052603260045260246000fd5b9060005260206000209060020201905080600001548160010160009054906101000a900463ffffffff168260010160049054906101000a900463ffffffff168360010160089054906101000a900467ffffffffffffffff168460010160109054906101000a900461ffff168363ffffffff1693508263ffffffff1692508167ffffffffffffffff1691508061ffff169050955095509550955095505091939590929450565b6040518060400160405280600381526020017f57534b000000000000000000000000000000000000000000000000000000000081525081565b60035481565b610889610a2a565b73ffffffffffffffffffffffffffffffffffffffff166108a76104fa565b73ffffffffffffffffffffffffffffffffffffffff16146108fd576040517f08c379a00000000000000000000000000000000000000000000000000000000081526004016108f49061110f565b60405180910390fd5b600073ffffffffffffffffffffffffffffffffffffffff168173ffffffffffffffffffffffffffffffffffffffff16141561096d576040517f08c379a0000000000000000000000000000000000000000000000000000000008152600401610964906110ef565b60405180910390fd5b8073ffffffffffffffffffffffffffffffffffffffff1660008054906101000a900473ffffffffffffffffffffffffffffffffffffffff1673ffffffffffffffffffffffffffffffffffffffff167f8be0079c531659141344cd1fd0a4f28419497f9722a3daafe3b4186f6b6457e060405160405180910390a3806000806101000a81548173ffffffffffffffffffffffffffffffffffffffff021916908373ffffffffffffffffffffffffffffffffffffffff16021790555050565b600033905090565b60008273ffffffffffffffffffffffffffffffffffffffff166002600084815260200190815260200160002060009054906101000a900473ffffffffffffffffffffffffffffffffffffffff1673ffffffffffffffffffffffffffffffffffffffff1614905092915050565b60018060008473ffffffffffffffffffffffffffffffffffffffff1673ffffffffffffffffffffffffffffffffffffffff1681526020019081526020016000206000828254610aed91906111d9565b92505081905550816002600083815260200190815260200160002060006101000a81548173ffffffffffffffffffffffffffffffffffffffff021916908373ffffffffffffffffffffffffffffffffffffffff160217905550600073ffffffffffffffffffffffffffffffffffffffff168373ffffffffffffffffffffffffffffffffffffffff1614610bd15760018060008573ffffffffffffffffffffffffffffffffffffffff1673ffffffffffffffffffffffffffffffffffffffff1681526020019081526020016000206000828254610bc9919061122f565b925050819055505b808273ffffffffffffffffffffffffffffffffffffffff168473ffffffffffffffffffffffffffffffffffffffff167fddf252ad1be2c89b69c2b068fc378daa952ba7f163c4a11628f55a4df523b3ef60405160405180910390a4505050565b6000806040518060a001604052808581526020018863ffffffff1681526020018763ffffffff1681526020014267ffffffffffffffff1681526020018661ffff16815250905060048190806001815401808255809150506001900390600052602060002090600202016000909190919091506000820151816000015560208201518160010160006101000a81548163ffffffff021916908363ffffffff16021790555060408201518160010160046101000a81548163ffffffff021916908363ffffffff16021790555060608201518160010160086101000a81548167ffffffffffffffff021916908367ffffffffffffffff16021790555060808201518160010160106101000a81548161ffff021916908361ffff160217905550505060006001600480549050610d63919061122f565b9050610d7160008583610a9e565b7f0a5311bd2a6608f08a180df2ee7c5946819a649b204b554bb8e39825b2c50ad584828a8a89604051610da895949392919061105a565b60405180910390a1809250505095945050505050565b600081359050610dcd8161135b565b92915050565b600081359050610de281611372565b92915050565b600060208284031215610dfa57600080fd5b6000610e0884828501610dbe565b91505092915050565b60008060408385031215610e2457600080fd5b6000610e3285828601610dbe565b9250506020610e4385828601610dd3565b9150509250929050565b600060208284031215610e5f57600080fd5b6000610e6d84828501610dd3565b91505092915050565b610e7f81611263565b82525050565b6000610e90826111bd565b610e9a81856111c8565b9350610eaa81856020860161129f565b610eb38161134a565b840191505092915050565b6000610ecb6032836111c8565b91507f4552433732313a205472616e73666572206973206e6f7420737570706f72746560008301527f6420746f207468697320636f6e747261637400000000000000000000000000006020830152604082019050919050565b6000610f316026836111c8565b91507f4f776e61626c653a206e6577206f776e657220697320746865207a65726f206160008301527f64647265737300000000000000000000000000000000000000000000000000006020830152604082019050919050565b6000610f976020836111c8565b91507f4f776e61626c653a2063616c6c6572206973206e6f7420746865206f776e65726000830152602082019050919050565b6000610fd76025836111c8565b91507f4552433732313a205472616e7366657220697320746f2074686520302061646460008301527f72657373210000000000000000000000000000000000000000000000000000006020830152604082019050919050565b61103981611295565b82525050565b60006020820190506110546000830184610e76565b92915050565b600060a08201905061106f6000830188610e76565b61107c6020830187611030565b6110896040830186611030565b6110966060830185611030565b6110a36080830184611030565b9695505050505050565b600060208201905081810360008301526110c78184610e85565b905092915050565b600060208201905081810360008301526110e881610ebe565b9050919050565b6000602082019050818103600083015261110881610f24565b9050919050565b6000602082019050818103600083015261112881610f8a565b9050919050565b6000602082019050818103600083015261114881610fca565b9050919050565b60006020820190506111646000830184611030565b92915050565b600060a08201905061117f6000830188611030565b61118c6020830187611030565b6111996040830186611030565b6111a66060830185611030565b6111b36080830184611030565b9695505050505050565b600081519050919050565b600082825260208201905092915050565b60006111e482611295565b91506111ef83611295565b9250827fffffffffffffffffffffffffffffffffffffffffffffffffffffffffffffffff038211156112245761122361131b565b5b828201905092915050565b600061123a82611295565b915061124583611295565b9250828210156112585761125761131b565b5b828203905092915050565b600061126e82611275565b9050919050565b600073ffffffffffffffffffffffffffffffffffffffff82169050919050565b6000819050919050565b60005b838110156112bd5780820151818401526020810190506112a2565b838111156112cc576000848401525b50505050565b60006112dd82611295565b91507fffffffffffffffffffffffffffffffffffffffffffffffffffffffffffffffff8214156113105761130f61131b565b5b600182019050919050565b7f4e487b7100000000000000000000000000000000000000000000000000000000600052601160045260246000fd5b6000601f19601f8301169050919050565b61136481611263565b811461136f57600080fd5b50565b61137b81611295565b811461138657600080fd5b5056fea26469706673582212209fb461fb5d4459c0101fed417c0f680dbc93f29cb952410ebd75635f9e74c75564736f6c63430008000033",
  "immutableReferences": {},
  "source": "pragma solidity ^0.8.0;\npragma experimental ABIEncoderV2;\n\nimport \"./IERC721.sol\";\nimport \"./Ownable.sol\";\n\ncontract KittycontractNFT is IERC721, Ownable {\n\n  event Birth(address _owner, uint256 _tokenID, uint256 momID, uint256 dadID, uint256 _genes);\n\n  string public constant _tokenName = \"WaterstoneKittys\";\n  string public constant _tokenSymbol = \"WSK\";\n\n  mapping(address => uint256) balances;\n\n\n  mapping(uint256 => address) ownerOfNFT;\n\n  //NFT creation limit\n  uint256 public constant gen0Limit = 10;\n\n  //NFT Gen0 limit\n  uint256 public gen0Counter;\n\n  struct Kittys {\n    uint256 genes;\n    uint32 momID;\n    uint32 dadID;\n    uint64 birthTime;\n    uint16 generation;\n  }\n\n  Kittys[] kittys;\n\n  /**\n   * @dev Returns the number of tokens in ``owner``'s account.\n   */\n  function balanceOf(address owner) external view override returns (uint256 balance){\n    //we need it to return a balance of an owner --> mapping\n    return balances[owner]; //need to create a 'balances' mapping\n  }\n\n  /*\n   * @dev Returns the total number of tokens in circulation.\n   */\n  function totalSupply() public view override returns (uint256 total){\n    return kittys.length;\n  }\n\n  /*\n   * @dev Returns the name of the token.\n   */\n  function name() external pure override returns (string memory tokenName){\n    return _tokenName;\n  }\n\n  /*\n   * @dev Returns the symbol of the token.\n   */\n  function symbol() external pure override returns (string memory tokenSymbol){\n    return _tokenSymbol;\n  }\n\n  /**\n   * @dev Returns the owner of the `tokenId` token.\n   *\n   * Requirements:\n   *\n   * - `tokenId` must exist.\n   */\n  function ownerOf(uint256 tokenId) external view override returns (address owner){\n    return ownerOfNFT[tokenId];\n  }\n\n  /* @dev Transfers `tokenId` token from `msg.sender` to `to`.\n  *\n  * Requirements:\n  *\n  * - `to` cannot be the zero address.\n  * - `to` can not be the contract address.\n  * - `tokenId` token must be owned by `msg.sender`.\n  *\n  * Emits a {Transfer} event.\n  */\n  function transfer(address _to, uint256 _tokenID) external override {\n    require(_to != address(0), \"ERC721: Transfer is to the 0 address!\");\n    require(_to != address(this), \"ERC721: Transfer is not supported to this contract\");\n    require(owns(msg.sender, _tokenID));\n\n    _transfer(msg.sender, _to, _tokenID);\n\n  }\n\n  function _transfer(address _from, address _to, uint256 _tokenID) internal {\n    //increment balance of 'to' address + 1\n    balances[_to] += 1;\n\n    //Assign the NFT to the '_to' address\n    ownerOfNFT[_tokenID] = _to;\n\n    //if '_from' address is not the 0 address (aka not a newly minted coin being transferred)...\n    //decrement the balance of the '_from' address by - 1\n    if(_from != address(0)){\n      balances[_from] -= 1;\n    }\n\n    emit Transfer(_from, _to, _tokenID);\n  }\n\n  function owns(address _from, uint256 tokenID) internal view returns(bool){\n    return ownerOfNFT[tokenID] == _from;\n  }\n\n  function createKittyGen0(uint256 _genes) public onlyOwner returns(uint256) {\n    //takes the genes that you send in from front send\n    //creates a new kitty for us with those specific genes\n    require(gen0Counter < gen0Limit);\n\n    gen0Counter++;\n    //use _createKitty()\n\n    return _createKitty(0, 0, 0, _genes, address(this));\n  }\n\n  function _createKitty(uint256 _momID, uint256 _dadID, uint256 _generation, uint256 _genes,address _owner) internal returns(uint256){\n\n      Kittys memory _kitty = Kittys({\n\n        momID: uint32(_momID),\n        dadID: uint32(_dadID),\n        generation: uint16(_generation),\n        genes: _genes,\n        birthTime: uint64(block.timestamp)\n        });\n\n      kittys.push(_kitty);\n\n      uint256 newKittenID = kittys.length - 1;\n\n      _transfer(address(0), _owner, newKittenID);\n\n      emit Birth(_owner, newKittenID, _momID, _dadID, _genes);\n\n      return newKittenID;\n\n  }\n\n  function getKitty(uint256 tokenID) external view returns(uint, uint, uint, uint, uint){\n\n    //Kittys[] storage _kittys = kittys[tokenID];\n\n      //genes = _kittys.genes;\n      //momID = _kittys.momID;\n      //dadID = _kittys.dadID;\n      //birthTime = _kittys.birthTime;\n      //generation = _kittys.generation;\n\n      Kittys storage kitties = kittys[tokenID];\n\n      return(\n        kitties.genes,\n        kitties.momID,\n        kitties.dadID,\n        kitties.birthTime,\n        kitties.generation\n        );\n\n\n\n  }\n\n}\n",
  "sourcePath": "/Users/williamlamarche/Desktop/Blockchain-Development/ETHdApp/contracts/KittycontractNFT.sol",
  "compiler": {
    "name": "solc",
    "version": "0.8.0+commit.c7dfd78e.Emscripten.clang"
  },
  "schemaVersion": "3.4.1",
  "updatedAt": "2021-09-17T04:59:32.732Z",
  "networkType": "ethereum",
  "devdoc": {
    "kind": "dev",
    "methods": {
      "balanceOf(address)": {
        "details": "Returns the number of tokens in ``owner``'s account."
      },
      "owner()": {
        "details": "Returns the address of the current owner."
      },
      "ownerOf(uint256)": {
        "details": "Returns the owner of the `tokenId` token. Requirements: - `tokenId` must exist."
      },
      "renounceOwnership()": {
        "details": "Leaves the contract without owner. It will not be possible to call `onlyOwner` functions anymore. Can only be called by the current owner. NOTE: Renouncing ownership will leave the contract without an owner, thereby removing any functionality that is only available to the owner."
      },
      "transferOwnership(address)": {
        "details": "Transfers ownership of the contract to a new account (`newOwner`). Can only be called by the current owner."
      }
    },
    "version": 1
  },
  "userdoc": {
    "kind": "user",
    "methods": {},
    "version": 1
  }
}